S01900004C504C445F54656D706C6174655F4B36302E7372656334
S1130000F8FF0020058D00003591000035910000B7
S113001035910000359100003591000035910000C4
S113002035910000359100003591000035910000B4
S113003035910000359100003591000035910000A4
S11300409168000035910000359100003591000061
S11300503591000035910000359100003591000084
S11300603591000035910000AB6800003591000027
S11300703591000035910000359100003591000064
S11300803591000035910000359100003591000054
S11300903591000035910000359100003591000044
S11300A03591000035910000359100003591000034
S1130400FFFFFFFFFFFFFFFFFFFFFFFFFEFFFFFFF9
S113041080B5010000200800002102F085FA03D213
S1130420DFF8401A02F092FA02BDF8B5DFF8380A94
S11304300068DFF8381A0860DFF8340A0068DFF86B
S1130440281A0860DFF82C0A0068DFF82C1A0968FB
S1130450401ADFF81C1A0860DFF8200A0068DFF889
S1130460201A0860DFF81C0A0068DFF8101A086018
S1130470DFF8140A0068DFF8141A0968401ADFF874
S1130480041A0860DFF8E809006802F0CBFAFFF705
S1130490BFFFDFF8FC1902F0EFFA0AD8DFF8F4091D
S11304A00068DFF8F41902F0F9FADFF8F0190860CF
S11304B009E0DFF8E0090068DFF8E41902F0EEFA79
S11304C0DFF8D8190860DFF8A809006810F1320FC6
S11304D00EDADFF8D0090068002809D1DFF8B40982
S11304E00068DFF8C41902F0D9FADFF8B01908601F
S11304F0DFF87C09006802F095FAFFF789FF02F043
S11305004BFBDFF8A829DFF8A83902F06DFB0200E5
S11305100B000020DFF89C1902F038FC02F0F6FC16
S113052004000D00DFF890090068DFF8741902F088
S1130530B5FA02F031FB06000F000020DFF87C1949
S113054022002B0002F00CFD02000B00DFF8700902
S1130550DFF8701902F078FD02000B00300039005A
S113056002F014FC02F094FEDFF85C190860DFF876
S11305705C090068DFF8281902F090FADFF85019D6
S11305800860DFF80009006802F04CFAFFF740FF4A
S1130590DFF8FC1802F070FA0AD8DFF8F8080068EF
S11305A0DFF8F41802F07AFADFF82819086009E095
S11305B0DFF8E0080068DFF8E81802F06FFADFF807
S11305C014190860DFF8BC08006810F1320F0EDA65
S11305D0DFF8D0080068002809D1DFF8B8080068FF
S11305E0DFF8C41802F05AFADFF8E8180860DFF8F8
S11305F09408006802F016FAFFF70AFF02F0CCFA3A
S1130600DFF8A828DFF8A83802F0EEFA02000B00A1
S11306100020DFF8A01802F0B9FB02F077FC040018
S11306200D00DFF894080068DFF8741802F036FA59
S113063002F0B2FA06000F000020DFF88018220052
S11306402B0002F08DFC02000B00DFF87408DFF8C9
S1130650741802F0F9FC02000B003000390002F0BB
S113066095FB02F015FEDFF870180860DFF85C08EF
S11306700068DFF82C1802F011FADFF8601808603F
S1130680DFF85C080168DFF84008006802F05EF9F2
S11306900400DFF8DC07006802F0C4F9210002F06E
S11306A055F9DFF840180860DFF83C080168DFF806
S11306B02808006802F04AF90400DFF8C807006857
S11306C002F0B0F9210002F041F9DFF820180860C7
S11306D0DFF81C080168DFF80C08006802F020FE4F
S11306E0DFF80C180860DFF80C080168DFF8FC0775
S11306F0006802F015FEDFF8FC170860DFF8E40775
S11307000068DFF8F41702F00FF904D20020DFF8D4
S1130710D017086004E05FF07E50DFF8C41708606B
S1130720DFF8C8070068DFF8D01702F0FDF804D23C
S11307300020DFF8B417086004E05FF07E50DFF8B3
S1130740A8170860DFF828070068DFF81C17096895
S1130750401A02F067F9DFF84417096802F0F6F866
S1130760DFF88017096802F0DBFD0400DFF80007FA
S11307700068DFF8F4160968B0EB4100DFF8EC1606
S11307800968081802F04EF9DFF84417096802F006
S1130790DDF80100200002F005FE02F077FEDFF82C
S11307A05C170860DFF8DC060068DFF8D01609681B
S11307B0401A02F037F9DFF81C17096802F0C6F88E
S11307C0DFF82817096802F0ABFD0400DFF8B4066F
S11307D00068DFF8A8160968B0EB4100DFF8A0163E
S11307E00968081802F01EF9DFF8F016096802F02B
S11307F0ADF80100200002F0D5FD02F047FEDFF85D
S113080000170860DFF8FC060068DFF8F0160968D6
S11308100818DFF8F0160860DFF8EC060068DFF867
S1130820E01609680818DFF8E0160860DFF8D40657
S11308300068C72803DBC720DFF8C8160860DFF8A4
S1130840C8060068C72803DBC720DFF8BC160860A9
S1130850DFF8B8060068002873D1DFF8A80600683E
S1130860DFF8AC160860DFF8A0060068DFF8A4160D
S11308700860DFF89406006800280AD4DFF88806C8
S11308800168042002F0F7FE0021052002F0F3FEC7
S113089023E0DFF88406006802F0C4F801000C00CD
S11308A0DFF86406006802F0BDF8FFF7B1FD21002F
S11308B002F0E2F806D8DFF8600600684042DFF88C
S11308C0481608600021042002F0D5FEDFF838063F
S11308D000684142052002F0CEFEDFF828060068D9
S11308E000280AD4DFF81C060168072002F0C3FEC2
S11308F00021062002F0BFFE23E0DFF82006006896
S113090002F090F801000C00DFF8F805006802F02E
S113091089F8FFF77DFD210002F0AEF806D8DFF874
S1130920FC0500684042DFF8DC1508600021072060
S113093002F0A1FEDFF8CC0500684142062002F077
S11309409AFEDFF8C8050068012805D0DFF8D00555
S11309500088B0F5FA6F0FDA0021042002F08BFE54
S11309600021052002F087FE0021062002F083FE0C
S11309700021072002F07FFEF1BDF8B50D21032010
S113098003F025F8002804D10120DFF89815087039
S113099003E00020DFF88C150870DFF88C05006890
S11309A0B0F5487F19DDDFF884050068002814D10C
S11309B0DFF87005007801280FD10120DFF8E41476
S11309C008600120DFF8641508600120DFF8601575
S11309D008600120DFF85C150870DFF85C0500682A
S11309E0DFF8BC1402F05AF8DFF850150860DFF89D
S11309F050050068401F4000DFF87C140968DFF8E8
S1130A008C2412685118884203DA0120DFF8341567
S1130A100860DFF834050068401D4000DFF8581412
S1130A200968DFF8682412685118884204DADFF88C
S1130A3074040068012803D10020DFF80815086059
S1130A40DFF808050068DFF80815096808180021B0
S1130A50484342F21071B0FBF1F001F0EDFFDFF812
S1130A60F4140860DFF8F004006802F095F800223E
S1130A70DFF8E83402F074FA02F00AFCFFF7C8FC6D
S1130A80DFF8DC1401F050FF31D2DFF8D80400881D
S1130A9079282CDBDFF8A804006801F0C3FF040008
S1130AA0DFF8B00400685FF07E5101F04FFF0100F1
S1130AB0200002F035FC02F0E9FCDFF8B81308600E
S1130AC0DFF87C04006801F0ADFF0400DFF8840463
S1130AD000685FF07E5101F039FF0100200002F050
S1130AE01FFC02F0D3FCDFF8A013086089E0DFF8F4
S1130AF06804006802F050F80022DFF8603402F065
S1130B002FFA02F0C5FBFFF783FC5FF07E510C0067
S1130B1002F042F80022DFF8503402F095FA02F0B5
S1130B20B7FB210003F0BFF80400DFF814040068E9
S1130B3001F078FF0500DFF808040068DFF8081406
S1130B400968401A01F06EFF0100200001F0FEFE6A
S1130B500100280002F026FC02F098FCDFF80C14D7
S1130B600968002251434FF47A62B1FBF2F108188C
S1130B70C0490860DFF8E003006802F00DF80022C5
S1130B80DFF8D83302F0ECF902F082FBFFF740FC07
S1130B905FF07E510C0001F0FFFF0022DFF8D0333C
S1130BA002F052FA02F074FB210003F07CF8040016
S1130BB0DFF88C03006801F035FF0500DFF88003DF
S1130BC00068DFF884130968401A01F02BFF010064
S1130BD0200001F0BBFE0100280002F0E3FB02F05C
S1130BE055FCDFF888130968002251434FF47A62F8
S1130BF0B1FBF2F10818A44908601920DFF8741356
S1130C0008600020DFF870130860D348006801F022
S1130C10C3FF0022D14B02F0A3F902F039FBFFF726
S1130C20F7FBDFF8581301F027FF00F2CE80CA4823
S1130C30006801F0B1FF0022C84B02F091F90022D4
S1130C40002303F033F85BD28F48006801F0EAFE1A
S1130C50BA49096801F07AFE01F09EFF04000D0014
S1130C60BD48006801F098FF02000B000020C44951
S1130C7002F08CF822002B0001F0B6FF0022BC4BDE
S1130C8002F0E2F902F004FBBE490860794800680A
S1130C9003F024F806000F00B7480068A749096864
S1130CA001F054FE01F078FF04000D00AA4800682A
S1130CB001F072FF02000B000020B14902F066F857
S1130CC022002B0001F090FF0022A94B02F0BCF996
S1130CD000227A4B02F044F932003B0001F084FF19
S1130CE003F014F8634908606748006801F09AFE4D
S1130CF0A449096802F056FB02F0C8FB6249086087
S1130D009548006801F048FF0022944B02F028F94E
S1130D100022002303F020F857D85648006801F059
S1130D2081FE8649096801F011FE01F035FF0400D7
S1130D300D008948006801F02FFF0022874B02F064
S1130D400FF922002B0001F04FFF0022864B02F026
S1130D507BF902F09DFA8C4908604648006801F06E
S1130D6061FE8949096802F01DFB02F08FFB4149CD
S1130D7008604548006802F0B1FF06000F007E4895
S1130D8000686E49096801F0E1FD01F005FF040007
S1130D900D007148006801F0FFFE00226F4B02F065
S1130DA0DFF822002B0001F01FFF00226E4B02F03F
S1130DB04BF90022414B02F0D3F832003B0001F022
S1130DC013FF02F0A3FF304908602A4800685C4919
S1130DD00968884203DB5A480068264908602A48A3
S1130DE0006857490968884203DB5548006826496A
S1130DF008602C48006801280CD1644800681D492B
S1130E00086062480068204908601F48006860491B
S1130E10086026E04C48006856490968401A15499C
S1130E200968884206DB4848006852490968401A44
S1130E3010490860444800684E490968401A12493C
S1130E400968884206DB404800684A490968401A34
S1130E500D4908603C48006846490968401A4C49F5
S1130E600860F1BD000080BF6807FF1F6C07FF1F0B
S1130E706407FF1F3C07FF1F3407FF1F7807FF1F8E
S1130E807C07FF1F7407FF1F4007FF1F3807FF1F62
S1130E900100A041CC07FF1F00008C428807FF1F00
S1130EA00000C842A407FF1F000070429A99999954
S1130EB09999C93F00001840D007FF1F0000F03F78
S1130EC07B14AE47E17AB43F8C07FF1FD407FF1FA2
S1130ED09007FF1F9407FF1F9807FF1F9C07FF1F22
S1130EE00006FF1F4C07FF1F0406FF1F5007FF1FCC
S1130EF05407FF1F5807FF1FFFFFC7C20806FF1F45
S1130F000C06FF1F7007FF1F8007FF1FB007FF1F9E
S1130F104807FF1F4407FF1F1406FF1F1006FF1F8B
S1130F20640AFF1FA10AFF1F180AFF1FA807FF1F5B
S1130F30AC07FF1F9E0AFF1FE407FF1FF405FF1FF6
S1130F40E805FF1F8407FF1FE405FF1F7008FF1F4C
S1130F506C08FF1FB807FF1FF005FF1F00EAA4C0BD
S1130F600000A0427A0AFF1F001078407408FF1F97
S1130F7000C07740EC05FF1FE806FF1F0100A042F8
S1130F8000EAA4402407FF1F2007FF1F6007FF1F7C
S1130F905C07FF1F2DE9F843DFF8900B0088052854
S1130FA01DDADFF88C0B0088052818DADFF8840BCB
S1130FB00088052813DADFF8800B008805280EDA8C
S1130FC0DFF8780B0088052809DADFF8740B00884D
S1130FD0052804DADFF86C0B008805280BDBDFF842
S1130FE0680B008801F028FD0100DFF8600B006841
S1130FF001F09AFC03D20120DFF8541B0860DFF8EB
S1131000540B008802F074FEDFF84C2BDFF84C3BE5
S113101001F0EAFD0022DFF8483B01F0E5FD002283
S1131020DFF8403B01F09CFF01F070FF0022DFF885
S1131030383B01F095FF02000B00DFF8300BDFF8BE
S1131040301B02F001F804000D00DFF8280B0068E3
S113105001F0A2FD22002B0001F082FF02F018F93A
S1131060DFF8141B0860DFF8EC0A008802F040FE89
S1131070DFF8E42ADFF8E43A01F0B6FD0022DFF8F5
S1131080E03A01F0B1FD02000B000020DFF8EC1A99
S113109001F07CFE01F03AFF02000B000020DFF8B3
S11310A0C81A01F05DFF02000B00DFF8C00ADFF888
S11310B0D01A01F0C9FF04000D00DFF8C80A006867
S11310C001F06AFD22002B0001F04AFF02F0E0F873
S11310D0DFF8B41A0860DFF8B40ADFF8B41A08605D
S11310E0DFF8B00ADFF8B01A0860DFF8B00A007859
S11310F000283FD1DFF8A80A0078012818D1DFF8CA
S1131100A40A0088002813D0DFF8980A0088FA2877
S11311100EDADFF8940A0068002809D1DFF88C0A97
S1131120DFF88C1A08600120DFF8881A087021E0C3
S1131130DFF8840A0078012818D1DFF8680A0088EB
S1131140002813D0DFF85C0A0088FA280EDADFF8EA
S1131150580A0068002809D10120DFF8581A0870DD
S1131160DFF8580ADFF8481A086003E00020DFF8C7
S1131170401A0860DFF8240A0078012872D1DFF8E9
S1131180400A007801286DD1DFF8380A0088002869
S113119006D0DFF8300A008840F2DD51884261DB76
S11311A0DFF8240A007801282BD1DFF8200A008810
S11311B0401CDFF8181A0880DFF8140A00780028A9
S11311C004D0DFF8F809DFF8E8190860DFF8FC0953
S11311D000881F2815DB0020DFF8F01908800020A4
S11311E0DFF8CC1908600020DFF8DC190870002053
S11311F0DFF8CC190870DFF8DC2902213C2003F069
S11312008FF8DFF8C409007802282BD1DFF8BC0975
S11312100088401CDFF8B4190880DFF8B4090078AE
S1131220002804D0DFF88409DFF884190860DFF8A7
S11312309C0900881F2815DB0020DFF8901908801E
S11312400020DFF86C1908600020DFF87C190870B2
S11312500020DFF86C190870DFF8782902213C209F
S113126003F05EF8DFF8EC080088DFF8CC18098892
S11312700A39884215DADFF8C4080088DFF8B8189C
S113128009880A3988420CDADFF84C09006800281A
S113129007D10120DFF8441908600020DFF838196D
S11312A00860DFF8B0080088DFF8901809880A3968
S11312B0884215DADFF880080088DFF8801809888A
S11312C00A3988420CDADFF814090068002807D1CB
S11312D00120DFF8041908600020DFF80019086015
S11312E0DFF848080088652813DADFF84408008826
S11312F065280EDADFF85C080088652809DADFF86B
S1131300340800886F2804DADFF8380800886F286A
S113131007DB0020DFF8C01808600020DFF8BC18E5
S113132008600A21032002F052FB002840F090805C
S1131330DFF8F8070088B42842DBDFF8F4070088F8
S11313401F283DDBDFF8F0070088502838DADFF883
S1131350EC070088DFF8E0170988401A15282FDB0E
S1131360DFF87C08006800282AD1DFF8C00700886D
S1131370D0F11E004FF64C71401ADFF8B417088004
S1131380DFF8C007008828280EDBDFF8A8070088EC
S11313902838012804DBDFF89C070088283800E09F
S11313A00020DFF8A01708800120DFF80818087073
S11313B00120DFF8281808600020DFF81C180860F6
S11313C0DFF86C070088B42842DBDFF86007008888
S11313D01F283DDBDFF864070088502838DADFF87F
S11313E058070088DFF854170988401A15282FDB9E
S11313F0DFF8EC07006800282AD1DFF834070088FA
S1131400D0F11E004FF64C71401ADFF82017088007
S1131410DFF82007008828280EDBDFF8280700887B
S11314202838012804DBDFF81C070088283800E08E
S11314300020DFF8001708800120DFF87817087013
S11314400120DFF8941708600020DFF89017086087
S1131450DFF8D8060088DFF8D8160988401A01F0AA
S1131460E1FADFF880170860DFF8C8060088DFF8C3
S1131470D4160988401A01F0D5FADFF86C17086011
S1131480DFF8A8060088DFF8A816098811FA80F0AA
S1131490DFF8C016098810FA81F001F0C3FADFF80A
S11314A04C170860DFF88C060088DFF89816098866
S11314B011FA80F001F0B6FADFF834170860DFF8AB
S11314C0B8060168DFF81C07006801F03FFA040061
S11314D0DFF8B4060168DFF81007006801F036FA97
S11314E0210001F01DFFDFF80C170860DFF8A006EB
S11314F00168DFF8F806006801F028FA0400DFF854
S113150098060168DFF8E806006801F01FFA210078
S113151001F006FFDFF8E0160860DFF85C060168FA
S1131520002001F013FADFF8BC16096801F00EFA86
S11315300400DFF8540601685FF07E5001F006FAFB
S1131540DFF8A416096801F001FA210001F0E8FEB1
S1131550DFF8A8160860DFF8D4050088DFF8D01596
S11315600988401A01F05EFADFF894160860DFF883
S1131570BC050088DFF8B815098811FA80F0DFF897
S1131580D415098810FA81F001F04CFADFF87416CA
S11315900860DFF87416DFF86006006802F083FB69
S11315A00100DFF85806006801F078FADFF85C16ED
S11315B00860DFF85416DFF84006006802F073FB99
S11315C00100DFF83006006801F068FADFF8401621
S11315D00860DFF840060168DFF83C0601F0B6F960
S11315E00400DFF8700500880721484301F01AFA67
S11315F00100200001F0D6FEDFF820160860DFF8B5
S113160020060168DFF8100601F0A0F9DFF81416CF
S11316100860DFF8C8050068012812DBDFF80C0554
S1131620008850280DDADFF82C0500883C2808DAF9
S1131630DFF800050088642803DA0120DFF8E815E4
S11316400860DFF894050068012812DBDFF8E00485
S1131650008850280DDADFF8FC0400883C2808DAFA
S1131660DFF8E0040088642803DA0120DFF8BC1501
S11316700860DFF8B8050068012828DBDFF860059A
S11316800068002823D1DFF8A4040088DFF8A01440
S11316900988884207D2DFF89C040088DFF8A41484
S11316A00988884204D3DFF830050068002803D194
S11316B00020DFF878150860DFF87405DFF874158A
S11316C00860DFF86C05DFF87015086086E1DFF864
S11316D058050068012828DBDFF8040500680028A5
S11316E023D1DFF84C040088DFF8401409888842CD
S11316F007D2DFF850040088DFF8381409888842DC
S113170004D3DFF8D8040068002803D10020DFF8F0
S113171018150860DFF82405DFF818150860DFF8ED
S11317201C05DFF81415086058E1DFF8140500689B
S1131730DFF810150860DFF810050068DFF8001501
S11317400860DFF808050068DFF8FC140860DFF8BB
S113175000050068DFF8F4140860DFF8B4040068DA
S1131760DFF8EC140860DFF8E8040068DFF8D01450
S1131770096801F017FEFEF74BFEDFF8A8140968AC
S113178001F0E4F8DFF8CC1401F076F906D8DFF8BC
S1131790C8040068DFF8C41408600AE0DFF8B00485
S11317A00068DFF89C14096801F0FCFDDFF8AC1454
S11317B00860DFF8A8040068DFF89C140860DFF80C
S11317C064040168DFF89404006801F0BFF8DFF8EE
S11317D0841401F051F910D8DFF84804006801F0CE
S11317E0DBF902000B000020DFF8741401F02CFC7C
S11317F001F04EFDDFF864140860DFF82804016886
S1131800DFF85804006801F0A1F8DFF8581401F07B
S11318108BF810D2DFF80C04006801F0BDF9020067
S11318200B000020DFF8401401F00EFC01F030FD45
S1131830DFF828140860DFF834040068401CDFF87F
S11318402C140860DFF808040068FEF7E1FD0400CA
S1131850DFF8EC030068FEF7DBFD0100200001F077
S1131860A1FDDFF8C013096801F070F8DFF8001477
S1131870096801F055FDDFF8F8130860DFF8EC03A0
S11318800068082811DBDFF8E80300685FF0824194
S113189001F004F9DFF8DC1308600020DFF8D0134E
S11318A008600020DFF8C4130860CD4800680128F0
S11318B040D1DFF868030168DFF89403006801F0A1
S11318C045F801F069F90022DFF8AC3301F048FB78
S11318D080468946DFF84C03006801F05DF9060094
S11318E00F00DFF87803006801F056F95FF0663204
S11318F0DFF8883301F078F904000D00DFF85803AD
S1131900006801F049F95FF03332DFF8743301F015
S11319106BF922002B0001F023FB32003B0001F0A5
S113192063F942464B4601F01BFB01F0B1FCC1498F
S1131930086037E0B9480168C548006801F006F856
S113194001F02AF90022CC4B01F00AFB80468946BB
S1131950B448006801F020F906000F00BF48006891
S113196001F01AF95FF06632C44B01F03DF904004E
S11319700D00B948006801F00FF95FF03332C04B35
S113198001F032F922002B0001F0EAFA32003B00A8
S113199001F02AF942464B4601F0E2FA01F078FCE4
S11319A0A4490860A34801688148006801F0B8FCB4
S11319B0A0490860994801685FF0804000F0C6FFC4
S11319C09249096800F0C2FF01F0E6F80022AA4B30
S11319D001F0C6FA01F05CFC97490860A948006868
S11319E001286BD15B480088792867DB554800885B
S11319F0472863DB4F48008847285FDBA24800681C
S1131A0000285BD1A148006801F0C6F80022A04B71
S1131A1001F0A6FA01F03CFCFEF7FAFC9D4900F047
S1131A2083FF4BD2424800884049098828398842BC
S1131A301EDA41480088414909883239884217DA58
S1131A40404800883B490988401A00F0EBFFFEF744
S1131A50DFFC914900F068FF0AD2344800887928F5
S1131A6006DB33480088472802DB012086490860EA
S1131A702E4800882E490988283988421EDA2F48C2
S1131A8000882D4909883239884217DA2D480088A0
S1131A9028490988401A00F0C5FFFEF7B9FC7E49C1
S1131AA000F042FF0AD222480088792806DB1F484A
S1131AB00088472802DB0120734908605E480068FB
S1131AC05B4900F031FF02D259485B4908605A482B
S1131AD00068724900F0D0FF02D85848564908609F
S1131AE054480068524900F01FFF03D25048674928
S1131AF0086011E04F480068684900F0BDFF03D852
S1131B004E486249086007E04A48006801F0BEFC9C
S1131B1000F088FF5D4908605C48006801F0B6FC8D
S1131B200100002001F081FEBDE8F183760AFF1F69
S1131B30780AFF1F800AFF1F7C0AFF1F7E0AFF1F0F
S1131B40840AFF1F820AFF1F640AFF1FE007FF1FAA
S1131B50B007FF1F7A0AFF1F79E9263108AC8C3FD2
S1131B6000001040000014C00000F03F9A999999B9
S1131B709999A93FF805FF1F0807FF1F00001440AB
S1131B809999B93FFC05FF1F0C07FF1F3333333FFF
S1131B901007FF1F9A99993E1407FF1FB006FF1FF5
S1131BA0AC0AFF1F720AFF1FA407FF1F000066C3D1
S1131BB0CC06FF1F9E0AFF1FAB0AFF1F00006643EF
S1131BC0A20AFF1F680AFF1FA30AFF1F740AFF1F50
S1131BD0A00AFF1F4C930000C007FF1FBC07FF1F94
S1131BE0AC07FF1FEC06FF1FF006FF1FF406FF1FE4
S1131BF0F806FF1FFC06FF1F0007FF1F0407FF1F57
S1131C001807FF1F1C07FF1FCDCCCC3FB407FF1FD5
S1131C10D406FF1FD807FF1F00007A44E006FF1F09
S1131C20DC07FF1FE406FF1FC407FF1FC807FF1FD1
S1131C3000900F45D006FF1FC806FF1F00603F45F8
S1131C40C006FF1FC406FF1FBC06FF1FB806FF1F08
S1131C50B406FF1F0100AF43DC06FF1FD806FF1FB9
S1131C6000E075400000AFC300E075C03007FF1FFF
S1131C702807FF1F2C07FF1F00EAA4406666E63F03
S1131C803333D33FF007FF1FA007FF1FF005FF1FEB
S1131C9000EAA4C00000A0420000A04101603F454A
S1131CA02DE9F843DFF8040B008805281DDADFF876
S1131CB0000B0088052818DADFF8F80A00880528E0
S1131CC013DADFF8F40A008805280EDADFF8EC0AE4
S1131CD00088052809DADFF8E80A0088052804DA0C
S1131CE0DFF8E00A008805280BDBDFF8DC0A00884F
S1131CF000F0A2FE0100DFF8D40A006800F014FE30
S1131D0003D20120DFF8C81A0860DFF8C80A008887
S1131D1001F0EEFFDFF8C02ADFF8C03A00F064FFFC
S1131D200022DFF8BC3A00F05FFF0022DFF8B43A8B
S1131D3001F016F901F0EAF80022DFF8AC3A01F0FC
S1131D400FF902000B00DFF8A40ADFF8A41A01F06F
S1131D507BF9DFF8A02ADFF8A03A01F001F901F0DD
S1131D6097FADFF8981A0860DFF8680A008801F02B
S1131D70BFFFDFF8642ADFF8643A00F035FF002281
S1131D80DFF85C3A00F030FF02000B000020DFF8BF
S1131D90701A00F0FBFF01F0B9F80022DFF8483AAE
S1131DA001F0DEF802000B00DFF8400ADFF8541AF5
S1131DB001F04AF9DFF8502ADFF8503A01F0D0F880
S1131DC001F066FADFF8481A0860DFF8480ADFF81D
S1131DD0481A0860DFF8440ADFF8441A0860DFF89C
S1131DE0440A007800283FD1DFF83C0A0078012833
S1131DF018D1DFF8380A0088002813D0DFF82C0A3D
S1131E000088FA280EDADFF8280A0068002809D1C9
S1131E10DFF8200ADFF8201A08600120DFF81C1A16
S1131E20087021E0DFF8180A0078012818D1DFF8DB
S1131E30FC090088002813D0DFF8F0090088FA288C
S1131E400EDADFF8EC090068002809D10120DFF878
S1131E50EC190870DFF8EC09DFF8DC19086003E01E
S1131E600020DFF8D4190860DFF8B80900780128E9
S1131E7073D1DFF8D409007801286ED1DFF8B009F6
S1131E800068002869D1DFF8C409007801282FD13F
S1131E90DFF8BC090088401CDFF8B4190880012071
S1131EA0DFF898190870DFF8AC090078002804D02E
S1131EB0DFF89009DFF880190860DFF894090088DA
S1131EC01F2815DB0020DFF8881908800020DFF8C0
S1131ED0681908600020DFF8741908700020DFF822
S1131EE068190870DFF8702902213C2002F018FA02
S1131EF0DFF85809007802282FD1DFF85409008848
S1131F00401CDFF84C1908800120DFF830190870F4
S1131F10DFF840090078002804D0DFF81809DFF85A
S1131F2018190860DFF8280900881F2815DB00202D
S1131F30DFF81C1908800020DFF8FC180860002076
S1131F40DFF8081908700020DFF8FC180870DFF8C3
S1131F50082902213C2002F0E3F9DFF87808008820
S1131F60DFF8541809880A39884215DADFF84C0872
S1131F700088DFF8441809880A3988420CDADFF847
S1131F80DC080068002807D10120DFF8D4180860B5
S1131F900020DFF8C8180860DFF838080088DFF888
S1131FA01C1809880A39884215DADFF80C080088F9
S1131FB0DFF8081809880A3988420CDADFF8A00823
S1131FC00068002807D10120DFF89018086000207D
S1131FD0DFF88C180860DFF8D4070088652813DA66
S1131FE0DFF8CC07008865280EDADFF8E8070088F8
S1131FF0652809DADFF8BC0700886F2804DADFF8FF
S1132000C40700886F2807DB0020DFF85018086039
S11320100020DFF84C1808600A21032001F0D7FCE7
S113202000286DD1DFF884070088B42831DBDFF89D
S1132030800700881F282CDBDFF87C0700885028E5
S113204027DADFF820080068002822D1DFF85C07CF
S11320500088D0F11E004FF64C71401ADFF850177B
S11320600880DFF860070088282806DBDFF84407CB
S113207000882838DFF84C1708800120DFF8BC17E7
S113208008700120DFF8D81708600020DFF8CC17AB
S11320900860DFF81C070088B42831DBDFF80C0780
S11320A000881F282CDBDFF814070088502827DA63
S11320B0DFF8B0070068002822D1DFF8F4060088B2
S11320C0D0F11E004FF64C71401ADFF8E01608807C
S11320D0DFF8E0060088282806DBDFF8E806008839
S11320E02838DFF8D01608800120DFF85017087070
S11320F00120DFF8681708600020DFF86417086023
S1132100DFF8A8060088DFF8A8160988401A00F04E
S113211089FCDFF854170860DFF898060088DFF8B8
S1132120A4160988401A00F07DFCDFF84017086007
S1132130DFF878060088DFF87816098811FA80F04D
S1132140DFF89016098810FA81F000F06BFCDFF8D4
S113215020170860DFF85C060088DFF86816098835
S113216011FA80F000F05EFCDFF808170860DFF871
S11321708C060168DFF8F006006800F0E7FB040055
S1132180DFF88C060168DFF8E406006800F0DEFB87
S1132190210001F0C5F8DFF8E0160860DFF87806E2
S11321A00168DFF8CC06006800F0D0FB0400DFF81B
S11321B070060168DFF8BC06006800F0C7FB210068
S11321C001F0AEF8DFF8B4160860DFF830060168F5
S11321D0002000F0BBFBDFF89016096800F0B6FBA6
S11321E00400DFF82C0601685FF07E5000F0AEFBBF
S11321F0DFF87816096800F0A9FB210001F090F8D7
S1132200DFF87C160860DFF8A4050088DFF8A01565
S11322100988401A00F006FCDFF868160860DFF849
S11322208C050088DFF88815098811FA80F0DFF83A
S1132230A415098810FA81F000F0F4FBDFF84816C1
S11322400860DFF84816DFF83406006801F02BFD5B
S11322500100DFF82C06006800F020FCDFF83016DF
S11322600860DFF82816DFF81406006801F01BFD8B
S11322700100DFF80406006800F010FCDFF8141613
S11322800860DFF814060168DFF8100600F05EFB52
S1132290DFF80C160860DFF80C060168DFF8FC05AF
S11322A000F054FBDFF800160860DFF8B40500689E
S11322B0012812DBDFF8F404008850280DDADFF877
S11322C0140500883C2808DADFF8E804008864284C
S11322D003DA0120DFF8D4150860DFF88005006810
S11322E0012812DBDFF8C804008850280DDADFF873
S11322F0E40400883C2808DADFF8C804008864286D
S113230003DA0120DFF8A8150860DFF8A4050068E7
S1132310012828DBDFF84C050068002823D1DFF80A
S11323208C040088DFF888140988884207D2DFF813
S113233084040088DFF88C140988884204D3DFF809
S11323401C050068002803D10020DFF8641508602C
S1132350DFF86005DFF860150860DFF85805DFF87E
S11323605C1508607AE1DFF844050068012828DB81
S1132370DFF8F0040068002823D1DFF83404008873
S1132380DFF828140988884207D2DFF83804008867
S1132390DFF820140988884204D3DFF8C4040068F5
S11323A0002803D10020DFF804150860DFF81005C9
S11323B0DFF804150860DFF80805DFF80015086089
S11323C04CE1DFF800050068DFF8FC140860DFF872
S11323D0FC040068DFF8EC140860DFF8F40400681B
S11323E0DFF8E8140860DFF8EC040068DFF8E014B4
S11323F00860DFF8A0040068DFF8D8140860DFF88C
S1132400D4040068DFF8BC14096800F0CBFFFDF7C2
S1132410FFFFDFF89414096800F098FADFF8B814A5
S113242000F02AFB06D8DFF8B4040068DFF8B01423
S113243008600AE0DFF89C040068DFF88814096883
S113244000F0B0FFDFF898140860DFF89404006827
S1132450DFF888140860DFF850040168DFF88004AE
S1132460006800F073FADFF87C1400F005FB10D864
S1132470DFF83404006800F08FFB02000B0000203A
S1132480DFF8641400F0E0FD00F002FFDFF8501400
S11324900860DFF814040168DFF84404006800F001
S11324A055FADFF8481400F03FFA10D2DFF8F803C9
S11324B0006800F071FB02000B000020DFF830140C
S11324C000F0C2FD00F0E4FEDFF814140860DFF849
S11324D024040068401CDFF81C140860DFF8C803FB
S11324E00168DFF8FC03006800F030FADFF8081434
S11324F0096800F015FFDFF800140860DFF8F40342
S11325000068082811DBDFF8F00300685FF08241FF
S113251000F0C4FADFF8E41308600020DFF8D813F1
S113252008600020DFF8CC130860CE48006801285A
S113253040D1DFF86C030168DFF89803006800F00D
S113254005FA00F029FB0022DFF8B43300F008FD9F
S113255080468946DFF85003006800F01DFB060042
S11325600F00DFF87C03006800F016FB5FF06632B2
S1132570DFF8903300F038FB04000D00DFF85C0353
S1132580006800F009FB5FF03332DFF87C3300F0C1
S11325902BFB22002B0000F0E3FC32003B0000F098
S11325A023FB42464B4600F0DBFC00F071FEC249BF
S11325B0086037E0BA480168C648006800F0C6F908
S11325C000F0EAFA0022CE4B00F0CAFC80468946AD
S11325D0B548006800F0E0FA06000F00C048006843
S11325E000F0DAFA5FF06632C64B00F0FDFA040040
S11325F00D00BA48006800F0CFFA5FF03332C24BE6
S113260000F0F2FA22002B0000F0AAFC32003B009A
S113261000F0EAFA42464B4600F0A2FC00F038FE15
S1132620A5490860A44801688348006800F078FE62
S1132630A14908609A4801685FF0804000F086F97B
S11326409349096800F082F900F0A6FA0022AC4B25
S113265000F086FC00F01CFE98490860AB48006856
S113266001286BD15B480088792867DB55480088CE
S1132670472863DB4F48008847285FDBA44800688D
S113268000285BD1A348006800F086FA0022A24B20
S113269000F066FC00F0FCFDFDF7BAFE9F4900F077
S11326A043F94BD242480088404909882839884276
S11326B01EDA41480088414909883239884217DACC
S11326C0404800883B490988401A00F0ABF9FDF7FF
S11326D09FFE934900F028F90AD2344800887928EB
S11326E006DB33480088472802DB0120884908605C
S11326F02E4800882E490988283988421EDA2F4836
S113270000882D4909883239884217DA2D48008813
S113271028490988401A00F085F9FDF779FE8049B7
S113272000F002F90AD222480088792806DB1F4803
S11327300088472802DB0120754908605F4800686B
S11327405C4900F0F1F802D25A485C4908605B48E1
S11327500068744900F090F902D859485749086054
S113276055480068534900F0DFF803D251486949DD
S1132770086011E0504800686A4900F07DF903D808
S11327804F486449086007E04B48006800F07EFE4B
S113279000F048F95F4908605E48006800F076FE82
S11327A00100002001F041F8BDE8F183760AFF1F23
S11327B0780AFF1F800AFF1F7C0AFF1F7E0AFF1F83
S11327C0840AFF1F820AFF1F640AFF1FE007FF1F1E
S11327D0B007FF1F7A0AFF1F79E9263108AC8C3F46
S11327E000001040000014C00000F03F9A9999992D
S11327F09999A93F7B14AE47E17AD43F0807FF1F9C
S1132800000014409999B93F8FC2F5285C8FE23FCC
S11328100C07FF1F3333333F1007FF1F9A99993E6C
S11328201407FF1FB006FF1FAC0AFF1F720AFF1F29
S1132830A407FF1F000066C3CC06FF1F9E0AFF1FEC
S1132840AB0AFF1F00006643A20AFF1FA30AFF1F73
S1132850740AFF1FA00AFF1F4C930000C007FF1F4C
S1132860BC07FF1FAC07FF1FEC06FF1FF006FF1F8E
S1132870F406FF1FF806FF1FFC06FF1F0007FF1FDB
S11328800407FF1F1807FF1F1C07FF1FCDCCCC3FF9
S1132890B407FF1FD406FF1FD807FF1F00007A44A8
S11328A0E006FF1FDC07FF1FE406FF1FC407FF1F2E
S11328B0C807FF1F00900F45D006FF1FC806FF1F63
S11328C000603F45C006FF1FC406FF1FBC06FF1F74
S11328D0B806FF1FB406FF1F0100C843DC06FF1F34
S11328E0D806FF1F0100AF4300E075400000AFC3EE
S11328F000E075C03007FF1F2807FF1F2C07FF1FCC
S113290000EAA4406666E63F3333D33FF007FF1F77
S1132910A007FF1FF005FF1F00EAA4C00000A042AB
S11329200000A04101603F454FF0807C1CEB400F4C
S113293094BF1CEB410F05E040EA010C5FEA4C0C2C
S113294001D28842704718BF81427047FF2212EAC1
S1132950D05C1DBF12EAD153944593422BE09C44B2
S1132960D30780EA01021A4043EA002043EA012126
S1132970A1FB0030410038BF40007CF17F010BDB3C
S1132980FE294ADA5B0842EAC15153EA006373F153
S1132990004C51EB10207047D1F1080CDCF1200100
S11329A02FDB5B0810FA01F10B4373F1004120FAAD
S11329B00CF05041704794451CBF02EAD153934236
S11329C080EA010202F000421DD0400019D0490003
S11329D017D05BB9634514D00902B1FA81F3994069
S11329E0BCEB030CC00140F00040C1E70002B0FAA8
S11329F080FC10FA0CF0B3EB0C0CC90141F000415F
S1132A00B6E71000704740000AD0490008D010F122
S1132A10807F94BF11F1807F02E042F0FF40704755
S1132A20D0437047002840F10980F446404200F04A
S1132A3005F850F000406047002800BF0AD0B0FA03
S1132A4080F18840D1F19D01C905020672F100426E
S1132A5041EB1020704750F8041B61B150F8042B6F
S1132A60D30744BFA9F101039A18002342F8043B99
S1132A70091FFAD1EFE770474FF0807C1CEB400F41
S1132A8094BF1CEB410F05E040EA010C5FEA4C0CDB
S1132A9001D28142704718BF8842704710B5FF23A6
S1132AA013EAD0541DBF13EAD1529C429A4239E032
S1132AB0A41ADA0780EA0103134042EA012142EA38
S1132AC00020421A3CBF641E01EB4202090AB2FB19
S1132AD0F1FE01FB1E221202B2FBF1F001FB1022F7
S1132AE06EF30F201202B2FBF1FE4EEA00207F3497
S1132AF006DDFE2C24DA53EA500050EBC45010BD1E
S1132B00D4F1020401FB1E2240F08071192C1DDC5B
S1132B1021FA04F0C4F12004A140114371F10042F0
S1132B20584110BD9C421ABF03EAD1529A420FE0A9
S1132B3080EA010E0EF00043400004D0490016D193
S1132B4043F0FF4010BD490008BFD343180010BD37
S1132B509C4205D1D21AF7D001F00041484010BD83
S1132B604A0212BF0846484000F0004010BD4AB96E
S1132B700902B1FA81F2914044B1A418C00140F0B5
S1132B8000409EE7C90141F0004152420002B0FA00
S1132B9080F4A040141B94E75FF0FF0C1CEAD051B2
S1132BA014BF614506E0C110400721F0E04101F186
S1132BB06051704779B900F0004100020AD0B0FAC0
S1132BC080FC00FA0CF001F16051A1EB0C5101EB17
S1132BD0D0214005704741020CBF40F4E0016FF082
S1132BE00001002070473000B0B581EA030C0CF0FE
S1132BF0004C40F2FF7515EA11541DBF15EA135736
S1132C00AC42AF4239E0E41923EA455343F480135C
S1132C10C90241F0004141EA505EC7021100A7FB1E
S1132C20020200284FF00000EEFB01204FF00001EB
S1132C30E3FB072118BF42F001024018002149417B
S1132C40E3FB0E01A4F580640F0302D2520040415D
S1132C50494154F101046CDD470872F1004250F11E
S1132C60000051EB0451A1F580115CBF41EA0C0155
S1132C70B0BD4CEA05510020B0BD05EA1357AC4283
S1132C8014BFAF4241E050EA410E1CBF52EA430E6A
S1132C9002E061460020B0BD24423C441BD15FEAFF
S1132CA0070EF6D0090302BF01460020AEF1140E50
S1132CB0B1FA81F7AEEB070401FA07FE0C37C7F14E
S1132CC0200100FA07F7C8404EEA000E23EA4553F4
S1132CD043F48013A2E733F00043B3FA83F704BF4D
S1132CE0B2FA82FE77440B3FE41BB7F1200E2FBFEC
S1132CF002FA0EF3BB40C7F1200E22FA0EFE38BFD3
S1132D0043EA0E03BA40641C82E750EA410E14BF42
S1132D1052EA430E6FF000014FF4001717EB430F14
S1132D208ABF194617EB410FB5E74CEA055100205D
S1132D30B0BDD4F10104B4F120070FDAC4F12007C7
S1132D40520828BF42F0010210FA07F501FA07F70A
S1132D50E1BF2A43E0403843E1400FE0352C98DCE2
S1132D60C7F1200452EA400220FA07F218BF42F0E9
S1132D70010231FA07F0A1400A43002172F1004236
S1132D8050F1000051EB0C01B0BD000070B44FF0E5
S1132D90004591EA030F44BF6B4000F0EBB800BF5D
S1132DA0841A71EB030604D26E40001BB141121960
S1132DB073414FF4001C1CEB410F34BF7CEB430602
S1132DC084E00C0DA4EB1356362E7DDC012E43DC7F
S1132DD045EAC32343EA525312BFD20292025B086C
S1132DE0240545EAC12141EA5051D2EBC020994162
S1132DF025D407D1B0FA80F610FA06F164D0002089
S1132E00203608E0B1FA81F6B140C6F1200220FA7A
S1132E1002F21143B0404FEAF474B4EB465434F078
S1132E2001064FEA74040AD8D6F50016760D04F0AC
S1132E300044F04061FA06F25040F1404840C00AB4
S1132E4040EA415021F0004128BF5FEA500550F1AB
S1132E50000044EBD12137E045EAC323DB0A45EA0D
S1132E60C121C90AB6F120050EDD42EA0242120C64
S1132E70C5F1200603FA06F6EB4042EA06056D4268
S1132E80984161F100010DE062FA06F5F240554007
S1132E9063FA06FC82EA0C02F3405A406D42904108
S1132EA061EB030111F4801F05D1641E620502D099
S1132EB06D004041494121F48011430875F10043FC
S1132EC050F1000041EB045170BC70471CEB410F02
S1132ED015D223F0004352EA43060BD04FEA4C0CC0
S1132EE0BCEB410F04D80C0D661E342EB7DDEBE7A6
S1132EF0801A994150EA410608BF0021E4E708BF5F
S1132F001CEB430F28BF6FF00001DDE783B5C1F36D
S1132F100A5240F2FF7382B09A4208D0002A04BFDA
S1132F20090350EA11300DD10C4905B000BD090365
S1132F3050EA11300DD1039800280AD50020002151
S1132F4005B000BD002000900022044B02A801F04F
S1132F50E9FEDDE9020105B000BD00BF0000F03F5D
S1132F6070B44FF0004591EA030C44BF6B40FFF787
S1132F7017BF00BF841A71EB030603D2001BB141D3
S1132F80121973414FF4001C1CEB410F34BF7CEB4E
S1132F90430443E00C0DA4EB1356352E50DC45EAF4
S1132FA0C323DB0A45EAC121C912B6F120050DDDB0
S1132FB063FA05F6EB4086EA0305124218BF45F0B2
S1132FC00105C01851F100010CD213E062FA06F5B4
S1132FD0F2405540F3415A40B340F3405A40801800
S1132FE0594107D349085FEA30005FEA350528BF35
S1132FF045F0010501F58011420875F1004250F1D8
S1133000000041EB045170BC4FF4001C1CEB410F59
S113301038BF70470020090D090570471CEB410FAC
S113302010D252EA43060BD0BCEB410F05D80C0D6D
S1133030AB43661E342EB5DD02E0AB438018594124
S113304070BC704770BC7047F0B540F2FF7581EA00
S1133050030C0CF0004C15EA11541DBF15EA13576C
S1133060AC42AF42E5E0BC41C1F31301C3F3130327
S1133070801A994143F4801304D2641E40004941EC
S113308080185941C90241EA5051B1FBF3F603FBE0
S11330901611A2FB0675D7EBC020A94102D2761EF9
S11330A080185941C90241EA5051B1FBF3FE03FBB8
S11330B01E11A2FB0E75D7EBC020A94103D2AEF1BD
S11330C0010E80185941890241EA9051760546EA79
S11330D08E2EB1FBF3F603FB1611A2FB0675D7EB9C
S11330E08020A94102D2761E80185941C90241EAC2
S11330F050514EEA060EB1FBF3F603FB1611A2FB88
S11331000675D7EBC020A94102D2761E801859411A
S1133110C90241EA5051B1FBF3F703FB1711A2FBBB
S11331200735D3EBC020A94167F100070CBF00426B
S113313047F0010766F3D5274FEA1E31B80814F5A6
S1133140806412DDBD0775F1004250EB0E5051EB67
S1133150045111F5801F5CBF41EA0C01F0BD4CF035
S11331607F6141F0E0410020F0BDBD076D0840EAF9
S11331700E5041F48011D4F10104B4F120060ADAAE
S1133180C4F120060200E04001FA06F3E1401843CE
S1133190B24015430EE0342C13DCC6F1200445EA9A
S11331A040056D0820FA06F2154321FA06F0A14005
S11331B00D43002175F1004250F1000051EB0C0168
S11331C0F0BD00205FEA0C01F0BDCFB992185B415D
S11331D0B3FA83F704BFB2FA82F6BF190B3FB7F113
S11331E020062FBF02FA06F3BB40C7F1200622FADD
S11331F006F638BF3343BA401CB1E419641E33E702
S11332007F4231F00041B1FA81F404BFB0FA80F694
S1133210A4190B3CB4F120062FBF00FA06F1A1401B
S1133220C4F1200620FA06F638BF3143A0403C1B07
S11332301AE7AC421ABF05EA1357AF4212E050EA4C
S113324041061CBF52EA4306BFE750EA4107304635
S113325061461CBF41EA0551F0BD52EA430C08BF68
S1133260C143F0BD00204FF4001616EB410F98BF88
S113327016EB430F08BF16EB410F24BFC14305E013
S113328016EB430F0CBF61464CEA0551F0BD00003C
S11332904FEAF17CBCF1E04C2CBFBCF5001F11E0FF
S11332A05FEA4C0C34BFBCF17F5F2EE05FEA9C0CFC
S11332B04FEA0C1C4FEA3C0CC10071F100414CEB8D
S11332C050707047C90241EA5051C00218BF41F022
S11332D0010141F000414FEA6C50C0F1090021287E
S11332E010D240EACC7CCCF1200C11FA0CF070F135
S11332F00040CCF1200C21FA0CF00CF0004C40EB17
S11333000C0070474FEACC707047490011F5001F5C
S113331004D84FEACC10FF30C0057047C817704777
S113332090EA010F44BF81F0004100F043B800BFB0
S1133330421A3CBF801A89184FF0004CC0F3C752A0
S1133340FF2A24D0C1F3C75313B3D21AD2F11903FD
S113335027DD4CEA01214CFA03F321EA0303D140AF
S1133360C20D4CEA0020401834BF20EA0C004CEA9D
S11333705000D20553EA006373EB0C0C52EB10209F
S1133380420012F1807F38BF7047C00DC0057047FE
S1133390490212BF9A4200EB5120F8E7D2F1170319
S11333A0D9D5704790EA010F44BF81F00041FFF77F
S11333B0BFBF00BF431A4FF000423EBF5340C01A84
S11333C0C91800BFD3095FEAD05C13EB400F34BFC8
S11333D0B3EB410F40E07CEBD1530CD342EA012123
S11333E022D8D1EB402009D3400A28BF5FEA50011C
S11333F040EBCC507047401A15D04002B0FA80F22E
S1133400521C9040400A4FEA3C23B3EB026384BF52
S113341000EB730007E040F400001A16DB07C2F16A
S11334200102D04018437047182BFCDC31FA03F238
S113343002FA03F3591A38BF42F00102D2EB4020DA
S11334403CBF4000ACF1010C5FEACC5CC20572F1F8
S113345000414CEB5020704713EB400F0FD24B0050
S113346009D0ACEBD153022B03DB4902172BDDDD72
S113347070479143401A4300D5D10020704713EBA5
S1133480410FD0D36FF00000704700004100090ED7
S11334907F3915D4D1F11F0114D4400007D2C001E3
S11334A040F00040C84048BF6FF000407047C00182
S11334B040F00040C8404CBF4FF0004040427047CD
S11334C00020704700424FF0004058BFC04370478F
S11334D010B4DFF88C1309684FF47A7251438142B7
S11334E001D200207BE0802202FB00F2B1FBF2F368
S11334F04FF6FF72934271D20722DFF868432360CC
S1133500402303FB00F3B1FBF3F34FF6FF74A34234
S113351044D20622DFF84C4323604301B1FBF3F3AA
S11335204FF6FF74A34239D20522DFF838432360F3
S11335300301B1FBF3F34FF6FF74A3422ED204222E
S1133540DFF820432360C300B1FBF3F34FF6FF74AD
S1133550A34223D20322DFF80C4323608300B1FB90
S1133560F3F34FF6FF74A34218D20222DFF8F442B9
S113357023604300B1FBF3F34FF6FF74A3420DD273
S11335800122DFF8E0422360B1FBF0F34FF6FF7055
S1133590834203D20022DFF8CC020360DFF8C802C2
S11335A0006850F08070DFF8C0120860D2B212F0E8
S11335B0070050F00800DFF8B41208600020DFF8BC
S11335C0B01208600020DFF8AC120860DFF8940243
S11335D00068DFF8A4120860012000E0002010BC9D
S11335E0704781B0C92901D3002030E0DFF874228C
S11335F012680092009A521C5143C822B1FBF2F1A6
S1133600C0B20200002A032A03D9121F032A20D9B8
S11336102FE0DFF86822126852F40062DFF85C32AF
S11336201A604FF48062C0B2830003F1804313F543
S113363096235A602822C0B2DFF8443243F830207F
S1133640C0B2DFF83C2212EBC0004160012001B09F
S11336507047DFF82822126852F48052DFF81C32D7
S11336601A604FF48062C0B2DFF8183243F82020A9
S1133670E0E70020EBE781B0C92901D3002010E086
S1133680DFF8E02112680092009A521C5143C822CC
S1133690B1FBF2F1C0B2DFF8E82112EBC0004160E7
S11336A0012001B0704710B4DFF8B41109684FF479
S11336B07A725143814201D200207BE0802202FBD6
S11336C000F2B1FBF2F34FF6FF72934271D207227C
S11336D0DFF8B4412360402303FB00F3B1FBF3F3B1
S11336E04FF6FF74A34244D20622DFF89C412360C4
S11336F04301B1FBF3F34FF6FF74A34239D2052221
S1133700DFF8844123600301B1FBF3F34FF6FF7448
S1133710A3422ED20422DFF870412360C300B1FB20
S1133720F3F34FF6FF74A34223D20322DFF8584188
S113373023608300B1FBF3F34FF6FF74A34218D266
S11337400222DFF8444123604300B1FBF3F34FF658
S1133750FF74A3420DD20122DFF82C412360B1FB98
S1133760F0F34FF6FF70834203D20022DFF8180112
S11337700360DFF8F400006850F00070DFF8E81030
S11337800860D2B212F0070050F00800DFF8FC1015
S113379008600020DFF8F81008600020DFF8F4105B
S11337A00860DFF8E4000068DFF8EC10086001202E
S11337B000E0002010BC704781B049F641429142BC
S11337C001D300202FE0DFF8C02012680092009A95
S11337D0521C514349F64042B1FBF2F1C0B202001F
S11337E0002A012A1ED8DFF89420126852F40072CD
S11337F0DFF888301A604FF44072C0B2830003F1DE
S1133800804313F592231A622822C0B2DFF88C3069
S113381043F83020C0B2DFF8842012EBC0004160CE
S1133820012000E0002001B0704781B049F6414218
S1133830914201D3002011E0DFF84C20126800927D
S1133840009A521C514349F64042B1FBF2F1C0B216
S1133850DFF8482012EBC0004160012001B070473E
S1133860600AFF1F5408FF1F3C800440008003408F
S1133870048003404C8003400880034038800440A7
S11338800C80034000C004405808FF1F0090034010
S1133890049003404C900340089003400C90034074
S11338A02DE9F8430D0016001F00C0B24C4951F831
S11338B02080C0B24B4951F82090C0B2052803DBE8
S11338C06321494801F080FBEDB2202D03DB642124
S11338D0454801F079FBF6B2022E03DB652142482C
S11338E001F072FBFFB2022F03DB66213E4801F0B8
S11338F06BFB089CE4B20D2C03DB67213A4801F012
S113390063FB4FF48070EDB249F82500F6B2012E46
S113391013D1D8F814000121A9400843C8F81400B1
S1133920FFB2012F04D10120A840C8F8040036E0FA
S11339300120A840C8F8080031E0D8F8140001219B
S1133940A9408843C8F81400EDB259F82500E4B240
S1133950210411F470210843EDB249F82500FFB2A7
S1133960012F08D1EDB259F8250050F00300EDB253
S113397049F8250013E0FFB2002F08D1EDB259F841
S1133980250050F00200EDB249F8250007E0EDB241
S113399059F8250030F00200EDB249F82500012065
S11339A0BDE8F283D2B2002A08D1012212FA01F151
S11339B0C0B20B4A52F82000816007E0012212FADB
S11339C001F1C0B2064A52F8200041607047C0B20B
S11339D0034A52F820000069C84010F00100704703
S11339E07006FF1F8406FF1F7C8D00002DE9F14D3A
S11339F083B00C4603980194C0F3C7501546FF28C2
S1133A0008D10398002740020CBF4FF001084FF083
S1133A10020813E0012807DA03A801F0E9FA0128F3
S1133A2002DB0027B84609E0039921F0FF4141F089
S1133A307C510391A0F17E074FF0FF38002101A8CB
S1133A4001F0E9FA06460DB10020288026B9204687
S1133A50002101F009FB12D0B8F1000F12D53FB2DA
S1133A60012F14D103984FF07C5101F0FDFA06D0D8
S1133A70012E0CD14FF03F4101F0F6FA2ED14FF058
S1133A807E500DE1B8F1020F03D1039808E1012E35
S1133A9053DB022E08BF204600F00281B8F1010F6B
S1133AA01AD10398002802D4002C43D52FE0002C0F
S1133AB009D4002E3ED14FF0FF3101A801F0ABFA3A
S1133AC0002837D534E016BB4FF0FF3101A801F0D0
S1133AD0A2FA00281BD517E0012E08D13FB2002C12
S1133AE002D4012F26DA12E0012F10DA22E0002C92
S1133AF00FD466B94FF0FF3101A801F08CFA002809
S1133B0044BF0398002802D54FF00040C8E00020CD
S1133B10C6E001F0B7FA222101605EB94FF0FF312F
S1133B2001A801F078FA002844BF0398002801D5C1
S1133B304F48B5E04FF0FF40B2E00398002848BF7B
S1133B40002E06D501F09EFA212101606FF000409D
S1133B50A6E00021FEF790FF38BF002608D380F0CE
S1133B60004003904FF0FF3101A801F054FA0646DB
S1133B7003984049FEF7D8FE06D201464FF0804034
S1133B80FEF7E4FE03907F1E03993B48FFF7C8FB52
S1133B90039983464FF07E50FFF7C2FB0146584617
S1133BA0FEF77CFF80464146FEF7D0FE8246CDF804
S1133BB00CB001F06DFA01465046FEF7C7FE0399BA
S1133BC0FFF7F0FB4146FEF7C1FE01460398FFF7FD
S1133BD0A7FB804638B2FEF725FF07464046274933
S1133BE0FEF75CFF3946FFF79BFB01902146FEF789
S1133BF0ADFE4FF04741FEF797FE009042D32049B7
S1133C00FEF73AFF40D90021FEF78EFE014634BF8D
S1133C104FF03F404FF07C50FFF782FBFFF736FC3C
S1133C20824638462146FEF791FE07465046FEF787
S1133C30F9FE01463846FFF7B5FB1049FEF786FE4C
S1133C40074640462146FEF781FE3946FFF768FBEA
S1133C5000901DB1A5F800A04FF0000A52464FF0A5
S1133C607E5100A801F02CFA60B101280CD012E0BA
S1133C70000080FFF304353F000080BF1872313F1D
S1133C8001000047002001E04FF0FF40009001F0E8
S1133C90F9F922210160002E009818BF80F000403D
S1133CA004B0BDE8F08D0022A0E600004FF4001C33
S1133CB01CEB410F94BF1CEB430F09E041EA030CDA
S1133CC050EA4C0C52EA0C0C03D2994208BF9042C1
S1133CD0704714BF8B42824270470000010040F1DC
S1133CE00980F446404200F005F851F00041604775
S1133CF0010000BF09D0B0FA80F18840C91CC1F5A9
S1133D008461090501EBD02140057047F446400D5C
S1133D1040EAC120490006D200F00EF8004248BF34
S1133D206FF00040604700F007F84FF00041884210
S1133D308CBF08464042604740F00040490DA1F561
S1133D408061491C05D4D1F11F0154BFC840C0177C
S1133D5070474FF0000070474FF4001C1CEB410FFC
S1133D6094BF1CEB430F09E041EA030C50EA4C0CEE
S1133D7052EA0C0C03D28B4208BF8242704714BF34
S1133D8099429042704700000821DFF8702B1268B6
S1133D9052F40002DFF8643B1A6000BFDFF85C2BCA
S1133DA0126832F48012DFF8543B1A6000BF19E045
S1133DB0DFF8482B126832F40012DFF8403B1A6037
S1133DC0DFF8382B126852F48012DFF8303B1A60A7
S1133DD000BFDFF8282B126832F48012DFF81C3B96
S1133DE01A6040000A00511ED2B2002A0AD002060C
S1133DF0DED5DFF8082B126852F40012DFF8FC3A23
S1133E001A60DDE7704700000821DFF8F02A126825
S1133E1052F40002DFF8E43A1A6000BFDFF8DC2A4B
S1133E20126832F48012DFF8D43A1A6000BF19E045
S1133E30DFF8C82A126852F40012DFF8C03A1A6098
S1133E40DFF8B82A126852F48012DFF8B03A1A6028
S1133E5000BFDFF8A82A126832F48012DFF89C3A17
S1133E601A6040000A00511ED2B2002A0AD002068B
S1133E70DED5DFF8882A126832F40012DFF87C3AC3
S1133E801A60DDE7704700000821DFF8702A126825
S1133E9032F40002DFF8643A1A60DFF8602A12682C
S1133EA032F48012DFF8543A1A6019E0DFF84C2A31
S1133EB0126832F40012DFF8443A1A60DFF83C2A40
S1133EC0126852F48012DFF8343A1A6000BFDFF847
S1133ED02C2A126832F48012DFF8203A1A6040006B
S1133EE00A00511ED2B2002A0AD00206DED5DFF83B
S1133EF00C2A126852F40012DFF8003A1A60DDE767
S1133F00704710B50400B1F15000C0B2FFF7BCFF18
S1133F10E4B2200950F01000C0B2FFF7B5FF14F06E
S1133F200F0050F00100C0B2FFF7AEFF10BD70B536
S1133F300400002508E02000C0B2FFF725FF761C2E
S1133F40F6B2802EF7DB6D1CEDB2082D0CDAB5F15C
S1133F505000C0B2FFF798FF0120FFF795FF102033
S1133F60FFF792FF0026EBE770BD07E043F226411E
S1133F700A00511E92B2002AFAD1401E80B20028D3
S1133F80F4D1704780B54FF48070DFF88819086069
S1133F904FF48070DFF8801908604FF48070DFF808
S1133FA07C1908604FF48070DFF8741908605FF4BE
S1133FB07000DFF870190860DFF84009006850F4F9
S1133FC08010DFF838190860DFF83009006830F431
S1133FD08000DFF8281908603220FFF7C6FFDFF8F9
S1133FE01C09006850F48000DFF810190860AE2046
S1133FF0FFF74AFF0020FFF747FF1020FFF744FFB9
S11340004020FFF741FF8120FFF73EFFCF20FFF75D
S11340103BFFA120FFF738FFC820FFF735FFA6209C
S1134020FFF732FFA820FFF72FFF3F20FFF72CFFF9
S1134030D320FFF729FF0020FFF726FFD520FFF745
S113404023FF8020FFF720FFD920FFF71DFFF12079
S1134050FFF71AFFDA20FFF717FF1220FFF714FF0C
S1134060DB20FFF711FF4020FFF70EFF2020FFF7B2
S11340700BFF0220FFF708FF8D20FFF705FF142038
S1134080FFF702FFA420FFF7FFFEA620FFF7FCFEC8
S1134090AF20FFF7F9FE0020FFF749FF00210020C1
S11340A0FFF72FFFFF20FFF742FF0020FFF73FFF3E
S11340B001BD10B50122C9B2082391FBF3F404FB3E
S11340C0131412FA04F4C9B2C908C0B2FFF719FFF5
S11340D02000C0B2FFF758FE10BD2DE9F8430400DC
S11340E00D00160000275FF000085FF0000915E0DE
S11340F05FFA88F8FFB20620DFF8901B00FB071078
S113410018F80000FFF740FE18F101085FFA88F87C
S1134110B8F1060FECDBA41D19F101095FFA89F966
S113412019F80600002813D05FFA89F919F8060077
S1134130B0F12007E4B27F2C01DB00246D1C2900C0
S1134140C9B22000C0B2FFF7DCFE5FF00008DDE773
S1134150BDE8F1832DE9F84304000D0016000027A3
S11341605FF000085FF0000915E05FFA88F8FFB21D
S11341700620DFF8181B00FB071018F80000FFF7F3
S113418043FE18F101085FFA88F8B8F1060FECDB7A
S1134190A41D19F101095FFA89F919F8060000282C
S11341A013D05FFA89F919F80600B0F12007E4B2D8
S11341B07F2C01DB00246D1C2900C9B22000C0B291
S11341C0FFF79FFE5FF00008DDE7BDE8F1832DE90E
S11341D0F84306000C0015005FF0000900275FF0AB
S11341E001080BE00020FFF7CFFD19F101095FFA88
S11341F089F9B9F10C0FF5DB0C36BF1CFFB2785D01
S1134200002800F08B805FF000095FF0010801E0F6
S113421019F102095FFA89F9DFF8740A19F8000044
S113422080281ADB5FFA89F9DFF8640A19F80000BC
S1134230FFB2795D8842EBD15FFA89F9DFF8500A61
S113424019EB00004078FFB2791949788842DFD130
S11342505FFA89F90C2019FB00F8F6B2772E01DB1E
S11342600026641C2100C9B23000C0B2FFF749FE29
S11342701FFA88F8B8F1010F33D02100C9B2300019
S1134280C0B2FFF73EFE5FF000090BE01FFA88F8AA
S1134290DFF8000A18F80000FFF776FD18F10108AE
S11342A019F101095FFA89F9B9F10C0FEEDB611C10
S11342B0C9B23000C0B2FFF724FE5FF000095FFA14
S11342C089F9B9F10C0F97DA1FFA88F8DFF8C409F5
S11342D018F80000FFF758FD18F1010819F1010959
S11342E0EDE77F1C2100C9B23000C0B2FFF709FE20
S11342F05FF0000904E00020FFF746FD19F1010911
S11343005FFA89F9B9F10C0FF5DB611CC9B2300011
S1134310C0B2FFF7F6FD5FF0000968E7BDE8F1837E
S1134320F8B504000D001600002714E0FFB2B85DD4
S11343308DF80000FFB2B81940788DF80100002014
S11343408DF8020000AA2900C9B22000C0B2FFF70C
S11343503EFF0C34BF1CFFB2B85D002814D0FFB27E
S1134360B85D8028E2DAFFB2B85D8DF80000002065
S11343708DF8010000AA2900C9B22000C0B2FFF7DD
S1134380ACFEA41D7F1CE6E7F1BDF8B504000D00EA
S11343901600002714E0FFB2B85D8DF80000FFB2EC
S11343A0B81940788DF8010000208DF8020000AAA9
S11343B02900C9B22000C0B2FFF709FF0C34BF1CAA
S11343C0FFB2B85D002814D0FFB2B85D8028E2DAED
S11343D0FFB2B85D8DF8000000208DF8010000AA3E
S11343E02900C9B22000C0B2FFF7B4FEA41D7F1C8F
S11343F0E6E7F1BD7FB504000D001600DFF898086C
S11344000088ADF8000001A8DFF890180B2200F036
S113441063FF0A2096FBF0F100FB116001A9405CE8
S11344208DF8000000AA2900C9B22000C0B2FFF72D
S113443054FE7FBD7FB504000D00160000A8DFF810
S11344406018032200F048FF01A8DFF858180B2277
S113445000F042FF642096FBF0F100FB11600A219A
S113446090FBF1F00A2196FBF1F201FB126101AA23
S1134470805C8DF8000001A8085C8DF8010000AA9A
S11344802900C9B22000C0B2FFF727FE7FBD7FB567
S113449004000D00160000A8DFF80C180A6802607A
S11344A001A8DFF808180B2200F016FF4FF47A7009
S11344B096FBF0F100FB1160642190FBF1F06421A4
S11344C096FBF1F201FB12610A2291FBF2F10A223E
S11344D096FBF2F302FB136201ABC05C8DF80000A3
S11344E001A8085C8DF8010001A8105C8DF8020099
S11344F000AA2900C9B22000C0B2FFF7EEFD7FBDBB
S1134500F0B585B004000D00160000A8DFF8A01770
S1134510052200F0E1FE02A8DFF898170B2200F054
S1134520DBFE42F2107096FBF0F100FB11604FF4D9
S11345307A7190FBF1F04FF47A7196FBF1F201FB82
S11345401261642291FBF2F1642296FBF2F302FB06
S113455013620A2392FBF3F20A2396FBF3F703FB9D
S1134560176302AE805D8DF8000002A8085C8DF828
S1134570010002A8105C8DF8020002A8185C8DF8F6
S1134580030000AA2900C9B22000C0B2FFF7A5FDAC
S113459005B0F0BDF8B504000D0016003000FEF7BC
S11345A075FF0700B7F10A005A2824D23A002900FF
S11345B0C9B22000C0B2FFF73DFF37A22900C9B23B
S11345C014F10C00C0B2FFF788FD3800FEF72AFA98
S11345D001003000FEF7E6FEDFF8DC16FEF7B6F960
S11345E0FEF754FF02002900C9B214F11200C0B250
S11345F0FFF720FF4EE0B7F16400B0F5617F24D2ED
S11346003A002900C9B22000C0B2FFF740FF22A23D
S11346102900C9B214F11200C0B2FFF75EFD3800E0
S1134620FEF700FA01003000FEF7BCFEDFF88C163E
S1134630FEF78CF9FEF72AFF02002900C9B214F133
S11346401800C0B2FFF7D6FE24E00A2F22DA3A009F
S11346502900C9B22000C0B2FFF7CCFE0EA2290087
S1134660C9B2A01DC0B2FFF738FD3800FEF7DAF971
S113467001003000FEF796FEDFF84416FEF766F9F7
S1134680FEF704FF02002900C9B214F10C00C0B205
S1134690FFF7FDFEF1BD00002E00000080B5DFF83D
S11346A024060088002805D193A200210020FFF7EA
S11346B06CFE04E090A200210020FFF731FEDFF839
S11346C008060068DFF8F015FEF7E8F9020000219B
S11346D01420FFF75FFFDFF8EC050088012805D1FF
S11346E087A201210020FFF750FE04E084A20121EB
S11346F00020FFF715FEDFF8D4050068DFF8B815D1
S1134700FEF7CCF9020001211420FFF743FFDFF884
S1134710B4050088022805D17AA202210020FFF7FF
S113472034FE04E077A202210020FFF7F9FDDFF850
S1134730A0050068DFF88015FEF7B0F90200022139
S11347401420FFF727FFDFF87C050088032805D134
S11347506DA200214120FFF718FE04E06AA20021A7
S11347604120FFF7DDFDDFF86C05026800215520CC
S1134770FFF710FFDFF84C050088042805D163A279
S113478001214120FFF701FE04E060A20121412044
S1134790FFF7C6FDDFF84005026801215520FFF749
S11347A0F9FEDFF820050088052805D158A202216A
S11347B04120FFF7EAFD04E055A202214120FFF762
S11347C0AFFDDFF818050068DFF8EC14FEF766F9B2
S11347D0020002215520FFF7DDFEDFF8E80400881F
S11347E0062806D1DFF8F82403210020FFF7CDFDC9
S11347F005E0DFF8EC2403210020FFF791FDDFF84A
S1134800E4040068DFF8B814FEF748F90200032155
S11348103220FFF7BFFEDFF8AC040088072806D17A
S1134820DFF8C42404210020FFF7AFFD05E0DFF822
S1134830B82404210020FFF773FDDFF8B0040268F8
S113484004211E20FFF723FEDFF8780400880828DF
S113485006D1DFF89C2404213C20FFF796FD05E0F7
S1134860DFF88C2404213C20FFF75AFDDFF8840490
S1134870026804215020FFF70AFEDFF8480400888C
S1134880092806D1DFF8702405210020FFF77DFDFB
S113489005E0DFF8642405210020FFF741FDDFF87F
S11348A05C04026805212420FFF7F1FDDFF81404FD
S11348B000880A2806D1DFF8482406210020FFF7E3
S11348C064FD05E0DFF8382406210020FFF728FD09
S11348D0DFF8F0038088012806D1DFF828240621B8
S11348E04620FFF71DFD05E0DFF81C2406214620C5
S11348F0FFF716FD01BD0000503A000040F00F40E4
S1134900493A0000443A0000703A0000643A00005A
S1134910563A000050A0044054A0044058A004405B
S11349205CA0044054F00F4080B5002000F061FD0D
S113493000210420FEF79FFE00210520FEF79BFEC8
S113494000210620FEF797FE00210720FEF793FEC4
S11349500020DFF8B813088003210320FFF737F89D
S1134960002806D1DFF8A8030088401CDFF8A01354
S1134970088003210320FFF72AF8012840F09A80D9
S1134980DFF88C0300880B28C0F294800020DFF845
S113499080130880DFF82C03808801287DD1DFF89C
S11349A024030088002809D1DFF81C030168DFF81C
S11349B00C03FEF7B5FCDFF810130860DFF80403FE
S11349C00088012809D1DFF8040301685FF07E50F4
S11349D0FEF7A6FCDFF8F4120860DFF8E8020088AE
S11349E0022809D1DFF8E80201685FF07E50FEF783
S11349F097FCDFF8DC120860B2480088032807D16E
S1134A00B44801685FF07E50FEF78AFCB149086043
S1134A10AC480088042807D1AF4801685FF07E5095
S1134A20FEF77EFCAC490860A6480088052807D13B
S1134A30AA4801685FF07E50FEF772FCA74908603F
S1134A40A0480088062806D1A64801689C48FEF7BD
S1134A5067FCA44908609B480088072804D1A34840
S1134A600068401DA149086096480088082804D1C0
S1134A70A0480068401D9F490860924800880928A2
S1134A8018D19E48006899490968884212DA9B48FF
S1134A900068401D994908600CE08A480088002895
S1134AA005D088480088401E8649088002E000201E
S1134AB08449088002210320FEF789FF002804D1DD
S1134AC093484088401C9249488002210320FEF705
S1134AD07EFF012840F085808D4840880B28C0F275
S1134AE0808000208A4948807648808801286CD1DB
S1134AF074480088002806D1734801688548FEF789
S1134B000FFC714908606F480088012806D16F487E
S1134B1001688148FEF704FC6C4908606948008814
S1134B20022806D16A4801687B48FEF7F9FB684908
S1134B30086064480088032806D1664801687648FE
S1134B40FEF7EEFB634908605E480088042806D13E
S1134B50614801687048FEF7E3FB5F490860594803
S1134B600088052806D15D4801686B48FEF7D8FB2C
S1134B705A49086053480088062806D159480168F4
S1134B806648FEF7CDFB574908604E480088072861
S1134B9004D156480068401F5449086049480088B9
S1134BA0082804D153480068401F5249086045480A
S1134BB00088092815D151480068652811DB4F4841
S1134BC00068401F4D4908600BE03E480088401CC7
S1134BD03C4908803B4800880B2802DB0A203949FD
S1134BE0088001210320FEF7F2FE002804D1484882
S1134BF08088401C4649888001210320FEF7E7FE97
S1134C00012816D1424880880B2812DB0020404935
S1134C1088802C4800880A2801D100F075FC2948B6
S1134C208088002801D1012000E00020C0B225497D
S1134C30888000210320FEF7CAFE002804D13448EE
S1134C40C088401C3249C88000210320FEF7BFFE03
S1134C50012816D12E48C0880B2812DB00202C49CD
S1134C60C880184800880A2801D100F0A3FC154820
S1134C708088002801D1012000E00020C0B2114941
S1134C8088802749002000F0A9FB01BDC8860000E8
S1134C902C900000C48A0000E62B0000049300005E
S1134CA0F493000010930000F89300001C9300009C
S1134CB06C930000289300000000C84200002041CB
S1134CC000007A448008FF1FCC07FF1FD007FF1F96
S1134CD0D407FF1FD807FF1FDC07FF1FE407FF1FD0
S1134CE074930000E007FF1F7C930000E807FF1F98
S1134CF084930000EC07FF1F8C9300006007FF1FE4
S1134D0034930000949300009C930000640AFF1FF6
S1134D107808FF1F000020C1000080BF00007AC493
S1134D20B57800002DE9F04D804684B0D8E9000143
S1134D3014461D4600F0F2FD07462046294600F0C1
S1134D40EDFD0C9E390006D500284AD4022805D171
S1134D50C8E9004535E1022FF8D121E050B9D8E97E
S1134D6000010022514B00F0F3FD0FD0C8E90045CB
S1134D70002026E1012815D1D8E9000100224C4B7E
S1134D8000F0E6FD18BFC8E900454FD100F07AF9FC
S1134D90212101604FF0FF306FF00041C8E90001AC
S1134DA002200EE17FB9C8E900453146404600F0D3
S1134DB0DFFD040018BF012C40F0028100F062F90D
S1134DC022210160FCE0D8E900010022374B00F009
S1134DD0BFFD0FD120462946FDF706FFC8E90001B3
S1134DE024E0D8E90001CDE902010022314BFEF7AD
S1134DF05DFF0AD2002320462946FDF7F5FEC8E9E7
S1134E00000104B00020BDE8F08D01222A4BFEF71A
S1134E10A3FF0DD80022254B20462946FDF7E4FECA
S1134E20C8E9000100F02EF9222101600120C8E048
S1134E30224A234BFDF7D8FE00220023FEF736FF5B
S1134E4034BF204B464BFEF78BF8FEF75FFF074657
S1134E50FEF744FF82468B464FF078421A4BFDF72B
S1134E60C3FE02460B46DDE90201FDF78FFFCDE9E3
S1134E700001164A164B50465946FDF7B5FE024648
S1134E800B46DDE90001FDF781FF6FF00102114BD4
S1134E90FEF762FF82468B4620D800220E4BFEF7B7
S1134EA005FF1BD2204629467CE000BF0000F07FAE
S1134EB00000F0FF00C89CC000C89C40FE822B6527
S1134EC04715F73F0000E0BF422EE63FF2E4D5BCB1
S1134ED0E7E84B3EFFFF8FBC0000903C52465B4628
S1134EE0FDF782FECDE90001DDE900231D481E49DE
S1134EF0FDF77AFE1D4A1E4BFEF732F8DDE900236A
S1134F00FDF772FECDE90201DDE9002319481A49D3
S1134F10FDF76AFE194A1A4BFEF722F8DDE9002371
S1134F20FDF762FE0E4B0022FEF71AF852465B466E
S1134F30FDF75AFEDDE9022382468B46FEF710F8A0
S1134F400022104BFEF70CF8CDE900015246DDE9D2
S1134F5002015B46FDF71AFF00220A4B14E000BF72
S1134F600000E03F112E5781A03F503F5843128C60
S1134F708F71BC3F4BE8A541B752013F0BBDF3DA3B
S1134F80E8708C3F0000F03FFDF7EAFF02460B4655
S1134F90DDE90001FEF758F802460B462046294693
S1134FA0FDF722FEC8E90001F119404600F0E0FCDB
S1134FB0040018BF012C03D100F064F82221016021
S1134FC0204604B0BDE8F08D80B50A000100064813
S1134FD000F0ACFF054800E0401E0028FCD1034867
S1134FE00028F7D0401EFBE7008F0000A0860100D8
S1134FF0026802F0004301215202520A02D106E083
S11350005200491E5FEA022CFAD55202520A1A4390
S11350100260084670470268C2F3C752FF2A06D1ED
S11350200068400201D101207047022070470368E4
S11350305B0016D0C2F19602521A012A11DB182A1B
S113504004DB016801F00041016007E001219140A7
S11350500268491E11404A40026011B14FF0FF300E
S1135060704700207047000040EA010C5FEA4C0CD6
S113507007D0884205D14FEA400C1CF1807F98BFCD
S113508080427047014800F063BF0000B00AFF1F70
S113509010B5044607482146FDF758FC0649FEF7BB
S11350A03FF92146FDF752FCBDE810400349FEF7E5
S11350B037B900001502993E11AECC3EC0AA2A3F72
S11350C02DE9F04D04460D462768C7F3C75116462F
S11350D0FF2909D011B14FF0FF3009E078020CBF6D
S11350E000206FF0010003E0780214BF02200120C9
S11350F0C5F3C752FF2A09D012B14FF0FF3109E0BE
S113510069020CBF00216FF0010103E0690214BFC2
S113511002210121020048BF00293ED4022800F0E8
S1135120C680022908BF256018D039B938464FF027
S1135130FF41FFF799FF0AD0256038E0012910D11B
S113514038465C49FFF790FF18BF256040D1FFF750
S113515099FF212101606FF0004020600220BDE82A
S1135160F08D70B925603146204600F0F3FE04004E
S113517018BF012C40F09A80FFF784FF22210160C0
S113518094E038464FF0FF41FFF76EFF0AD108461E
S11351902946FDF7DBFB20601AE038464649FDF757
S11351A0C3FB07D200202946FDF7D0FB2060002076
S11351B0BDE8F08D4149FDF75FFC0CD84FF0FF408E
S11351C02946FDF7C3FB2060FFF75CFF2221016045
S11351D00120BDE8F08D39463948FDF7B7FB0021C1
S11351E0FDF7A2FB34BF4FF03F414FF07C51FEF777
S11351F097F8FEF74BF98046FDF714FC82463148D8
S11352005146FDF7A3FB01463846FEF7CBF80746A7
S11352102D485146FDF79AFB01463846FEF7C2F881
S11352204FF03341FDF728FC824603D82749FDF7A8
S11352307BFB2DD35146FDF789FB83462448594611
S1135240FDF784FB074623485946FDF77FFB4FF0E3
S11352507C51FEF765F85146FDF778FB82463846E7
S11352605146FEF75DF84FF07E51FEF759F883463C
S113527038465146FEF796F84FF07E51FEF750F847
S113528001465846FDF70AFC2946FDF75FFB054633
S1135290256006EB0801204600F05CFE040018BF00
S11352A0012C03D1FFF7EEFE222101602046BDE868
S11352B0F08D00BF000080FF000065C3010065435E
S11352C03BAAB83F0060313FBFBF903901000033B3
S11352D09EBFCC3D1354083C62B38B0708D0521ECA
S11352E011F8013B00F8013B00F024808B07F6D154
S11352F0830740F0208000BF103A07D330B4B1E8F0
S11353003810103AA0E83810F9D230BC530724BF43
S1135310B1E80810A0E8081044BF51F8043B40F875
S1135320043BD20724BF31F8022B20F8022B44BFE0
S11353300B7803707047083A07D3B1E80810083AAD
S113534040F8043B40F804CBF7D25307E4E70000ED
S113535070B504000E001500E4B2042C03DB4821F0
S11353603648FFF731FE364800684FF47A7190FBF7
S1135370F1F04643002E03D14E213048FFF724FEBE
S11353803048006850F400002E49086000202E497F
S113539008602800002808D0E4B22C4840F82450C3
S11353A0E4B214F1440000F038FE701EE4B22101AE
S11353B0274A88500220E4B2254911EB0411886081
S11353C0E4B2234810EB0410806850F00100E4B20A
S11353D01F4911EB04118860012070BD80B5C0B273
S11353E01A4A42F82010C0B2443000F016FE0120E0
S11353F002BD10B50400E4B214F1440000F056FEFE
S11354000020E4B2114941F82400012010BD10B578
S113541010480078B0F15404E4B20C4850F8240069
S11354208047E4B20A4810EB0410C06850F0010051
S1135430E4B2074911EB0411C86010BDB88D000037
S1135440600AFF1F3C800440007003405C08FF1F9B
S11354500071034004ED00E0DFF800F06104FF1F79
S1135460DFF800F0DD04FF1FDFF800F03904FF1F50
S113547080B55FF4C8200068FDF7DEFADFF8401459
S11354800860DFF840040068FDF7D6FADFF8381446
S11354900860DFF838040068FDF7CEFADFF830144E
S11354A00860DFF830040068FDF7C6FADFF8281456
S11354B00860DFF828040068FDF7BEFADFF820145E
S11354C00860DFF820040068FDF7B6FADFF8181466
S11354D00860DFF818040068FDF7AEFADFF810146E
S11354E00860DFF810040068DFF80C140860DFF8C7
S11354F00C040068DFF808140860DFF8080400688A
S1135500DFF80414086001BD80B5C820FFF7A4FFCC
S1135510EB48006800F010FE02000021C820FFF7ED
S11355209FFFE948006800F007FE02000421C8203C
S1135530FFF796FFE648006800F0FEFD0200082130
S1135540C820FFF78DFFE448006800F0F5FD020075
S11355500C21C820FFF784FFE148006800F0ECFD4F
S113556002001021C820FFF77BFFDF48006800F02D
S1135570E3FD02001421C820FFF772FFDC48006835
S113558000F0DAFD02001821C820FFF769FFDA48AD
S113559002681C21C820FFF763FFD9480268202154
S11355A0C820FFF75DFFD84802682421C820FFF710
S11355B057FF01BD80B5C820FFF74EFFD3480268EE
S11355C00021C820FFF74CFFD04842680421C820BE
S11355D0FFF746FFCD4882680821C820FFF740FF47
S11355E0CA48C2680C21C820FFF73AFFC7480269BD
S11355F01021C820FFF734FFC44842691421C82091
S1135600FFF72EFFC14882691821C820FFF728FF41
S1135610BE48C2691C21C820FFF722FFBB48026AAA
S11356202021C820FFF71CFFB848426A2421C82063
S1135630FFF716FF01BD80B5002000900123002272
S113564001210120FEF72CF9002000900123002203
S113565002210120FEF724F901BD000010B582B03B
S1135660002000900023012218210420FEF718F9DD
S1135670002000900023012219210420FEF710F9D4
S11356800321002000F008FE012218210420FEF767
S113569089F900BF012219210420FEF783F90022B1
S11356A018210420FEF77EF900BF002219210420EE
S11356B0FEF778F901240CE000BF0122192104202F
S11356C0FEF770F900BF002219210420FEF76AF9E1
S11356D0641CE4B2812CEFDB13BD80B50020009084
S11356E0002301221A210420FEF7DAF8002000909A
S11356F0012300220F210320FEF7D2F8002000909E
S1135700012300220E210320FEF7CAF80020009096
S1135710012300220D210320FEF7C2F8002000908F
S1135720012300220C210320FEF7BAF80020009088
S1135730012300220B210320FEF7B2F80020009081
S1135740012300220A210320FEF7AAF8002000907A
S11357500123002209210320FEF7A2F80020009073
S11357600123002208210320FEF79AF8002000906C
S11357700123002203210320FEF792F80020009069
S11357800123002202210320FEF78AF80020009062
S11357900123002201210320FEF782F8002000905B
S11357A00123002200210320FEF77AF8FFF760FEB0
S11357B0FFF75AFE00220021002000F0CFFC002257
S11357C00021012000F0CAFC0421012000F064FD46
S11357D00521012000F060FD0621012000F05CFDA0
S11357E00721012000F058FD0A21012000F054FD9A
S11357F00B21012000F050FD0C21012000F04CFD94
S11358000D21012000F048FD0E21012000F044FD8F
S11358103F4A4FF47A710020FFF79AFDFFF71EFF0D
S11358205FF4E131052000F051FE42F21070FDF703
S11358304FFE3220FDF737FF00210420FDF7D1FE93
S113584000210420FDF717FF00210520FDF7C9FE04
S113585000210520FDF70FFF00210620FDF7C1FE02
S113586000210620FDF707FF00210720FDF7B9FE00
S113587000210720FDF7FFFE00210020FDF79CFF1B
S113588040F675210020FDF7D0FF012340F6B83221
S11358904521002000F0FCFE012340F6B8321B2114
S11358A00A2000F0F5FEFEF76DFB13480068194965
S11358B008601348006818490860FFF7BCFE01BD82
S11358C0CC07FF1F04400600D007FF1F0840060056
S11358D0D407FF1F0C400600D807FF1F1040060026
S11358E0DC07FF1F14400600E007FF1F18400600F6
S11358F0E407FF1F1C400600E807FF1F20400600C6
S1135900EC07FF1F244006006007FF1F1806FF1F57
S1135910B5780000E805FF1FE405FF1FC1F30A5234
S113592040F2FF739A420AD012B14FF0FF30704731
S1135930090350EA113009D06FF0010070470903E0
S113594050EA113001D00220704701207047000056
S113595090420CD141EA030C50EA4C0C07D0994216
S113596005D14FF4001C1CEB410F38BF894270472E
S113597070B504460D466068C0F30A5040F2FF71EA
S1135980884207D16068000304BF2068002817D04C
S1135990022070BD20B9204600F0ACFF012867DA70
S11359A0012D0FDB40F2FF71091A8D420AD36068A2
S11359B0002847BF00202F4900202F49C4E90001D7
S11359C0012070BD4142A942616806DA6FF31E519D
S11359D0401941EA0050606041E0401E63680122C2
S11359E0451962F31F5305F1350001F0004163606E
S11359F0352803D361600020206070BD002215F1BA
S1135A001F0F04DA2268236000202035606068429A
S1135A1013D0521E25689241C0F12003D2439D4009
S1135A2045EAD27225686668C54006FA03F32B433B
S1135A302360636823FA00F0606060680843606074
S1135A40B2F1004F03D80DD12078C0070AD52068E1
S1135A50401C2060206828B96068401C60604FF0DA
S1135A60FF3070BD6068884204BF20680028F6D10A
S1135A70002070BD0000F0FF0000F07F10B50C00A6
S1135A801168012902D0022904D009E0C0B251688A
S1135A90884705E0916808709068401C9060FFE7B3
S1135AA02068401C206010BD30B41C000023002579
S1135AB00570401C002A19D0096800290AD1302138
S1135AC001705B1C180030BC704730351100057044
S1135AD0401C5B1C0029F5D091FBF4F204FB121569
S1135AE0002DF2D5E94311F13105EFE709680029EA
S1135AF008D1302101705B1CE4E7373511000570D3
S1135B00401C5B1C0029DDD0B1FBF4F204FB121530
S1135B100A2DF2D23035F1E7F8B504000D00160075
S1135B201F0005E03A0031003020FFF7A7FF641C96
S1135B30AC42F7DBF1BDF8B504000D0016001F0000
S1135B4005E03A0031002020FFF798FF641CAC42C6
S1135B50F7DBF1BD2DE9F04F8DB005009046002034
S1135B6000900C0005E02A0000A91800FFF786FF4A
S1135B70641C2378002B00F0D581252B12D00A2B2E
S1135B8005D02A0000A91800FFF778FF09E02A00D1
S1135B9000A90D20FFF772FF2A0000A90A20FFF7D1
S1135BA06DFFE5E70026002101E056F0010600291B
S1135BB01BD1641C207820280BD023280FD02B283D
S1135BC004D02D28F1D0302806D00BE056F0020680
S1135BD0EDE756F00406EAE756F00806E7E756F064
S1135BE01006E4E7641E0121E1E70027002104E038
S1135BF00A2000FB0730B0F13007002908D1641CEB
S1135C002378180030380928F2D9641E0121F4E7FA
S1135C10641C20782E280BD10021FFE7002908D12D
S1135C20641C207830380928F8D9641E0121F5E76E
S1135C30641E641C20784C2806D0682802D06C2886
S1135C4001D002E002E001E000E0641E641C23785D
S1135C501800582877D0622800F0D880632800F014
S1135C602881642813D0692811D06E2800F053814C
S1135C706F2800F0BE80702800F0D580732800F0F3
S1135C802181752800F0DC8078285CD06BE7D8F897
S1135C900000039018F104080A23012203A904A8B0
S1135CA0FFF702FF814604A819EB00000290039855
S1135CB0002804D55FF02D0A19F101090FE0B0079F
S1135CC004D55FF02B0A19F1010908E0700704D527
S1135CD05FF0200A19F1010901E05FF0000A5FF0AA
S1135CE0000B300711D5BAF1000F04D02A0000A927
S1135CF05046FFF7C3FE5FF0010B2B0000AA3900EA
S1135D004846FFF709FFB94611E0F0070FD42B000E
S1135D1000AA39004846FFF70EFFBAF1000F04D07D
S1135D202A0000A95046FFF7A9FE5FF0010BBBF162
S1135D30000F07D1BAF1000F04D02A0000A9504681
S1135D40FFF79CFEA8E0D8F80000019018F10408C1
S1135D501023002201A904A8FFF7A6FE814604A887
S1135D6019EB000002905FF0000B300715D5F00628
S1135D700BD52A0000A93020FFF780FE2A0000A9D5
S1135D807820FFF77BFE5FF0010B2B0000AA39009F
S1135D904846FFF7C1FEB94619E0F00717D4F006EC
S1135DA001D519F102092B0000AA39004846FFF772
S1135DB0C2FEF0060BD52A0000A93020FFF75EFED4
S1135DC02A0000A97820FFF759FE5FF0010BF006C6
S1135DD00ED5BBF1000F0BD12A0000A93020FFF72C
S1135DE04DFE2A0000A97820FFF748FE19F10209A8
S1135DF052E0D8F80000019018F1040808230022AA
S1135E0001A904A8FFF750FE814625E0D8F8000058
S1135E10019018F104080223002201A904A8FFF745
S1135E2043FE814618E0D8F80000019018F10408F8
S1135E301023002201A904A8FFF736FE81460BE0D7
S1135E40D8F80000019018F104080A23002201A9DF
S1135E5004A8FFF729FE814604A819EB000002906C
S1135E60300707D52B0000AA39004846FFF754FE37
S1135E70B94611E0F0070FD42B0000AA39004846B8
S1135E80FFF759FE08E02A0000A902980078FFF7FE
S1135E90F5FD0298401E0290029800780028F2D185
S1135EA0F00705D52B0000AA39004846FFF743FE4A
S1135EB05EE698F8000018F104082A0000A9FFF72C
S1135EC0DDFD55E6D8F800A018F10408BAF1000F7A
S1135ED020D0504600F02FFD8146F0070ED42B0051
S1135EE000AA39004846FFF726FE07E02A0000A969
S1135EF09AF80000FFF7C2FD1AF1010A9AF80000AF
S1135F000028F3D1F00705D52B0000AA3900484634
S1135F10FFF711FE2CE6D8F8000018F104080099E8
S1135F20016025E600980DB0BDE8F08F0EB400B511
S1135F3084B0012100910549019105AA010000A83E
S1135F40FFF708FE04B05DF810FB00001592000096
S1135F507047000038B504460D4620684000000E26
S1135F60FF2804D12068400214D0022032BD20B999
S1135F702046FFF73DF8012847DA012D0CDBC0F17C
S1135F80FF018D4208D3206800284CBF20484FF001
S1135F90FF402060012032BD4142A942216806DA57
S1135FA021F0FF41401941EAC050206027E001F090
S1135FB0004122685202401E520A451942F400026E
S1135FC005F118002260182828BF21601DD2002086
S1135FD06A4207D02068C2F120039840236823FA5C
S1135FE002F2226022680A432260B0F1004F03D813
S1135FF008D12078C00705D52068401C20604FF0E8
S1136000FF3032BD20688842F9D1002032BD00BF84
S1136010000080FF3C490860704710B504005C2C08
S113602002DB3A48FFF782FF202094FBF0F00028BF
S113603003D0022827D013D337E00120202194FB7A
