S01900004C504C445F54656D706C6174655F4B36302E7372656334
S3151FFF8000F87F00201184FF1F610F0020610F0020E2
S3151FFF8010610F0020610F0020610F0020610F0020FC
S3151FFF8020610F0020610F0020610F0020610F0020EC
S3151FFF8030610F0020610F0020610F0020610F0020DC
S3151FFF80400DE9FF1F610F0020610F0020610F002048
S3151FFF8050610F0020610F0020610F0020610F0020BC
S3151FFF8060610F0020610F002027E9FF1F610F00200E
S3151FFF8070610F0020610F0020610F0020610F00209C
S3151FFF8080610F0020610F0020610F0020610F00208C
S3151FFF8090610F0020610F0020610F0020610F00207C
S3151FFF80A0610F0020610F0020610F0020610F00206C
S3151FFF8400FFFFFFFFFFFFFFFFFFFFFFFFFEFFFFFF59
S3151FFF84104FF000004FF000014FF000024FF0000336
S3151FFF84204FF000044FF000054FF000064FF0000716
S3151FFF84304FF000084FF000094FF0000A4FF0000BF6
S3151FFF84404FF0000C62B607F0DDFBFEE780B50100BB
S3151FFF845000200800002102F0B1FA03D2DFF8D81B73
S3151FFF846002F0BEFA02BDF8B5DFF8D00B0068DFF8E1
S3151FFF8470D01B0860DFF8CC0B0068DFF8C01B086055
S3151FFF8480DFF820050068DFF820150968401ADFF8B6
S3151FFF8490B41B0860DFF8B00B0068DFF8B01B08607D
S3151FFF84A0DFF8AC0B0068DFF8A01B0860DFF8FC04E1
S3151FFF84B00068DFF8FC140968401ADFF8941B086090
S3151FFF84C0DFF8800B006802F0F7FAFFF7BFFFDFF850
S3151FFF84D0841B02F01BFB0AD8DFF87C0B0068DFF852
S3151FFF84E07C1B02F025FBDFF8781B086009E0DFF82D
S3151FFF84F0680B0068DFF86C1B02F01AFBDFF8601BC6
S3151FFF85000860DFF8400B006810F1320F09DADFF859
S3151FFF8510480B0068DFF8501B02F00AFBDFF8401B11
S3151FFF85200860DFF8200B006802F0C6FAFFF78EFF20
S3151FFF853002F07CFBDFF8342BDFF8343B02F09EFBA7
S3151FFF854002000B000020DFF82C1B02F069FC02F073
S3151FFF855027FD04000D00DFF8200B0068DFF8041B62
S3151FFF856002F0E6FA02F062FB06000F000020DFF8BA
S3151FFF85700C1B22002B0002F03DFD02000B00DFF853
S3151FFF8580000BDFF8001B02F0A9FD02000B003000F5
S3151FFF8590390002F045FC02F0C5FEDFF8EC1A086051
S3151FFF85A0DFF8E80A0068DFF8BC1A02F0C1FADFF845
S3151FFF85B0E01A0860DFF8980A006802F07DFAFFF7F5
S3151FFF85C045FFDFF8901A02F0A1FA0AD8DFF8880AEA
S3151FFF85D00068DFF8881A02F0ABFADFF8B81A0860EE
S3151FFF85E009E0DFF8740A0068DFF8781A02F0A0FACC
S3151FFF85F0DFF8A01A0860DFF8580A006810F1320F7B
S3151FFF860009DADFF8540A0068DFF85C1A02F090FAFD
S3151FFF8610DFF8801A0860DFF8380A006802F04CFAA4
S3151FFF8620FFF714FF02F002FBDFF8402ADFF8403A9C
S3151FFF863002F024FB02000B000020DFF8381A02F0BD
S3151FFF8640EFFB02F0ADFC04000D00DFF82C0A0068FB
S3151FFF8650DFF8101A02F06CFA02F0E8FA06000F00B4
S3151FFF86600020DFF8181A22002B0002F0C3FC0200BD
S3151FFF86700B00DFF80C0ADFF80C1A02F02FFD0200C1
S3151FFF86800B003000390002F0CBFB02F04BFEDFF888
S3151FFF8690081A0860DFF8F4090068DFF8C81902F046
S3151FFF86A047FADFF8F8190860DFF8F4090168DFF801
S3151FFF86B0D809006802F094F90400DFF888090068FA
S3151FFF86C002F0FAF9210002F08BF9DFF8D8190860DA
S3151FFF86D0DFF8D4090168DFF8C009006802F080F9E6
S3151FFF86E00400DFF86C09006802F0E6F9210002F0CA
S3151FFF86F077F9DFF8B8190860DFF8B4090168DFF802
S3151FFF8700A409006802F056FEDFF8A4190860DFF817
S3151FFF8710A4090168DFF89409006802F04BFEDFF831
S3151FFF872094190860DFF87C090068DFF88C1902F0DE
S3151FFF873045F904D20020DFF86819086004E05FF0EE
S3151FFF87407E50DFF85C190860DFF860090068DFF804
S3151FFF8750681902F033F904D20020DFF84C190860BC
S3151FFF876004E05FF07E50DFF840190860DFF8D40899
S3151FFF87700068DFF8C8180968401A02F09DF9DFF88C
S3151FFF8780E018096802F02CF9DFF81819096802F0DA
S3151FFF879011FE0400DFF8AC080068DFF8A0180968AF
S3151FFF87A0B0EB4100DFF898180968081802F084F942
S3151FFF87B0DFF8DC18096802F013F90100200002F048
S3151FFF87C03BFE02F0ADFEDFF8F4180860DFF8800805
S3151FFF87D00068DFF874180968401A02F06DF9DFF8B0
S3151FFF87E0B418096802F0FCF8DFF8C018096802F030
S3151FFF87F0E1FD0400DFF858080068DFF84C18096828
S3151FFF8800B0EB4100DFF844180968081802F054F965
S3151FFF8810DFF88818096802F0E3F80100200002F06C
S3151FFF88200BFE02F07DFEDFF898180860DFF894084C
S3151FFF88300068DFF8881809680818DFF888180860C5
S3151FFF8840DFF884080068DFF8781809680818DFF86A
S3151FFF885078180860DFF86C080068C72803DBC72095
S3151FFF8860DFF860180860DFF860080068C72803DBB9
S3151FFF8870C720DFF854180860DFF850080068002883
S3151FFF888073D1DFF840080068DFF844180860DFF887
S3151FFF889038080068DFF83C180860DFF82C08006806
S3151FFF88A000280AD4DFF820080168042002F02DFFF4
S3151FFF88B00021052002F029FF23E0DFF81C080068CE
S3151FFF88C002F0FAF801000C00DFF8FC07006802F05F
S3151FFF88D0F3F8FFF7BBFD210002F018F906D8DFF802
S3151FFF88E0F80700684042DFF8E01708600021042000
S3151FFF88F002F00BFFDFF8D00700684142052002F0A8
S3151FFF890004FFDFF8C007006800280AD4DFF8B407A2
S3151FFF89100168072002F0F9FE0021062002F0F5FE8E
S3151FFF892023E0DFF8B807006802F0C6F801000C0065
S3151FFF8930DFF89007006802F0BFF8FFF787FD2100F9
S3151FFF894002F0E4F806D8DFF8940700684042DFF824
S3151FFF8950741708600021072002F0D7FEDFF86407AF
S3151FFF896000684142062002F0D0FEDFF8600700686C
S3151FFF8970012805D0DFF868070088B0F5FA6F0FDA10
S3151FFF89800021042002F0C1FE0021052002F0BDFEDA
S3151FFF89900021062002F0B9FE0021072002F0B5FED6
S3151FFF89A0F1BD00005015002048150020541500206A
S3151FFF89B04C150020F8B50D21032003F052F80028AF
S3151FFF89C004D10120DFF81C17087003E00020DFF831
S3151FFF89D014170870DFF810070068B0F57A7F15DDEA
S3151FFF89E0DFF808070068002810D1DFF8F8060078BF
S3151FFF89F001280BD10120DFF8F81608600120DFF8E8
S3151FFF8A00EC1608600120DFF8EC160860DFF8E806B1
S3151FFF8A100068DFF8501602F08BF8DFF8E0160860E3
S3151FFF8A20DFF8DC060068401F4000DFF8D81609682C
S3151FFF8A30DFF8D42612685118884203DA0120DFF8BF
S3151FFF8A40CC160860DFF8C8060068401D4000DFF837
S3151FFF8A50B4160968DFF8B02612685118884204DA7F
S3151FFF8A60DFF88C060068012803D10020DFF89C166B
S3151FFF8A700860DFF8A0060068DFF89C16096808186B
S3151FFF8A800021484342F21071B0FBF1F002F01EF8CD
S3151FFF8A90DFF888160860DFF88806006802F0C6F858
S3151FFF8AA00022DFF8803602F0A5FA02F03BFCFFF743
S3151FFF8AB0CDFCDFF8741601F081FF31D2DFF86C06AB
S3151FFF8AC0008879282CDBDFF83806006801F0F4FFF1
S3151FFF8AD00400DFF8480600685FF07E5101F080FF53
S3151FFF8AE00100200002F066FC02F01AFDDFF84016B7
S3151FFF8AF00860DFF80C06006801F0DEFF0400DFF8F0
S3151FFF8B001C0600685FF07E5101F06AFF010020001E
S3151FFF8B1002F050FC02F004FDDFF8181608608BE028
S3151FFF8B20DFF8FC05006802F081F80022DFF8F43554
S3151FFF8B3002F060FA02F0F6FBFFF788FC5FF07E514A
S3151FFF8B400C0002F073F80022DFF8EC3502F0C6FACC
S3151FFF8B5002F0E8FB210003F0F0F80400DFF8A005A0
S3151FFF8B60006801F0A9FF0500DFF894050068DFF82C
S3151FFF8B70A0150968401A01F09FFF0100200001F0B0
S3151FFF8B802FFF0100280002F057FC02F0C9FCDFF897
S3151FFF8B90AC150968002251434FF47A62B1FBF2F11B
S3151FFF8BA00818DFF88C150860DFF87405006802F0F7
S3151FFF8BB03DF80022DFF86C3502F01CFA02F0B2FB1B
S3151FFF8BC0FFF744FC5FF07E510C0002F02FF80022E6
S3151FFF8BD0DFF86C3502F082FA02F0A4FB210003F0E6
S3151FFF8BE0ACF80400DFF81805006801F065FF050003
S3151FFF8BF0DFF80C050068DFF818150968401A01F041
S3151FFF8C005BFF0100200001F0EBFE0100280002F0D0
S3151FFF8C1013FC02F085FCDFF8241509680022514377
S3151FFF8C204FF47A62B1FBF2F10818DFF808150860F6
S3151FFF8C301920DFF810150860DFF80C05DFF80C1593
S3151FFF8C400860DFF8C8040068012840F0C780DFF816
S3151FFF8C50D004006801F0EAFF0022DFF8C83402F0F3
S3151FFF8C60C9F902F05FFBFFF7F1FBDFF8E41401F030
S3151FFF8C70A5FE31D2DFF8B404008879282CDBDFF894
S3151FFF8C808004006801F018FF0400DFF890040068F5
S3151FFF8C905FF07E5101F0A4FE0100200002F08AFB67
S3151FFF8CA002F03EFCDFF888140860DFF85404006802
S3151FFF8CB001F002FF0400DFF8640400685FF07E51D5
S3151FFF8CC001F08EFE0100200002F074FB02F028FC6B
S3151FFF8CD0DFF86014086081E0DFF84404006801F0E4
S3151FFF8CE0A5FF0022DFF83C3402F084F902F01AFBDD
S3151FFF8CF0FFF7ACFB5FF07E510C0001F097FF0022E0
S3151FFF8D00DFF8343402F0EAF902F00CFB210003F01E
S3151FFF8D1014F80400DFF8E803006801F0CDFE050034
S3151FFF8D20DFF8DC030068DFF8E8130968401A143818
S3151FFF8D3001F0C2FE0100200001F052FE01002800D3
S3151FFF8D4002F07AFB02F0ECFBDFF8E4130860DFF8B2
S3151FFF8D50D003006801F06AFF0022DFF8C83302F074
S3151FFF8D6049F902F0DFFAFFF771FB5FF07E510C0046
S3151FFF8D7001F05CFF0022DFF8C83302F0AFF902F003
S3151FFF8D80D1FA210002F0D9FF0400DFF8740300684F
S3151FFF8D9001F092FE0500DFF868030068DFF8701325
S3151FFF8DA00968401A143801F087FE0100200001F000
S3151FFF8DB017FE0100280002F03FFB02F0B1FBDFF8B0
S3151FFF8DC0741308600120DFF88C1308703220DFF858
S3151FFF8DD0741308600020DFF874130860D04800681A
S3151FFF8DE001F024FF0022CF4B02F004F902F09AFA9A
S3151FFF8DF0FFF72CFBDFF8601301F088FE00F2CE8031
S3151FFF8E00C748006801F012FF0022C64B02F0F2F8B6
S3151FFF8E100022002302F094FF5BD2C648006801F0D0
S3151FFF8E204BFEB649096801F0DBFD01F0FFFE0400AA
S3151FFF8E300D00BB48006801F0F9FE02000B00002081
S3151FFF8E40C64901F0EDFF22002B0001F017FF00229C
S3151FFF8E50BB4B02F043F902F065FAC1490860B448FB
S3151FFF8E60006802F085FF06000F00B8480068A34997
S3151FFF8E70096801F0B5FD01F0D9FE04000D00A848F1
S3151FFF8E80006801F0D3FE02000B000020B34901F07A
S3151FFF8E90C7FF22002B0001F0F1FE0022A84B02F0B4
S3151FFF8EA01DF90022754B02F0A5F832003B0001F0B9
S3151FFF8EB0E5FE02F075FF9E4908609E48006801F0B7
S3151FFF8EC0FBFDA749096802F0B7FA02F029FB99498A
S3151FFF8ED008609348006801F0A9FE0022914B02F03B
S3151FFF8EE089F80022002302F081FF57D890480068B7
S3151FFF8EF001F0E2FD8149096801F072FD01F096FE5E
S3151FFF8F0004000D008648006801F090FE0022854B85
S3151FFF8F1002F070F822002B0001F0B0FE0022864BF4
S3151FFF8F2002F0DCF802F0FEF98E49086080480068FF
S3151FFF8F3001F0C2FD8B49096802F07EFA02F0F0FAD2
S3151FFF8F407B4908607B48006802F012FF06000F008E
S3151FFF8F507E4800686949096801F042FD01F066FE17
S3151FFF8F6004000D006E48006801F060FE00226D4B85
S3151FFF8F7002F040F822002B0001F080FE00226E4B0C
S3151FFF8F8002F0ACF800223D4B02F034F832003B00F2
S3151FFF8F9001F074FE02F004FF66490860644800682A
S3151FFF8FA057490968884203DB5548006860490860CE
S3151FFF8FB06048006852490968884203DB50480068C9
S3151FFF8FC05C4908604A48006801280CD1664800685A
S3151FFF8FD05749086064480068564908605548006845
S3151FFF8FE06249086026E04A48006856490968401AE0
S3151FFF8FF04F490968884206DB454800685149096899
S3151FFF9000401A4B490860424800684E490968401A92
S3151FFF901048490968884206DB3D480068494909688F
S3151FFF9020401A444908603A48006846490968401A89
S3151FFF90304E490860F1BD0000000080BF7C1500206F
S3151FFF904080150020781500208C1500209015002014
S3151FFF9050881500200100A041E015002000008C426A
S3151FFF90609C1500200000C842000070429A999999EA
S3151FFF90709999C93F00001840E41500200000F03FF2
S3151FFF90807B14AE47E17AB43FA0150020E8150020F8
S3151FFF9090A4150020A8150020AC150020B015002030
S3151FFF90A014140020601500201814002064150020DA
S3151FFF90B0681500206C150020FFFFC7C21C14002077
S3151FFF90C0201400208415002094150020C4150020AD
S3151FFF90D05C1500205815002028140020241400209A
S3151FFF90E04C180020871800202C180020BC150020C4
S3151FFF90F0B8150020C0150020F81500200814002001
S3151FFF9100FC130020481500204C1500209815002041
S3151FFF9110F81300208416002080160020CC1500208F
S3151FFF9120041400200074A4C00000484262180020E7
S3151FFF9130501500205415002000D0784088160020B7
S3151FFF91400000784000140020CDCCCC3DFC1400203D
S3151FFF91500000F04184180020010048420074A4401B
S3151FFF916038150020341500207415002070150020B7
S3151FFF91702DE9F843DFF8200B008805281DDADFF8F5
S3151FFF91801C0B0088052818DADFF8140B0088052842
S3151FFF919013DADFF8100B008805280EDADFF8080B45
S3151FFF91A00088052809DADFF8040B0088052804DA8A
S3151FFF91B0DFF8FC0A008805280BDBDFF8F80A0088B2
S3151FFF91C001F084FC0100DFF8F00A006801F0F6FBEE
S3151FFF91D003D20120DFF8E41A0860DFF8E40A0088EB
S3151FFF91E002F0D0FDDFF8DC2ADFF8DC3A01F046FD9E
S3151FFF91F00022DFF8D83A01F041FD0022DFF8D03A0E
S3151FFF920001F0F8FE01F0CCFE0022DFF8C83A01F0AC
S3151FFF9210F1FE02000B00DFF8C00ADFF8C01A01F0EB
S3151FFF92205DFF04000D00DFF8B80A006801F0FEFCC1
S3151FFF923022002B0001F0DEFE02F074F8DFF8A41AFD
S3151FFF92400860DFF87C0A008802F09CFDDFF8742AAD
S3151FFF9250DFF8743A01F012FD0022DFF8703A01F0D1
S3151FFF92600DFD02000B000020DFF87C1A01F0D8FD70
S3151FFF927001F096FE02000B000020DFF8581A01F0DE
S3151FFF9280B9FE02000B00DFF8500ADFF8601A01F083
S3151FFF929025FF04000D00DFF8580A006801F0C6FC21
S3151FFF92A022002B0001F0A6FE02F03CF8DFF8441A5D
S3151FFF92B00860DFF8440ADFF8441A0860DFF8400A3F
S3151FFF92C0DFF8401A0860DFF8400A007800283FD110
S3151FFF92D0DFF8380A0078012818D1DFF8340A00882A
S3151FFF92E0002813D0DFF8280A0088FA280EDADFF8DD
S3151FFF92F0240A0068002809D1DFF81C0ADFF81C1AA8
S3151FFF930008600120DFF8181A087021E0DFF8140A39
S3151FFF93100078012818D1DFF8F8090088002813D034
S3151FFF9320DFF8EC090088FA280EDADFF8E80900688B
S3151FFF9330002809D10120DFF8E8190870DFF8E809CE
S3151FFF9340DFF8D819086003E00020DFF8D01908609E
S3151FFF9350DFF8B4090078012873D1DFF8D009007848
S3151FFF936001286ED1DFF8AC090068002869D1DFF844
S3151FFF9370C009007801282FD1DFF8B8090088401CE3
S3151FFF9380DFF8B01908800120DFF894190870DFF89D
S3151FFF9390A8090078002804D0DFF88C09DFF87C19AC
S3151FFF93A00860DFF8900900881F2815DB0020DFF80B
S3151FFF93B0841908800020DFF8641908600020DFF891
S3151FFF93C0701908700020DFF864190870DFF86C2920
S3151FFF93D002213C2002F0EEFFDFF854090078022835
S3151FFF93E02FD1DFF850090088401CDFF84819088085
S3151FFF93F00120DFF82C190870DFF83C0900780028D8
S3151FFF940004D0DFF81409DFF814190860DFF8240900
S3151FFF941000881F2815DB0020DFF818190880002099
S3151FFF9420DFF8F81808600020DFF80419087000201D
S3151FFF9430DFF8F8180870DFF8042902213C2002F034
S3151FFF9440B9FFDFF87C080088DFF8581809880A3942
S3151FFF9450884215DADFF850080088DFF848180988B0
S3151FFF94600A3988420CDADFF8D8080068002807D1C6
S3151FFF94700120DFF8D01808600020DFF8C418086045
S3151FFF9480DFF83C080088DFF8201809880A39884268
S3151FFF949015DADFF810080088DFF80C1809880A3973
S3151FFF94A088420CDADFF89C080068002807D10120E4
S3151FFF94B0DFF88C1808600020DFF888180860DFF8CF
S3151FFF94C0D8070088652813DADFF8D00700886528D4
S3151FFF94D00EDADFF8EC070088652809DADFF8C00720
S3151FFF94E000886F2804DADFF8C80700886F2807DBB4
S3151FFF94F00020DFF84C1808600020DFF848180860C6
S3151FFF95000A21032002F0ADFA00286DD1DFF8880784
S3151FFF95100088B42831DBDFF8840700881F282CDB7F
S3151FFF9520DFF880070088502827DADFF81C08006855
S3151FFF9530002822D1DFF860070088D0F11E004FF602
S3151FFF95404C71401ADFF854170880DFF8640700884C
S3151FFF9550282806DBDFF8480700882838DFF850176A
S3151FFF956008800120DFF8B81708700120DFF8D4172D
S3151FFF957008600020DFF8C8170860DFF8200700889B
S3151FFF9580B42831DBDFF8100700881F282CDBDFF834
S3151FFF959018070088502827DADFF8AC07006800286D
S3151FFF95A022D1DFF8F8060088D0F11E004FF64C7166
S3151FFF95B0401ADFF8E4160880DFF8E406008828283B
S3151FFF95C006DBDFF8EC0600882838DFF8D41608809C
S3151FFF95D00120DFF84C1708700120DFF864170860B9
S3151FFF95E00020DFF860170860DFF8AC060088DFF899
S3151FFF95F0AC160988401A01F05FFADFF850170860AA
S3151FFF9600DFF89C060088DFF8A8160988401A01F0C4
S3151FFF961053FADFF83C170860DFF87C060088DFF88F
S3151FFF96207C16098811FA80F0DFF89416098810FA5C
S3151FFF963081F001F041FADFF81C170860DFF86006BA
S3151FFF96400088DFF86C16098811FA80F001F034FAEA
S3151FFF9650DFF804170860DFF88C060168DFF8EC06F1
S3151FFF9660006801F0BDF90400DFF888060168DFF81E
S3151FFF9670E006006801F0B4F9210001F09BFEDFF858
S3151FFF9680DC160860DFF874060168DFF8C806006895
S3151FFF969001F0A6F90400DFF86C060168DFF8B806CB
S3151FFF96A0006801F09DF9210001F084FEDFF8B01676
S3151FFF96B00860DFF830060168002001F091F9DFF836
S3151FFF96C08C16096801F08CF90400DFF8280601687B
S3151FFF96D05FF07E5001F084F9DFF87416096801F018
S3151FFF96E07FF9210001F066FEDFF878160860DFF8C4
S3151FFF96F0A8050088DFF8A4150988401A01F0DCF9D0
S3151FFF9700DFF864160860DFF890050088DFF88C1510
S3151FFF9710098811FA80F0DFF8A815098810FA81F079
S3151FFF972001F0CAF9DFF844160860DFF84416DFF8C0
S3151FFF97303006006802F001FB0100DFF8280600680B
S3151FFF974001F0F6F9DFF82C160860DFF82416DFF8AC
S3151FFF97501006006802F0F1FA0100DFF80006006844
S3151FFF976001F0E6F9DFF810160860DFF8100601684A
S3151FFF9770DFF80C0601F034F9DFF808160860DFF88A
S3151FFF978008060168DFF8F80501F02AF9DFF8FC156E
S3151FFF97900860DFF8B0050068012812DBDFF8F80460
S3151FFF97A0008850280DDADFF8180500883C2808DAEC
S3151FFF97B0DFF8EC040088642803DA0120DFF8D015F0
S3151FFF97C00860DFF87C050068012812DBDFF8CC0490
S3151FFF97D0008850280DDADFF8E80400883C2808DAED
S3151FFF97E0DFF8CC040088642803DA0120DFF8A4150C
S3151FFF97F00860DFF8A0050068012828DBDFF84805A9
S3151FFF98000068002823D1DFF890040088DFF88C1446
S3151FFF98100988884207D2DFF888040088DFF890148A
S3151FFF98200988884204D3DFF818050068002803D18A
S3151FFF98300020DFF860150860DFF85C05DFF85C15B0
S3151FFF98400860DFF85405DFF8581508607CE1DFF87C
S3151FFF985040050068012828DBDFF8EC0400680028B4
S3151FFF986023D1DFF838040088DFF82C1409888842D3
S3151FFF987007D2DFF83C040088DFF8241409888842E2
S3151FFF988004D3DFF8C0040068002803D10020DFF8E7
S3151FFF989000150860DFF80C05DFF800150860DFF814
S3151FFF98A00405DFF8FC1408604EE1DFF8FC040068CE
S3151FFF98B0DFF8F8140860DFF8F8040068DFF8E8142B
S3151FFF98C00860DFF8F0040068DFF8E4140860DFF8CB
S3151FFF98D0E8040068DFF8DC140860DFF89C04006802
S3151FFF98E0DFF8D4140860DFF8D0040068DFF8B81477
S3151FFF98F0096801F0A1FDFEF7A9FDDFF890140968BD
S3151FFF990001F06EF8DFF8B41401F000F906D8DFF89E
S3151FFF9910B0040068DFF8AC1408600AE0DFF89804AB
S3151FFF99200068DFF88414096801F086FDDFF89414D8
S3151FFF99300860DFF890040068DFF884140860DFF81A
S3151FFF99404C040168DFF87C04006801F049F8DFF872
S3151FFF9950781401F0DBF810D8DFF83004006801F047
S3151FFF996065F902000B000020DFF8601401F0B6FB5B
S3151FFF997001F0D8FCDFF84C140860DFF8100401680B
S3151FFF9980DFF84004006801F02BF8DFF8441401F0FC
S3151FFF999015F810D2DFF8F403006801F047F902004B
S3151FFF99A00B000020DFF82C1401F098FB01F0BAFC26
S3151FFF99B0DFF810140860DFF820040068401CDFF88A
S3151FFF99C018140860DFF8FC030068FEF73FFDDFF899
S3151FFF99D0BC13096801F004F8DFF80014096801F0E9
S3151FFF99E0E9FCDFF8F8130860DFF8EC0300680428CA
S3151FFF99F011DBDFF8E80300685FF0814101F098F89B
S3151FFF9A00DFF8DC1308600020DFF8D01308600020A2
S3151FFF9A10DFF8C4130860CC480068012840D1DFF87F
S3151FFF9A2064030168DFF89003006800F0D9FF01F0B7
S3151FFF9A30FDF80022DFF8AC3301F0DCFA80468946D9
S3151FFF9A40DFF84803006801F0F1F806000F00DFF8A2
S3151FFF9A507403006801F0EAF85FF06632DFF88833B7
S3151FFF9A6001F00CF904000D00DFF85403006801F044
S3151FFF9A70DDF85FF03332DFF8743301F0FFF82200B1
S3151FFF9A802B0001F0B7FA32003B0001F0F7F8424610
S3151FFF9A904B4601F0AFFA01F045FCC049086037E0BD
S3151FFF9AA0B8480168C448006800F09AFF01F0BEF885
S3151FFF9AB00022CC4B01F09EFA80468946B3480068C8
S3151FFF9AC001F0B4F806000F00BE48006801F0AEF8BB
S3151FFF9AD05FF06632C44B01F0D1F804000D00B848A1
S3151FFF9AE0006801F0A3F85FF03332C04B01F0C6F8F0
S3151FFF9AF022002B0001F07EFA32003B0001F0BEF878
S3151FFF9B0042464B4601F076FA01F00CFCA34908606A
S3151FFF9B10A24801688148006801F04CFC9F49086014
S3151FFF9B20984801685FF0804000F05AFF9149096825
S3151FFF9B3000F056FF01F07AF80022AA4B01F05AFAFD
S3151FFF9B4001F0F0FB96490860A948006801286BD110
S3151FFF9B505B480088792867DB55480088472863DB01
S3151FFF9B604F48008847285FDBA248006800285BD163
S3151FFF9B70A148006801F05AF80022A04B01F03AFAFB
S3151FFF9B8001F0D0FBFEF762FC9D4900F017FF4BD299
S3151FFF9B904248008840490988283988421EDA4148C9
S3151FFF9BA00088414909883239884217DA40480088B8
S3151FFF9BB03B490988401A00F07FFFFEF747FC914992
S3151FFF9BC000F0FCFE0AD234480088792806DB3348AA
S3151FFF9BD00088472802DB0120864908602E48008837
S3151FFF9BE02E490988283988421EDA2F4800882D49B1
S3151FFF9BF009883239884217DA2D480088284909888B
S3151FFF9C00401A00F059FFFEF721FC7E4900F0D6FEF1
S3151FFF9C100AD222480088792806DB1F480088472872
S3151FFF9C2002DB0120734908605D4800685A4900F04E
S3151FFF9C30C5FE02D258485A490860594800687249FA
S3151FFF9C4000F064FF02D8574855490860534800681B
S3151FFF9C50514900F0B3FE03D24F486749086011E030
S3151FFF9C604E480068684900F051FF03D84D486249C6
S3151FFF9C70086007E04948006801F052FC00F01CFF2E
S3151FFF9C805D4908605C48006801F04AFC010000203E
S3151FFF9C9001F015FEBDE8F1835E1800206018002055
S3151FFF9CA06818002064180020661800206C18002012
S3151FFF9CB06A1800204C180020F4150020C415002038
S3151FFF9CC06218002079E9263108AC8C3F000010404E
S3151FFF9CD0000014C00000F03F9A9999999999A93FDE
S3151FFF9CE00C1400201C150020000014409999B93F41
S3151FFF9CF010140020201500203333333F2415002076
S3151FFF9D009A99993E28150020C41400209018002008
S3151FFF9D105A180020B8150020000066C3E014002063
S3151FFF9D20841800208F180020000066438818002023
S3151FFF9D30891800205C180020861800207811002043
S3151FFF9D40D4150020D0150020C015002000150020B7
S3151FFF9D5004150020081500200C15002010150020E3
S3151FFF9D6014150020181500202C1500203015002073
S3151FFF9D70CDCCCC3FC8150020E8140020EC150020E1
S3151FFF9D8000007A44F4140020F0150020F814002078
S3151FFF9D90D8150020DC15002000A00B45E414002079
S3151FFF9DA0DC14002000703C45D4140020D81400207A
S3151FFF9DB0D0140020CC140020C81400200100C84373
S3151FFF9DC0F0140020EC1400200100AF4300E07540A3
S3151FFF9DD00000AFC300E075C0441500203C150020EE
S3151FFF9DE0401500200074A4406666E63F3333D33F19
S3151FFF9DF004160020B4150020041400200074A4C00C
S3151FFF9E000000A0420000A04101703C452DE9F84328
S3151FFF9E10DFF8580A008805281DDADFF8540A00887C
S3151FFF9E20052818DADFF84C0A0088052813DADFF849
S3151FFF9E30480A008805280EDADFF8400A0088052839
S3151FFF9E4009DADFF83C0A0088052804DADFF8340A46
S3151FFF9E50008805280BDBDFF8300A008800F036FE86
S3151FFF9E600100DFF8280A006800F0A8FD03D20120D1
S3151FFF9E70DFF81C1A0860DFF81C0ADFF81C1A0860D7
S3151FFF9E80DFF8180ADFF8181A0860DFF8180ADFF874
S3151FFF9E90181A0860DFF8140ADFF8141A0860DFF8CB
S3151FFF9EA0140A007800283FD1DFF80C0A0078012832
S3151FFF9EB018D1DFF8080A0088002813D0DFF8FC093D
S3151FFF9EC00088FA280EDADFF8F8090068002809D19A
S3151FFF9ED0DFF8F009DFF8F01908600120DFF8EC1949
S3151FFF9EE0087021E0DFF8E8090078012818D1DFF8AC
S3151FFF9EF0CC090088002813D0DFF8C0090088FA288C
S3151FFF9F000EDADFF8BC090068002809D10120DFF847
S3151FFF9F10BC190870DFF8BC09DFF8AC19086003E04D
S3151FFF9F200020DFF8A4190860DFF8880900780128E8
S3151FFF9F3073D1DFF8A409007801286ED1DFF88009F5
S3151FFF9F400068002869D1DFF89409007801282FD10E
S3151FFF9F50DFF88C090088401CDFF884190880012070
S3151FFF9F60DFF868190870DFF87C090078002804D02D
S3151FFF9F70DFF86009DFF850190860DFF86409008809
S3151FFF9F801F2815DB0020DFF8581908800020DFF88F
S3151FFF9F90381908600020DFF8441908700020DFF821
S3151FFF9FA038190870DFF8402902213C2002F002FA17
S3151FFF9FB0DFF82809007802282FD1DFF82409008847
S3151FFF9FC0401CDFF81C1908800120DFF800190870F4
S3151FFF9FD0DFF810090078002804D0DFF8E808DFF85B
S3151FFF9FE0E8180860DFF8F80800881F2815DB00202F
S3151FFF9FF0DFF8EC1808800020DFF8CC180860002077
S3151FFFA000DFF8D81808700020DFF8CC180870DFF8C3
S3151FFFA010D82802213C2002F0CDF9DFF8D0080088AE
S3151FFFA020DFF8541809880A39884215DADFF84C0811
S3151FFFA0300088DFF8441809880A3988420CDADFF8E6
S3151FFFA040B0080068002807D10120DFF8A8180860AC
S3151FFFA0500020DFF89C180860DFF890080088DFF8FB
S3151FFFA0601C1809880A39884215DADFF80C08008898
S3151FFFA070DFF8081809880A3988420CDADFF87408EE
S3151FFFA0800068002807D10120DFF864180860002048
S3151FFFA090DFF860180860DFF8D4070088652813DA31
S3151FFFA0A0DFF8CC07008865280EDADFF8400800883E
S3151FFFA0B0652809DADFF8BC0700886F2804DADFF89E
S3151FFFA0C0C40700886F2807DB0020DFF82418086005
S3151FFFA0D00020DFF8201808600A21032001F0C1FCC9
S3151FFFA0E000286DD1DFF884070088B42831DBDFF83D
S3151FFFA0F0800700881F282CDBDFF87C070088502885
S3151FFFA10027DADFF8F4070068002822D1DFF85C079B
S3151FFFA1100088D0F11E004FF64C71401ADFF850171A
S3151FFFA1200880DFF860070088282806DBDFF844076A
S3151FFFA13000882838DFF84C1708800120DFF88C17B6
S3151FFFA14008700120DFF8AC1708600020DFF8A017A2
S3151FFFA1500860DFF81C070088B42831DBDFF80C071F
S3151FFFA16000881F282CDBDFF814070088502827DA02
S3151FFFA170DFF884070068002822D1DFF8F40600887D
S3151FFFA180D0F11E004FF64C71401ADFF8E01608801B
S3151FFFA190DFF8E0060088282806DBDFF8E8060088D8
S3151FFFA1A02838DFF8D01608800120DFF8201708703F
S3151FFFA1B00120DFF83C1708600020DFF8381708601A
S3151FFFA1C0DFF8A8060088DFF8A8160988401A00F0EE
S3151FFFA1D073FCDFF828170860DFF898060088DFF89A
S3151FFFA1E0A4160988401A00F067FCDFF814170860E9
S3151FFFA1F0DFF878060088DFF87816098811FA80F0ED
S3151FFFA200DFF8E816098810FA81F000F055FCDFF831
S3151FFFA210F4160860DFF85C060088DFF86816098801
S3151FFFA22011FA80F000F048FCDFF8DC160860DFF853
S3151FFFA23068060168DFF8C406006800F0D1FB04005A
S3151FFFA240DFF85C060168DFF8B806006800F0C8FB98
S3151FFFA250210001F0AFF8DFF8B4160860DFF84806F3
S3151FFFA2600168DFF8A006006800F0BAFB0400DFF8FC
S3151FFFA27040060168DFF89006006800F0B1FB210079
S3151FFFA28001F098F8DFF888160860DFF80C060168FA
S3151FFFA290002000F0A5FBDFF86416096800F0A0FB9D
S3151FFFA2A00400DFF8FC0501685FF07E5000F098FBA5
S3151FFFA2B0DFF84C16096800F093FB210001F07AF8CE
S3151FFFA2C0DFF850160860DFF8A4050088DFF8A01531
S3151FFFA2D00988401A00F0F0FBDFF83C160860DFF82C
S3151FFFA2E08C050088DFF88815098811FA80F0DFF8DA
S3151FFFA2F0FC15098810FA81F000F0DEFBDFF81C164B
S3151FFFA3000860DFF81C16DFF80806006801F015FD68
S3151FFFA3100100DFF80006006800F00AFCDFF80416EC
S3151FFFA3200860DFF8FC15DFF8E805006801F005FD9A
S3151FFFA3300100DFF8D805006800F0FAFBDFF8E81523
S3151FFFA3400860DFF8E8050168DFF8E40500F048FB61
S3151FFFA350DFF8E0150860DFF8E0050168DFF8D005D4
S3151FFFA36000F03EFBDFF8D4150860DFF888050068AC
S3151FFFA370012812DBDFF8F404008850280DDADFF816
S3151FFFA3806C0500883C2808DADFF8E8040088642893
S3151FFFA39003DA0120DFF8A8150860DFF85405006807
S3151FFFA3A0012812DBDFF8C804008850280DDADFF812
S3151FFFA3B03C0500883C2808DADFF8C80400886428B3
S3151FFFA3C003DA0120DFF87C150860DFF878050068DF
S3151FFFA3D0012828DBDFF820050068002823D1DFF8D6
S3151FFFA3E08C040088DFF888140988884207D2DFF8B3
S3151FFFA3F084040088DFF88C140988884204D3DFF8A9
S3151FFFA400F0040068002803D10020DFF83815086024
S3151FFFA410DFF83405DFF834150860DFF82C05DFF8A1
S3151FFFA420301508607AE1DFF818050068012828DB78
S3151FFFA430DFF8C4040068002823D1DFF8340400883E
S3151FFFA440DFF828140988884207D2DFF83804008806
S3151FFFA450DFF820140988884204D3DFF898040068C0
S3151FFFA460002803D10020DFF8D8140860DFF8E404C2
S3151FFFA470DFF8D8140860DFF8DC04DFF8D4140860AF
S3151FFFA4804CE1DFF8D4040068DFF8D0140860DFF86A
S3151FFFA490D0040068DFF8C0140860DFF8C80400683E
S3151FFFA4A0DFF8BC140860DFF8C0040068DFF8B414D7
S3151FFFA4B00860DFF874040068DFF8AC140860DFF883
S3151FFFA4C0A8040068DFF89014096800F0B5FFFDF7D0
S3151FFFA4D0BDFFDFF86814096800F082FADFF88C14F5
S3151FFFA4E000F014FB06D8DFF888040068DFF8841431
S3151FFFA4F008600AE0DFF870040068DFF85C1409687B
S3151FFFA50000F09AFFDFF86C140860DFF86804006834
S3151FFFA510DFF85C140860DFF824040168DFF85404D1
S3151FFFA520006800F05DFADFF8501400F0EFFA10D85C
S3151FFFA530DFF80804006800F079FB02000B0000201B
S3151FFFA540DFF8381400F0CAFD00F0ECFEDFF8241424
S3151FFFA5500860DFF8E8030168DFF81804006800F0F9
S3151FFFA5603FFADFF81C1400F029FA10D2DFF8CC03EC
S3151FFFA570006800F05BFB02000B000020DFF80414ED
S3151FFFA58000F0ACFD00F0CEFEDFF8E8130860DFF841
S3151FFFA590F8030068401CDFF8F0130860DFF8D403E8
S3151FFFA5A00068FDF753FFDFF89413096800F018FAE8
S3151FFFA5B0DFF8D813096800F0FDFEDFF8D013086037
S3151FFFA5C0DFF8C4030068042811DBDFF8C003006847
S3151FFFA5D05FF0814100F0ACFADFF8B413086000208A
S3151FFFA5E0DFF8A81308600020DFF89C130860C24835
S3151FFFA5F0006801283ED1DFF83C030168DFF86803D6
S3151FFFA600006800F0EDF900F011FB0022DFF884333C
S3151FFFA61000F0F0FC80468946C848006800F006FB3C
S3151FFFA62006000F00DFF84C03006800F0FFFA5FF02B
S3151FFFA6306632DFF8643300F021FB04000D00CC48BF
S3151FFFA640006800F0F3FA5FF03332DFF8503300F0A3
S3151FFFA65015FB22002B0000F0CDFC32003B0000F063
S3151FFFA6600DFB42464B4600F0C5FC00F05BFEB749AB
S3151FFFA670086037E0AF480168BB48006800F0B0F9D3
S3151FFFA68000F0D4FA0022C34B00F0B4FC8046894683
S3151FFFA690AA48006800F0CAFA06000F00B54800680E
S3151FFFA6A000F0C4FA5FF06632BB4B00F0E7FA040016
S3151FFFA6B00D00AF48006800F0B9FA5FF03332B74BB1
S3151FFFA6C000F0DCFA22002B0000F094FC32003B0066
S3151FFFA6D000F0D4FA42464B4600F08CFC00F022FEF7
S3151FFFA6E09A490860994801687748006800F062FE3A
S3151FFFA6F0964908608F4801685FF0804000F070F947
S3151FFFA7008849096800F06CF900F090FA0022A14B06
S3151FFFA71000F070FC00F006FE8D490860A048006837
S3151FFFA72001286BD171480088792867DB5548008857
S3151FFFA730472863DB4F48008847285FDB9948006837
S3151FFFA74000285BD19848006800F070FA0022974BEB
S3151FFFA75000F050FC00F0E6FDFDF778FE944900F08F
S3151FFFA7602DF94BD24248008840490988283988422B
S3151FFFA7701EDA41480088414909883239884217DA6B
S3151FFFA780404800883B490988401A00F095F9FDF7B4
S3151FFFA7905DFE884900F012F90AD2344800887928ED
S3151FFFA7A006DB33480088472802DB01207D49086006
S3151FFFA7B02E4800882E490988283988421EDA2F48D5
S3151FFFA7C000882D4909883239884217DA2D480088B3
S3151FFFA7D028490988401A00F06FF9FDF737FE7549BA
S3151FFFA7E000F0ECF80AD222480088792806DB1F48BA
S3151FFFA7F00088472802DB01206A4908605448006821
S3151FFFA800514900F0DBF802D24F48514908605048C2
S3151FFFA8100068694900F07AF902D84E484C4908602A
S3151FFFA8204A480068484900F0C9F803D246485E49BE
S3151FFFA830086011E0454800685F4900F067F903D8D3
S3151FFFA84044485949086007E04048006800F068FE21
S3151FFFA85000F032F9544908605348006800F060FE63
S3151FFFA8600100002001F02BF8BDE8F1835E180020E0
S3151FFFA8706018002068180020641800206618002042
S3151FFFA8806C1800206A1800204C180020F4150020B1
S3151FFFA890C41500200AD7A33E1C1500207B142E3F8C
S3151FFFA8A0201500203333333F241500209A99993EF4
S3151FFFA8B028150020C4140020901800205A180020C5
S3151FFFA8C0B8150020000066C3E0140020841800207E
S3151FFFA8D08F18002000006643881800208918002063
S3151FFFA8E05C180020861800207811002062180020AF
S3151FFFA8F0D4150020D0150020C015002000150020FC
S3151FFFA90004150020081500200C1500201015002027
S3151FFFA91014150020181500202C15002030150020B7
S3151FFFA920CDCCCC3FC8150020E8140020EC15002025
S3151FFFA93000007A44F4140020F0150020F8140020BC
S3151FFFA940D8150020DC15002000A00B45E4140020BD
S3151FFFA950DC14002000703C45D4140020D8140020BE
S3151FFFA960D0140020CC140020C81400200100C843B7
S3151FFFA970F0140020EC1400200100AF4300E07540E7
S3151FFFA9800000AFC300E075C0441500203C15002032
S3151FFFA990401500200074A4406666E63F3333D33F5D
S3151FFFA9A004160020B4150020041400200074A4C050
S3151FFFA9B00000A0420000A04101703C454FF0807C83
S3151FFFA9C01CEB400F94BF1CEB410F05E040EA010C47
S3151FFFA9D05FEA4C0C01D28842704718BF814270470D
S3151FFFA9E0FF2212EAD05C1DBF12EAD1539445934250
S3151FFFA9F02BE09C44D30780EA01021A4043EA00205A
S3151FFFAA0043EA0121A1FB0030410038BF40007CF122
S3151FFFAA107F010BDBFE294ADA5B0842EAC15153EA83
S3151FFFAA20006373F1004C51EB10207047D1F1080CF6
S3151FFFAA30DCF120012FDB5B0810FA01F10B4373F1E9
S3151FFFAA40004120FA0CF05041704794451CBF02EAA3
S3151FFFAA50D153934280EA010202F000421DD040000B
S3151FFFAA6019D0490017D05BB9634514D00902B1FA53
S3151FFFAA7081F39940BCEB030CC00140F00040C1E7D6
S3151FFFAA800002B0FA80FC10FA0CF0B3EB0C0CC901F4
S3151FFFAA9041F00041B6E71000704740000AD0490059
S3151FFFAAA008D010F1807F94BF11F1807F02E042F042
S3151FFFAAB0FF407047D0437047002840F10980F44696
S3151FFFAAC0404200F005F850F000406047002800BFE5
S3151FFFAAD00AD0B0FA80F18840D1F19D01C90502065F
S3151FFFAAE072F1004241EB1020704750F8041B61B111
S3151FFFAAF050F8042BD30744BFA9F101039A1800236B
S3151FFFAB0042F8043B091FFAD1EFE770474FF0807CED
S3151FFFAB101CEB400F94BF1CEB410F05E040EA010CF5
S3151FFFAB205FEA4C0C01D28142704718BF88427047BB
S3151FFFAB3010B5FF2313EAD0541DBF13EAD1529C420F
S3151FFFAB409A4239E0A41ADA0780EA0103134042EA60
S3151FFFAB50012142EA0020421A3CBF641E01EB42025A
S3151FFFAB60090AB2FBF1FE01FB1E221202B2FBF1F034
S3151FFFAB7001FB10226EF30F201202B2FBF1FE4EEA0B
S3151FFFAB8000207F3406DDFE2C24DA53EA500050EBFB
S3151FFFAB90C45010BDD4F1020401FB1E2240F0807188
S3151FFFABA0192C1DDC21FA04F0C4F12004A140114326
S3151FFFABB071F10042584110BD9C421ABF03EAD152A0
S3151FFFABC09A420FE080EA010E0EF00043400004D0C8
S3151FFFABD0490016D143F0FF4010BD490008BFD343BC
S3151FFFABE0180010BD9C4205D1D21AF7D001F00041C3
S3151FFFABF0484010BD4A0212BF0846484000F00040B9
S3151FFFAC0010BD4AB90902B1FA81F2914044B1A418A5
S3151FFFAC10C00140F000409EE7C90141F0004152428A
S3151FFFAC200002B0FA80F4A040141B94E75FF0FF0CFC
S3151FFFAC301CEAD05114BF614506E0C110400721F041
S3151FFFAC40E04101F16051704779B900F00041000200
S3151FFFAC500AD0B0FA80FC00FA0CF001F16051A1EBAB
S3151FFFAC600C5101EBD0214005704741020CBF40F448
S3151FFFAC70E0016FF00001002070473000B0B581EA98
S3151FFFAC80030C0CF0004C40F2FF7515EA11541DBF63
S3151FFFAC9015EA1357AC42AF4239E0E41923EA45538D
S3151FFFACA043F48013C90241F0004141EA505EC702D7
S3151FFFACB01100A7FB020200284FF00000EEFB012048
S3151FFFACC04FF00001E3FB072118BF42F001024018B6
S3151FFFACD000214941E3FB0E01A4F580640F0302D255
S3151FFFACE052004041494154F101046CDD470872F19E
S3151FFFACF0004250F1000051EB0451A1F580115CBFDA
S3151FFFAD0041EA0C01B0BD4CEA05510020B0BD05EA72
S3151FFFAD101357AC4214BFAF4241E050EA410E1CBF6E
S3151FFFAD2052EA430E02E061460020B0BD24423C4476
S3151FFFAD301BD15FEA070EF6D0090302BF01460020AB
S3151FFFAD40AEF1140EB1FA81F7AEEB070401FA07FE57
S3151FFFAD500C37C7F1200100FA07F7C8404EEA000E6D
S3151FFFAD6023EA455343F48013A2E733F00043B3FAB4
S3151FFFAD7083F704BFB2FA82FE77440B3FE41BB7F19A
S3151FFFAD80200E2FBF02FA0EF3BB40C7F1200E22FA89
S3151FFFAD900EFE38BF43EA0E03BA40641C82E750EA31
S3151FFFADA0410E14BF52EA430E6FF000014FF4001716
S3151FFFADB017EB430F8ABF194617EB410FB5E74CEA4F
S3151FFFADC005510020B0BDD4F10104B4F120070FDAFD
S3151FFFADD0C4F12007520828BF42F0010210FA07F5F7
S3151FFFADE001FA07F7E1BF2A43E0403843E1400FE08E
S3151FFFADF0352C98DCC7F1200452EA400220FA07F2ED
S3151FFFAE0018BF42F0010231FA07F0A1400A430021A1
S3151FFFAE1072F1004250F1000051EB0C01B0BD000072
S3151FFFAE2070B44FF0004591EA030F44BF6B4000F02B
S3151FFFAE30EBB800BF841A71EB030604D26E40001BEA
S3151FFFAE40B141121973414FF4001C1CEB410F34BF64
S3151FFFAE507CEB430684E00C0DA4EB1356362E7DDCEC
S3151FFFAE60012E43DC45EAC32343EA525312BFD202E4
S3151FFFAE7092025B08240545EAC12141EA5051D2EBF4
S3151FFFAE80C020994125D407D1B0FA80F610FA06F1F2
S3151FFFAE9064D00020203608E0B1FA81F6B140C6F132
S3151FFFAEA0200220FA02F21143B0404FEAF474B4EBCA
S3151FFFAEB0465434F001064FEA74040AD8D6F5001635
S3151FFFAEC0760D04F00044F04061FA06F25040F1405F
S3151FFFAED04840C00A40EA415021F0004128BF5FEABF
S3151FFFAEE0500550F1000044EBD12137E045EAC3235B
S3151FFFAEF0DB0A45EAC121C90AB6F120050EDD42EA82
S3151FFFAF000242120CC5F1200603FA06F6EB4042EA8F
S3151FFFAF1006056D42984161F100010DE062FA06F5E3
S3151FFFAF20F240554063FA06FC82EA0C02F3405A4090
S3151FFFAF306D42904161EB030111F4801F05D1641E21
S3151FFFAF40620502D06D004041494121F4801143083B
S3151FFFAF5075F1004350F1000041EB045170BC70477F
S3151FFFAF601CEB410F15D223F0004352EA43060BD0C9
S3151FFFAF704FEA4C0CBCEB410F04D80C0D661E342E4A
S3151FFFAF80B7DDEBE7801A994150EA410608BF00215A
S3151FFFAF90E4E708BF1CEB430F28BF6FF00001DDE797
S3151FFFAFA083B5C1F30A5240F2FF7382B09A4208D0AB
S3151FFFAFB0002A04BF090350EA11300DD10C4905B011
S3151FFFAFC000BD090350EA11300DD1039800280AD599
S3151FFFAFD00020002105B000BD002000900022044B79
S3151FFFAFE002A801F0E9FEDDE9020105B000BD00BFC1
S3151FFFAFF00000F03F70B44FF0004591EA030C44BFC9
S3151FFFB0006B40FFF717BF00BF841A71EB030603D20E
S3151FFFB010001BB141121973414FF4001C1CEB410F6A
S3151FFFB02034BF7CEB430443E00C0DA4EB1356352EC4
S3151FFFB03050DC45EAC323DB0A45EAC121C912B6F133
S3151FFFB04020050DDD63FA05F6EB4086EA030512427E
S3151FFFB05018BF45F00105C01851F100010CD213E0CE
S3151FFFB06062FA06F5F2405540F3415A40B340F340AA
S3151FFFB0705A408018594107D349085FEA30005FEAF3
S3151FFFB080350528BF45F0010501F58011420875F109
S3151FFFB090004250F1000041EB045170BC4FF4001CFD
S3151FFFB0A01CEB410F38BF70470020090D090570477C
S3151FFFB0B01CEB410F10D252EA43060BD0BCEB410FDC
S3151FFFB0C005D80C0DAB43661E342EB5DD02E0AB4330
S3151FFFB0D08018594170BC704770BC7047F0B540F27D
S3151FFFB0E0FF7581EA030C0CF0004C15EA11541DBFC6
S3151FFFB0F015EA1357AC42AF42E5E0BC41C1F313015A
S3151FFFB100C3F31303801A994143F4801304D2641EB9
S3151FFFB1104000494180185941C90241EA5051B1FBCC
S3151FFFB120F3F603FB1611A2FB0675D7EBC020A94149
S3151FFFB13002D2761E80185941C90241EA5051B1FB0E
S3151FFFB140F3FE03FB1E11A2FB0E75D7EBC020A94111
S3151FFFB15003D2AEF1010E80185941890241EA90517F
S3151FFFB160760546EA8E2EB1FBF3F603FB1611A2FBFD
S3151FFFB1700675D7EB8020A94102D2761E801859414A
S3151FFFB180C90241EA50514EEA060EB1FBF3F603FB25
S3151FFFB1901611A2FB0675D7EBC020A94102D2761E58
S3151FFFB1A080185941C90241EA5051B1FBF3F703FB1E
S3151FFFB1B01711A2FB0735D3EBC020A94167F1000783
S3151FFFB1C00CBF004247F0010766F3D5274FEA1E3132
S3151FFFB1D0B80814F5806412DDBD0775F1004250EB08
S3151FFFB1E00E5051EB045111F5801F5CBF41EA0C0154
S3151FFFB1F0F0BD4CF07F6141F0E0410020F0BDBD077F
S3151FFFB2006D0840EA0E5041F48011D4F10104B4F1E8
S3151FFFB21020060ADAC4F120060200E04001FA06F30F
S3151FFFB220E1401843B24015430EE0342C13DCC6F140
S3151FFFB230200445EA40056D0820FA06F2154321FA58
S3151FFFB24006F0A1400D43002175F1004250F10000A9
S3151FFFB25051EB0C01F0BD00205FEA0C01F0BDCFB929
S3151FFFB26092185B41B3FA83F704BFB2FA82F6BF198E
S3151FFFB2700B3FB7F120062FBF02FA06F3BB40C7F1FC
S3151FFFB280200622FA06F638BF3343BA401CB1E4192B
S3151FFFB290641E33E77F4231F00041B1FA81F404BFE8
S3151FFFB2A0B0FA80F6A4190B3CB4F120062FBF00FAA3
S3151FFFB2B006F1A140C4F1200620FA06F638BF314336
S3151FFFB2C0A0403C1B1AE7AC421ABF05EA1357AF4211
S3151FFFB2D012E050EA41061CBF52EA4306BFE750EA97
S3151FFFB2E04107304661461CBF41EA0551F0BD52EA90
S3151FFFB2F0430C08BFC143F0BD00204FF4001616EBE9
S3151FFFB300410F98BF16EB430F08BF16EB410F24BF24
S3151FFFB310C14305E016EB430F0CBF61464CEA0551CF
S3151FFFB320F0BD00004FEAF17CBCF1E04C2CBFBCF531
S3151FFFB330001F11E05FEA4C0C34BFBCF17F5F2EE0AC
S3151FFFB3405FEA9C0C4FEA0C1C4FEA3C0CC10071F1E3
S3151FFFB35000414CEB50707047C90241EA5051C00281
S3151FFFB36018BF41F0010141F000414FEA6C50C0F197
S3151FFFB3700900212810D240EACC7CCCF1200C11FA0F
S3151FFFB3800CF070F10040CCF1200C21FA0CF00CF000
S3151FFFB390004C40EB0C0070474FEACC7070474900DA
S3151FFFB3A011F5001F04D84FEACC10FF30C0057047B8
S3151FFFB3B0C817704790EA010F44BF81F0004100F0A4
S3151FFFB3C043B800BF421A3CBF801A89184FF0004C82
S3151FFFB3D0C0F3C752FF2A24D0C1F3C75313B3D21AE0
S3151FFFB3E0D2F1190327DD4CEA01214CFA03F321EAB7
S3151FFFB3F00303D140C20D4CEA0020401834BF20EA98
S3151FFFB4000C004CEA5000D20553EA006373EB0C0C99
S3151FFFB41052EB1020420012F1807F38BF7047C00DDC
S3151FFFB420C0057047490212BF9A4200EB5120F8E749
S3151FFFB430D2F11703D9D5704790EA010F44BF81F0A8
S3151FFFB4400041FFF7BFBF00BF431A4FF000423EBF89
S3151FFFB4505340C01AC91800BFD3095FEAD05C13EB6C
S3151FFFB460400F34BFB3EB410F40E07CEBD1530CD3FE
S3151FFFB47042EA012122D8D1EB402009D3400A28BF37
S3151FFFB4805FEA500140EBCC507047401A15D040027F
S3151FFFB490B0FA80F2521C9040400A4FEA3C23B3EBAE
S3151FFFB4A0026384BF00EB730007E040F400001A1627
S3151FFFB4B0DB07C2F10102D04018437047182BFCDC93
S3151FFFB4C031FA03F202FA03F3591A38BF42F00102A7
S3151FFFB4D0D2EB40203CBF4000ACF1010C5FEACC5CD5
S3151FFFB4E0C20572F100414CEB5020704713EB400F22
S3151FFFB4F00FD24B0009D0ACEBD153022B03DB490212
S3151FFFB500172BDDDD70479143401A4300D5D100202D
S3151FFFB510704713EB410FD0D36FF000007047000049
S3151FFFB5204100090E7F3915D4D1F11F0114D44000F4
S3151FFFB53007D2C00140F00040C84048BF6FF000402F
S3151FFFB5407047C00140F00040C8404CBF4FF000405D
S3151FFFB550404270470020704700424FF0004058BFDF
S3151FFFB560C043704710B4DFF88C1309684FF47A7223
S3151FFFB5705143814201D200207BE0802202FB00F271
S3151FFFB580B1FBF2F34FF6FF72934271D20722DFF838
S3151FFFB59068432360402303FB00F3B1FBF3F34FF62E
S3151FFFB5A0FF74A34244D20622DFF84C4323604301B4
S3151FFFB5B0B1FBF3F34FF6FF74A34239D20522DFF82F
S3151FFFB5C0384323600301B1FBF3F34FF6FF74A34226
S3151FFFB5D02ED20422DFF820432360C300B1FBF3F30F
S3151FFFB5E04FF6FF74A34223D20322DFF80C432360D7
S3151FFFB5F08300B1FBF3F34FF6FF74A34218D2022267
S3151FFFB600DFF8F44223604300B1FBF3F34FF6FF74F9
S3151FFFB610A3420DD20122DFF8E0422360B1FBF0F314
S3151FFFB6204FF6FF70834203D20022DFF8CC0203607E
S3151FFFB630DFF8C802006850F08070DFF8C01208609C
S3151FFFB640D2B212F0070050F00800DFF8B4120860FC
S3151FFFB6500020DFF8B01208600020DFF8AC12086088
S3151FFFB660DFF894020068DFF8A4120860012000E0EB
S3151FFFB670002010BC704781B0C92901D3002030E0DC
S3151FFFB680DFF8742212680092009A521C5143C82297
S3151FFFB690B1FBF2F1C0B20200002A032A03D9121F1F
S3151FFFB6A0032A20D92FE0DFF86822126852F40062BE
S3151FFFB6B0DFF85C321A604FF48062C0B2830003F179
S3151FFFB6C0804313F596235A602822C0B2DFF844320F
S3151FFFB6D043F83020C0B2DFF83C2212EBC0004160B6
S3151FFFB6E0012001B07047DFF82822126852F48052FA
S3151FFFB6F0DFF81C321A604FF48062C0B2DFF81832CF
S3151FFFB70043F82020E0E70020EBE781B0C92901D3EA
S3151FFFB710002010E0DFF8E02112680092009A521C09
S3151FFFB7205143C822B1FBF2F1C0B2DFF8E82112EB99
S3151FFFB730C0004160012001B0704710B4DFF8B4119B
S3151FFFB74009684FF47A725143814201D200207BE090
S3151FFFB750802202FB00F2B1FBF2F34FF6FF72934218
S3151FFFB76071D20722DFF8B4412360402303FB00F3A6
S3151FFFB770B1FBF3F34FF6FF74A34244D20622DFF861
S3151FFFB7809C4123604301B1FBF3F34FF6FF74A342C2
S3151FFFB79039D20522DFF8844123600301B1FBF3F39E
S3151FFFB7A04FF6FF74A3422ED20422DFF870412360A7
S3151FFFB7B0C300B1FBF3F34FF6FF74A34223D2032259
S3151FFFB7C0DFF8584123608300B1FBF3F34FF6FF7495
S3151FFFB7D0A34218D20222DFF8444123604300B1FB84
S3151FFFB7E0F3F34FF6FF74A3420DD20122DFF82C416C
S3151FFFB7F02360B1FBF0F34FF6FF70834203D20022A3
S3151FFFB800DFF818010360DFF8F400006850F00070DE
S3151FFFB810DFF8E8100860D2B212F0070050F00800F8
S3151FFFB820DFF8FC1008600020DFF8F8100860002022
S3151FFFB830DFF8F4100860DFF8E4000068DFF8EC10AB
S3151FFFB8400860012000E0002010BC704781B049F658
S3151FFFB8504142914201D300202FE0DFF8C02012683A
S3151FFFB8600092009A521C514349F64042B1FBF2F136
S3151FFFB870C0B20200002A012A1ED8DFF894201268E0
S3151FFFB88052F40072DFF888301A604FF44072C0B26C
S3151FFFB890830003F1804313F592231A622822C0B255
S3151FFFB8A0DFF88C3043F83020C0B2DFF8842012EB6C
S3151FFFB8B0C0004160012000E0002001B0704781B049
S3151FFFB8C049F64142914201D3002011E0DFF84C2097
S3151FFFB8D012680092009A521C514349F64042B1FB2F
S3151FFFB8E0F2F1C0B2DFF8482012EBC0004160012021
S3151FFFB8F001B0704748180020681600203C8004409E
S3151FFFB90000800340048003404C80034008800340AF
S3151FFFB910388004400C80034000C004406C16002092
S3151FFFB92000900340049003404C900340089003404F
S3151FFFB9300C9003402DE9F8430D0016001F00C0B2FF
S3151FFFB9404C4951F82080C0B24B4951F82090C0B2E4
S3151FFFB950052803DB6321494801F080FBEDB2202D4B
S3151FFFB96003DB6421454801F079FBF6B2022E03DBA8
S3151FFFB9706521424801F072FBFFB2022F03DB6621EE
S3151FFFB9803E4801F06BFB089CE4B20D2C03DB6721DD
S3151FFFB9903A4801F063FB4FF48070EDB249F825007A
S3151FFFB9A0F6B2012E13D1D8F814000121A94008437E
S3151FFFB9B0C8F81400FFB2012F04D10120A840C8F810
S3151FFFB9C0040036E00120A840C8F8080031E0D8F887
S3151FFFB9D014000121A9408843C8F81400EDB259F895
S3151FFFB9E02500E4B2210411F470210843EDB249F892
S3151FFFB9F02500FFB2012F08D1EDB259F8250050F0EF
S3151FFFBA000300EDB249F8250013E0FFB2002F08D15E
S3151FFFBA10EDB259F8250050F00200EDB249F82500A6
S3151FFFBA2007E0EDB259F8250030F00200EDB249F8F4
S3151FFFBA3025000120BDE8F283D2B2002A08D10122D8
S3151FFFBA4012FA01F1C0B20B4A52F82000816007E0DB
S3151FFFBA50012212FA01F1C0B2064A52F820004160D4
S3151FFFBA607047C0B2034A52F820000069C84010F061
S3151FFFBA70010070478414002098140020A80B002093
S3151FFFBA802DE9F14D83B00C4603980194C0F3C750BF
S3151FFFBA901546FF2808D10398002740020CBF4FF019
S3151FFFBAA001084FF0020813E0012807DA03A801F087
S3151FFFBAB0E9FA012802DB0027B84609E0039921F0BE
S3151FFFBAC0FF4141F07C510391A0F17E074FF0FF38F4
S3151FFFBAD0002101A801F0E9FA06460DB100202880D2
S3151FFFBAE026B92046002101F009FB12D0B8F1000F3D
S3151FFFBAF012D53FB2012F14D103984FF07C5101F09D
S3151FFFBB00FDFA06D0012E0CD14FF03F4101F0F6FA98
S3151FFFBB102ED14FF07E500DE1B8F1020F03D10398DE
S3151FFFBB2008E1012E53DB022E08BF204600F00281DB
S3151FFFBB30B8F1010F1AD10398002802D4002C43D560
S3151FFFBB402FE0002C09D4002E3ED14FF0FF3101A864
S3151FFFBB5001F0ABFA002837D534E016BB4FF0FF31A3
S3151FFFBB6001A801F0A2FA00281BD517E0012E08D164
S3151FFFBB703FB2002C02D4012F26DA12E0012F10DA72
S3151FFFBB8022E0002C0FD466B94FF0FF3101A801F058
S3151FFFBB908CFA002844BF0398002802D54FF00040B7
S3151FFFBBA0C8E00020C6E001F0B7FA222101605EB9A6
S3151FFFBBB04FF0FF3101A801F078FA002844BF039820
S3151FFFBBC0002801D54F48B5E04FF0FF40B2E003987C
S3151FFFBBD0002848BF002E06D501F09EFA21210160DD
S3151FFFBBE06FF00040A6E00021FEF790FF38BF00264A
S3151FFFBBF008D380F0004003904FF0FF3101A801F0FA
S3151FFFBC0054FA064603984049FEF7D8FE06D2014668
S3151FFFBC104FF08040FEF7E4FE03907F1E03993B48DB
S3151FFFBC20FFF7C8FB039983464FF07E50FFF7C2FB12
S3151FFFBC3001465846FEF77CFF80464146FEF7D0FE7B
S3151FFFBC408246CDF80CB001F06DFA01465046FEF75D
S3151FFFBC50C7FE0399FFF7F0FB4146FEF7C1FE0146FC
S3151FFFBC600398FFF7A7FB804638B2FEF725FF074667
S3151FFFBC7040462749FEF75CFF3946FFF79BFB0190BE
S3151FFFBC802146FEF7ADFE4FF04741FEF797FE0090A8
S3151FFFBC9042D32049FEF73AFF40D90021FEF78EFE19
S3151FFFBCA0014634BF4FF03F404FF07C50FFF782FBFA
S3151FFFBCB0FFF736FC824638462146FEF791FE0746BA
S3151FFFBCC05046FEF7F9FE01463846FFF7B5FB10490A
S3151FFFBCD0FEF786FE074640462146FEF781FE39469A
S3151FFFBCE0FFF768FB00901DB1A5F800A04FF0000AF3
S3151FFFBCF052464FF07E5100A801F02CFA60B1012881
S3151FFFBD000CD012E0000080FFF304353F000080BF18
S3151FFFBD101872313F01000047002001E04FF0FF403E
S3151FFFBD20009001F0F9F922210160002E009818BF3B
S3151FFFBD3080F0004004B0BDE8F08D0022A0E60000B1
S3151FFFBD404FF4001C1CEB410F94BF1CEB430F09E084
S3151FFFBD5041EA030C50EA4C0C52EA0C0C03D29942EF
S3151FFFBD6008BF9042704714BF8B4282427047000044
S3151FFFBD70010040F10980F446404200F005F851F0FA
S3151FFFBD8000416047010000BF09D0B0FA80F188402B
S3151FFFBD90C91CC1F58461090501EBD0214005704718
S3151FFFBDA0F446400D40EAC120490006D200F00EF8C6
S3151FFFBDB0004248BF6FF00040604700F007F84FF0A2
S3151FFFBDC0004188428CBF08464042604740F0004012
S3151FFFBDD0490DA1F58061491C05D4D1F11F0154BF3F
S3151FFFBDE0C840C01770474FF0000070474FF4001C44
S3151FFFBDF01CEB410F94BF1CEB430F09E041EA030CF9
S3151FFFBE0050EA4C0C52EA0C0C03D28B4208BF8242FB
S3151FFFBE10704714BF99429042704700000821DFF810
S3151FFFBE20702B126852F40002DFF8643B1A6000BFE2
S3151FFFBE30DFF85C2B126832F48012DFF8543B1A606E
S3151FFFBE4000BF19E0DFF8482B126832F40012DFF843
S3151FFFBE50403B1A60DFF8382B126852F48012DFF866
S3151FFFBE60303B1A6000BFDFF8282B126832F48012AE
S3151FFFBE70DFF81C3B1A6040000A00511ED2B2002A8F
S3151FFFBE800AD00206DED5DFF8082B126852F400121D
S3151FFFBE90DFF8FC3A1A60DDE7704700000821DFF87C
S3151FFFBEA0F02A126852F40002DFF8E43A1A6000BF64
S3151FFFBEB0DFF8DC2A126832F48012DFF8D43A1A60F0
S3151FFFBEC000BF19E0DFF8C82A126852F40012DFF824
S3151FFFBED0C03A1A60DFF8B82A126852F48012DFF8E8
S3151FFFBEE0B03A1A6000BFDFF8A82A126832F4801230
S3151FFFBEF0DFF89C3A1A6040000A00511ED2B2002A90
S3151FFFBF000AD00206DED5DFF8882A126832F400123D
S3151FFFBF10DFF87C3A1A60DDE7704700000821DFF87B
S3151FFFBF20702A126832F40002DFF8643A1A60DFF8EB
S3151FFFBF30602A126832F48012DFF8543A1A6019E049
S3151FFFBF40DFF84C2A126832F40012DFF8443A1A60FF
S3151FFFBF50DFF83C2A126852F48012DFF8343A1A606F
S3151FFFBF6000BFDFF82C2A126832F48012DFF8203A5E
S3151FFFBF701A6040000A00511ED2B2002A0AD00206DA
S3151FFFBF80DED5DFF80C2A126852F40012DFF8003AEA
S3151FFFBF901A60DDE7704710B50400B1F15000C0B25B
S3151FFFBFA0FFF7BCFFE4B2200950F01000C0B2FFF745
S3151FFFBFB0B5FF14F00F0050F00100C0B2FFF7AEFF40
S3151FFFBFC010BD70B50400002508E02000C0B2FFF7C2
S3151FFFBFD025FF761CF6B2802EF7DB6D1CEDB2082D02
S3151FFFBFE00CDAB5F15000C0B2FFF798FF0120FFF73B
S3151FFFBFF095FF1020FFF792FF0026EBE770BD07E0C6
S3151FFFC00043F226410A00511E92B2002AFAD1401E60
S3151FFFC01080B20028F4D1704780B54FF48070DFF8E7
S3151FFFC020881908604FF48070DFF8801908604FF495
S3151FFFC0308070DFF87C1908604FF48070DFF8741981
S3151FFFC04008605FF47000DFF870190860DFF84009B9
S3151FFFC050006850F48010DFF838190860DFF83009E0
S3151FFFC060006830F48000DFF8281908603220FFF7D8
S3151FFFC070C6FFDFF81C09006850F48000DFF81019AF
S3151FFFC0800860AE20FFF74AFF0020FFF747FF10208B
S3151FFFC090FFF744FF4020FFF741FF8120FFF73EFFD9
S3151FFFC0A0CF20FFF73BFFA120FFF738FFC820FFF781
S3151FFFC0B035FFA620FFF732FFA820FFF72FFF3F20F0
S3151FFFC0C0FFF72CFFD320FFF729FF0020FFF726FFDF
S3151FFFC0D0D520FFF723FF8020FFF720FFD920FFF78B
S3151FFFC0E01DFFF120FFF71AFFDA20FFF717FF1220B8
S3151FFFC0F0FFF714FFDB20FFF711FF4020FFF70EFFAF
S3151FFFC1002020FFF70BFF0220FFF708FF8D20FFF709
S3151FFFC11005FF1420FFF702FFA420FFF7FFFEA6204F
S3151FFFC120FFF7FCFEAF20FFF7F9FE0020FFF749FFE1
S3151FFFC13000210020FFF72FFFFF20FFF742FF002000
S3151FFFC140FFF73FFF01BD10B50122C9B2082391FBBF
S3151FFFC150F3F404FB131412FA04F4C9B2C908C0B2EC
S3151FFFC160FFF719FF2000C0B2FFF758FE10BD2DE9DC
S3151FFFC170F84304000D00160000275FF000085FF06C
S3151FFFC180000915E05FFA88F8FFB20620DFF8901B5B
S3151FFFC19000FB071018F80000FFF740FE18F1010813
S3151FFFC1A05FFA88F8B8F1060FECDBA41D19F1010938
S3151FFFC1B05FFA89F919F80600002813D05FFA89F983
S3151FFFC1C019F80600B0F12007E4B27F2C01DB00242B
S3151FFFC1D06D1C2900C9B22000C0B2FFF7DCFE5FF05D
S3151FFFC1E00008DDE7BDE8F1832DE9F84304000D00E4
S3151FFFC1F0160000275FF000085FF0000915E05FFAE1
S3151FFFC20088F8FFB20620DFF8181B00FB071018F887
S3151FFFC2100000FFF743FE18F101085FFA88F8B8F12F
S3151FFFC220060FECDBA41D19F101095FFA89F919F84D
S3151FFFC2300600002813D05FFA89F919F80600B0F136
S3151FFFC2402007E4B27F2C01DB00246D1C2900C9B235
S3151FFFC2502000C0B2FFF79FFE5FF00008DDE7BDE8D5
S3151FFFC260F1832DE9F84306000C0015005FF0000966
S3151FFFC27000275FF001080BE00020FFF7CFFD19F144
S3151FFFC28001095FFA89F9B9F10C0FF5DB0C36BF1CF3
S3151FFFC290FFB2785D002800F08B805FF000095FF02A
S3151FFFC2A0010801E019F102095FFA89F9DFF8740A3B
S3151FFFC2B019F8000080281ADB5FFA89F9DFF8640A8C
S3151FFFC2C019F80000FFB2795D8842EBD15FFA89F951
S3151FFFC2D0DFF8500A19EB00004078FFB27919497849
S3151FFFC2E08842DFD15FFA89F90C2019FB00F8F6B2F5
S3151FFFC2F0772E01DB0026641C2100C9B23000C0B2B5
S3151FFFC300FFF749FE1FFA88F8B8F1010F33D0210056
S3151FFFC310C9B23000C0B2FFF73EFE5FF000090BE067
S3151FFFC3201FFA88F8DFF8000A18F80000FFF776FDF6
S3151FFFC33018F1010819F101095FFA89F9B9F10C0F13
S3151FFFC340EEDB611CC9B23000C0B2FFF724FE5FF0FF
S3151FFFC35000095FFA89F9B9F10C0F97DA1FFA88F806
S3151FFFC360DFF8C40918F80000FFF758FD18F1010898
S3151FFFC37019F10109EDE77F1C2100C9B23000C0B2D8
S3151FFFC380FFF709FE5FF0000904E00020FFF746FDF7
S3151FFFC39019F101095FFA89F9B9F10C0FF5DB611C78
S3151FFFC3A0C9B23000C0B2FFF7F6FD5FF0000968E7BC
S3151FFFC3B0BDE8F183F8B504000D001600002714E051
S3151FFFC3C0FFB2B85D8DF80000FFB2B81940788DF83F
S3151FFFC3D0010000208DF8020000AA2900C9B2200023
S3151FFFC3E0C0B2FFF73EFF0C34BF1CFFB2B85D00287B
S3151FFFC3F014D0FFB2B85D8028E2DAFFB2B85D8DF8C0
S3151FFFC400000000208DF8010000AA2900C9B22000F4
S3151FFFC410C0B2FFF7ACFEA41D7F1CE6E7F1BDF8B562
S3151FFFC42004000D001600002714E0FFB2B85D8DF85B
S3151FFFC4300000FFB2B81940788DF8010000208DF873
S3151FFFC440020000AA2900C9B22000C0B2FFF709FFE8
S3151FFFC4500C34BF1CFFB2B85D002814D0FFB2B85D05
S3151FFFC4608028E2DAFFB2B85D8DF8000000208DF854
S3151FFFC470010000AA2900C9B22000C0B2FFF7B4FE0F
S3151FFFC480A41D7F1CE6E7F1BD7FB504000D00160056
S3151FFFC490DFF898080088ADF8000001A8DFF89018AC
S3151FFFC4A00B2200F063FF0A2096FBF0F100FB1160E1
S3151FFFC4B001A9405C8DF8000000AA2900C9B220001F
S3151FFFC4C0C0B2FFF754FE7FBD7FB504000D001600F7
S3151FFFC4D000A8DFF86018032200F048FF01A8DFF865
S3151FFFC4E058180B2200F042FF642096FBF0F100FB69
S3151FFFC4F011600A2190FBF1F00A2196FBF1F201FB75
S3151FFFC500126101AA805C8DF8000001A8085C8DF8F6
S3151FFFC510010000AA2900C9B22000C0B2FFF727FEFB
S3151FFFC5207FBD7FB504000D00160000A8DFF80C18AD
S3151FFFC5300A68026001A8DFF808180B2200F016FF31
S3151FFFC5404FF47A7096FBF0F100FB1160642190FBAC
S3151FFFC550F1F0642196FBF1F201FB12610A2291FBB6
S3151FFFC560F2F10A2296FBF2F302FB136201ABC05CE8
S3151FFFC5708DF8000001A8085C8DF8010001A8105C6A
S3151FFFC5808DF8020000AA2900C9B22000C0B2FFF72A
S3151FFFC590EEFD7FBDF0B585B004000D00160000A8A7
S3151FFFC5A0DFF8A017052200F0E1FE02A8DFF89817B3
S3151FFFC5B00B2200F0DBFE42F2107096FBF0F100FB40
S3151FFFC5C011604FF47A7190FBF1F04FF47A7196FB7D
S3151FFFC5D0F1F201FB1261642291FBF2F1642296FBD9
S3151FFFC5E0F2F302FB13620A2392FBF3F20A2396FB73
S3151FFFC5F0F3F703FB176302AE805D8DF8000002A8F9
S3151FFFC600085C8DF8010002A8105C8DF8020002A8D5
S3151FFFC610185C8DF8030000AA2900C9B22000C0B21A
S3151FFFC620FFF7A5FD05B0F0BDF8B504000D00160018
S3151FFFC6303000FEF775FF0700B7F10A005A2824D20C
S3151FFFC6403A002900C9B22000C0B2FFF73DFF37A24B
S3151FFFC6502900C9B214F10C00C0B2FFF788FD3800DC
S3151FFFC660FEF72AFA01003000FEF7E6FEDFF8DC16BA
S3151FFFC670FEF7B6F9FEF754FF02002900C9B214F1FF
S3151FFFC6801200C0B2FFF720FF4EE0B7F16400B0F50E
S3151FFFC690617F24D23A002900C9B22000C0B2FFF73A
S3151FFFC6A040FF22A22900C9B214F11200C0B2FFF740
S3151FFFC6B05EFD3800FEF700FA01003000FEF7BCFEF4
S3151FFFC6C0DFF88C16FEF78CF9FEF72AFF020029000A
S3151FFFC6D0C9B214F11800C0B2FFF7D6FE24E00A2F25
S3151FFFC6E022DA3A002900C9B22000C0B2FFF7CCFEFA
S3151FFFC6F00EA22900C9B2A01DC0B2FFF738FD380030
S3151FFFC700FEF7DAF901003000FEF796FEDFF8441652
S3151FFFC710FEF766F9FEF704FF02002900C9B214F1FE
S3151FFFC7200C00C0B2FFF7FDFEF1BD00002E0000009A
S3151FFFC73080B5DFF824060088002805D193A20021C3
S3151FFFC7400020FFF76CFE04E090A200210020FFF7F8
S3151FFFC75031FEDFF808060068DFF8F015FEF7E8F987
S3151FFFC760020000211420FFF75FFFDFF8EC050088AA
S3151FFFC770012805D187A201210020FFF750FE04E003
S3151FFFC78084A201210020FFF715FEDFF8D4050068FC
S3151FFFC790DFF8B815FEF7CCF9020001211420FFF7C9
S3151FFFC7A043FFDFF8B4050088022805D17AA20221CC
S3151FFFC7B00020FFF734FE04E077A202210020FFF7D7
S3151FFFC7C0F9FDDFF8A0050068DFF88015FEF7B0F961
S3151FFFC7D0020002211420FFF727FFDFF87C050088E0
S3151FFFC7E0032805D16DA200214120FFF718FE04E0A3
S3151FFFC7F06AA200214120FFF7DDFDDFF86C05026805
S3151FFFC80000215520FFF710FFDFF84C05008804288D
S3151FFFC81005D163A201214120FFF701FE04E060A2BB
S3151FFFC82001214120FFF7C6FDDFF840050268012100
S3151FFFC8305520FFF7F9FEDFF820050088052805D1EB
S3151FFFC84058A202214120FFF7EAFD04E055A202216B
S3151FFFC8504120FFF7AFFDDFF818050068DFF8EC147E
S3151FFFC860FEF766F9020002215520FFF7DDFEDFF80E
S3151FFFC870E8040088062806D1DFF8F82403210020E4
S3151FFFC880FFF7CDFD05E0DFF8EC2403210020FFF7BE
S3151FFFC89091FDDFF8E4040068DFF8B814FEF748F9E6
S3151FFFC8A0020003213220FFF7BFFEDFF8AC0400882A
S3151FFFC8B0072806D1DFF8C42404210020FFF7AFFDA8
S3151FFFC8C005E0DFF8B82404210020FFF773FDDFF82A
S3151FFFC8D0B004026804211E20FFF723FEDFF8780449
S3151FFFC8E00088082806D1DFF89C2404213C20FFF787
S3151FFFC8F096FD05E0DFF88C2404213C20FFF75AFD47
S3151FFFC900DFF88404026804215020FFF70AFEDFF8D0
S3151FFFC91048040088092806D1DFF870240521002066
S3151FFFC920FFF77DFD05E0DFF8642405210020FFF7F3
S3151FFFC93041FDDFF85C04026805212420FFF7F1FDA6
S3151FFFC940DFF8140400880A2806D1DFF848240621D9
S3151FFFC9500020FFF764FD05E0DFF8382406210020DD
S3151FFFC960FFF728FDDFF8F0038088012806D1DFF8DF
S3151FFFC970282406214620FFF71DFD05E0DFF81C24AE
S3151FFFC98006214620FFF716FD01BD0000503A0000A5
S3151FFFC99040F00F40493A0000443A0000703A000049
S3151FFFC9A0643A0000563A000050A0044054A00440C9
S3151FFFC9B058A004405CA0044054F00F4080B50020EF
S3151FFFC9C000F061FD00210420FEF79FFE00210520D8
S3151FFFC9D0FEF79BFE00210620FEF797FE002107208C
S3151FFFC9E0FEF793FE0020DFF8B8130880032103200C
S3151FFFC9F0FFF737F8002806D1DFF8A8030088401C89
S3151FFFCA00DFF8A013088003210320FFF72AF8012868
S3151FFFCA1040F09A80DFF88C0300880B28C0F29480C1
S3151FFFCA200020DFF880130880DFF82C038088012899
S3151FFFCA307DD1DFF824030088002809D1DFF81C0306
S3151FFFCA400168DFF80C03FEF7B5FCDFF8101308606B
S3151FFFCA50DFF804030088012809D1DFF80403016802
S3151FFFCA605FF07E50FEF7A6FCDFF8F4120860DFF8D2
S3151FFFCA70E8020088022809D1DFF8E80201685FF0A3
S3151FFFCA807E50FEF797FCDFF8DC120860B24800887D
S3151FFFCA90032807D1B44801685FF07E50FEF78AFC72
S3151FFFCAA0B1490860AC480088042807D1AF48016820
S3151FFFCAB05FF07E50FEF77EFCAC490860A6480088F3
S3151FFFCAC0052807D1AA4801685FF07E50FEF772FC62
S3151FFFCAD0A7490860A0480088062806D1A64801680E
S3151FFFCAE09C48FEF767FCA44908609B4800880728F7
S3151FFFCAF004D1A3480068401DA149086096480088D5
S3151FFFCB00082804D1A0480068401D9F490860924825
S3151FFFCB100088092818D19E480068994909688842E4
S3151FFFCB2012DA9B480068401D994908600CE08A4845
S3151FFFCB300088002805D088480088401E864908803F
S3151FFFCB4002E000208449088002210320FEF789FFA7
S3151FFFCB50002804D193484088401C924948800221EF
S3151FFFCB600320FEF77EFF012840F085808D48408811
S3151FFFCB700B28C0F2808000208A494880764880882B
S3151FFFCB8001286CD174480088002806D173480168B4
S3151FFFCB908548FEF70FFC714908606F48008801281A
S3151FFFCBA006D16F4801688148FEF704FC6C4908608F
S3151FFFCBB069480088022806D16A4801687B48FEF744
S3151FFFCBC0F9FB6849086064480088032806D1664850
S3151FFFCBD001687648FEF7EEFB634908605E480088EA
S3151FFFCBE0042806D1614801687048FEF7E3FB5F49D9
S3151FFFCBF0086059480088052806D15D4801686B48BB
S3151FFFCC00FEF7D8FB5A49086053480088062806D105
S3151FFFCC10594801686648FEF7CDFB574908604E48DD
S3151FFFCC200088072804D156480068401F54490860EA
S3151FFFCC3049480088082804D153480068401F5249B5
S3151FFFCC40086045480088092815D15148006865289E
S3151FFFCC5011DB4F480068401F4D4908600BE03E48F7
S3151FFFCC600088401C3C4908803B4800880B2802DB94
S3151FFFCC700A203949088001210320FEF7F2FE00280A
S3151FFFCC8004D148488088401C4649888001210320DB
S3151FFFCC90FEF7E7FE012816D1424880880B2812DBD4
S3151FFFCCA00020404988802C4800880A2801D100F0BF
S3151FFFCCB069FC29488088002801D1012000E0002057
S3151FFFCCC0C0B22549888000210320FEF7CAFE00282F
S3151FFFCCD004D13448C088401C3249C8800021032034
S3151FFFCCE0FEF7BFFE012816D12E48C0880B2812DB80
S3151FFFCCF000202C49C880184800880A2801D100F057
S3151FFFCD0097FC15488088002801D1012000E00020EC
S3151FFFCD10C0B2114988802749002000F0A9FB01BD39
S3151FFFCD2038050020580E00202C0900207AACFF1F63
S3151FFFCD3030110020201200203C1100202412002059
S3151FFFCD404811002098110020541100200000C842EE
S3151FFFCD500000204100007A4494160020E0150020B1
S3151FFFCD60E4150020E8150020EC150020F015002023
S3151FFFCD70F8150020A0110020F4150020A81100208F
S3151FFFCD80FC150020B011002000160020B81100204E
S3151FFFCD907415002060110020C0110020C81100204B
S3151FFFCDA04C1800208C160020000020C1000080BFF9
S3151FFFCDB000007AC43BF7FF1F2DE9F04D804684B074
S3151FFFCDC0D8E9000114461D4600F0E6FD074620463A
S3151FFFCDD0294600F0E1FD0C9E390006D500284AD4EE
S3151FFFCDE0022805D1C8E9004535E1022FF8D121E018
S3151FFFCDF050B9D8E900010022514B00F0E7FD0FD0D3
S3151FFFCE00C8E90045002026E1012815D1D8E9000110
S3151FFFCE1000224C4B00F0DAFD18BFC8E900454FD181
S3151FFFCE2000F07AF9212101604FF0FF306FF00041CA
S3151FFFCE30C8E9000102200EE17FB9C8E90045314666
S3151FFFCE40404600F0D3FD040018BF012C40F00281BD
S3151FFFCE5000F062F922210160FCE0D8E900010022FF
S3151FFFCE60374B00F0B3FD0FD120462946FDF706FFCE
S3151FFFCE70C8E9000124E0D8E90001CDE9020100223B
S3151FFFCE80314BFEF75DFF0AD2002320462946FDF7E9
S3151FFFCE90F5FEC8E9000104B00020BDE8F08D0122B0
S3151FFFCEA02A4BFEF7A3FF0DD80022254B2046294606
S3151FFFCEB0FDF7E4FEC8E9000100F02EF9222101600B
S3151FFFCEC00120C8E0224A234BFDF7D8FE002200238C
S3151FFFCED0FEF736FF34BF204B464BFEF78BF8FEF7A8
S3151FFFCEE05FFF0746FEF744FF82468B464FF07842A9
S3151FFFCEF01A4BFDF7C3FE02460B46DDE90201FDF79E
S3151FFFCF008FFFCDE90001164A164B50465946FDF7CE
S3151FFFCF10B5FE02460B46DDE90001FDF781FF6FF007
S3151FFFCF200102114BFEF762FF82468B4620D8002275
S3151FFFCF300E4BFEF705FF1BD2204629467CE000BF9E
S3151FFFCF400000F07F0000F0FF00C89CC000C89C4097
S3151FFFCF50FE822B654715F73F0000E0BF422EE63FD7
S3151FFFCF60F2E4D5BCE7E84B3EFFFF8FBC0000903CC9
S3151FFFCF7052465B46FDF782FECDE90001DDE9002340
S3151FFFCF801D481E49FDF77AFE1D4A1E4BFEF732F856
S3151FFFCF90DDE90023FDF772FECDE90201DDE900237E
S3151FFFCFA019481A49FDF76AFE194A1A4BFEF722F866
S3151FFFCFB0DDE90023FDF762FE0E4B0022FEF71AF88E
S3151FFFCFC052465B46FDF75AFEDDE9022382468B4634
S3151FFFCFD0FEF710F80022104BFEF70CF8CDE9000103
S3151FFFCFE05246DDE902015B46FDF71AFF00220A4B97
S3151FFFCFF014E000BF0000E03F112E5781A03F503FB6
S3151FFFD0005843128C8F71BC3F4BE8A541B752013F66
S3151FFFD0100BBDF3DAE8708C3F0000F03FFDF7EAFF28
S3151FFFD02002460B46DDE90001FEF758F802460B469E
S3151FFFD03020462946FDF722FEC8E90001F1194046A1
S3151FFFD04000F0D4FC040018BF012C03D100F064F8D4
S3151FFFD05022210160204604B0BDE8F08D80B50A008D
S3151FFFD0600100064800F0A0FF054800E0401E00280B
S3151FFFD070FCD103480028F7D0401EFBE72C0D0020EC
S3151FFFD080A0860100026802F0004301215202520AE4
S3151FFFD09002D106E05200491E5FEA022CFAD5520260
S3151FFFD0A0520A1A430260084670470268C2F3C75204
S3151FFFD0B0FF2A06D10068400201D1012070470220D6
S3151FFFD0C0704703685B0016D0C2F19602521A012AF7
S3151FFFD0D011DB182A04DB016801F00041016007E03C
S3151FFFD0E0012191400268491E11404A40026011B159
S3151FFFD0F04FF0FF30704700207047000040EA010CD9
S3151FFFD1005FEA4C0C07D0884205D14FEA400C1CF151
S3151FFFD110807F98BF80427047014800F057BF0000CD
S3151FFFD1209418002010B5044607482146FDF758FC02
S3151FFFD1300649FEF73FF92146FDF752FCBDE81040B1
S3151FFFD1400349FEF737B900001502993E11AECC3ED3
S3151FFFD150C0AA2A3F2DE9F04D04460D462768C7F39F
S3151FFFD160C7511646FF2909D011B14FF0FF3009E00D
S3151FFFD17078020CBF00206FF0010003E0780214BF96
S3151FFFD18002200120C5F3C752FF2A09D012B14FF063
S3151FFFD190FF3109E069020CBF00216FF0010103E0B7
S3151FFFD1A0690214BF02210121020048BF00293ED494
S3151FFFD1B0022800F0C680022908BF256018D039B99A
S3151FFFD1C038464FF0FF41FFF799FF0AD0256038E039
S3151FFFD1D0012910D138465C49FFF790FF18BF25601C
S3151FFFD1E040D1FFF799FF212101606FF000402060BA
S3151FFFD1F00220BDE8F08D70B925603146204600F04C
S3151FFFD200E7FE040018BF012C40F09A80FFF784FF4A
S3151FFFD2102221016094E038464FF0FF41FFF76EFF72
S3151FFFD2200AD108462946FDF7DBFB20601AE0384680
S3151FFFD2304649FDF7C3FB07D200202946FDF7D0FB62
S3151FFFD24020600020BDE8F08D4149FDF75FFC0CD83B
S3151FFFD2504FF0FF402946FDF7C3FB2060FFF75CFF3A
S3151FFFD260222101600120BDE8F08D39463948FDF7BF
S3151FFFD270B7FB0021FDF7A2FB34BF4FF03F414FF035
S3151FFFD2807C51FEF797F8FEF74BF98046FDF714FC26
S3151FFFD290824631485146FDF7A3FB01463846FEF746
S3151FFFD2A0CBF807462D485146FDF79AFB01463846F0
S3151FFFD2B0FEF7C2F84FF03341FDF728FC824603D82D
S3151FFFD2C02749FDF77BFB2DD35146FDF789FB834688
S3151FFFD2D024485946FDF784FB074623485946FDF761
S3151FFFD2E07FFB4FF07C51FEF765F85146FDF778FB44
S3151FFFD2F0824638465146FEF75DF84FF07E51FEF7E0
S3151FFFD30059F8834638465146FEF796F84FF07E5139
S3151FFFD310FEF750F801465846FDF70AFC2946FDF76A
S3151FFFD3205FFB0546256006EB0801204600F050FE11
S3151FFFD330040018BF012C03D1FFF7EEFE2221016067
S3151FFFD3402046BDE8F08D00BF000080FF000065C3CB
S3151FFFD350010065433BAAB83F0060313FBFBF90390D
S3151FFFD360010000339EBFCC3D1354083C62B38B07AD
S3151FFFD37008D0521E11F8013B00F8013B00F0248034
S3151FFFD3808B07F6D1830740F0208000BF103A07D3E3
S3151FFFD39030B4B1E83810103AA0E83810F9D230BCD3
S3151FFFD3A0530724BFB1E80810A0E8081044BF51F87F
S3151FFFD3B0043B40F8043BD20724BF31F8022B20F869
S3151FFFD3C0022B44BF0B7803707047083A07D3B1E8A7
S3151FFFD3D00810083A40F8043B40F804CBF7D253072E
S3151FFFD3E0E4E7000070B504000E001500E4B2042C3C
S3151FFFD3F003DB48213648FFF731FE364800684FF4F6
S3151FFFD4007A7190FBF1F04643002E03D14E2130482F
S3151FFFD410FFF724FE3048006850F400002E490860CD
S3151FFFD42000202E4908602800002808D0E4B22C48A7
S3151FFFD43040F82450E4B214F1440000F02CFE701E95
S3151FFFD440E4B22101274A88500220E4B2254911EB95
S3151FFFD45004118860E4B2234810EB0410806850F073
S3151FFFD4600100E4B21F4911EB04118860012070BD52
S3151FFFD47080B5C0B21A4A42F82010C0B2443000F03D
S3151FFFD4800AFE012002BD10B50400E4B214F14400E8
S3151FFFD49000F04AFE0020E4B2114941F824000120A2
S3151FFFD4A010BD10B510480078B0F15404E4B20C4813
S3151FFFD4B050F824008047E4B20A4810EB0410C068F6
S3151FFFD4C050F00100E4B2074911EB0411C86010BD0B
S3151FFFD4D0E40B0020481800203C80044000700340E6
S3151FFFD4E0701600200071034004ED00E080B55FF465
S3151FFFD4F0C8200068FDF7EAFADFF840140860DFF876
S3151FFFD50040040068FDF7E2FADFF838140860DFF819
S3151FFFD51038040068FDF7DAFADFF830140860DFF821
S3151FFFD52030040068FDF7D2FADFF828140860DFF829
S3151FFFD53028040068FDF7CAFADFF820140860DFF831
S3151FFFD54020040068FDF7C2FADFF818140860DFF839
S3151FFFD55018040068FDF7BAFADFF810140860DFF841
S3151FFFD56010040068DFF80C140860DFF80C0400686D
S3151FFFD570DFF808140860DFF808040068DFF80414F2
S3151FFFD580086001BD80B5C82003F074FEEB48006834
S3151FFFD59000F010FE02000021C82003F0A9FEE94893
S3151FFFD5A0006800F007FE02000421C82003F0A0FE5A
S3151FFFD5B0E648006800F0FEFD02000821C82003F0C0
S3151FFFD5C097FEE448006800F0F5FD02000C21C82015
S3151FFFD5D003F08EFEE148006800F0ECFD020010210B
S3151FFFD5E0C82003F085FEDF48006800F0E3FD020058
S3151FFFD5F01421C82003F07CFEDC48006800F0DAFD2A
S3151FFFD60002001821C82003F073FEDA4802681C21A6
S3151FFFD610C82003F06DFED94802682021C82003F0F9
S3151FFFD62067FED84802682421C82003F061FE01BDAA
S3151FFFD63080B5C82003F01EFED34802680021C8200C
S3151FFFD64003F056FED04842680421C82003F050FE5F
S3151FFFD650CD4882680821C82003F04AFECA48C2681F
S3151FFFD6600C21C82003F044FEC74802691021C820B9
S3151FFFD67003F03EFEC44842691421C82003F038FE5A
S3151FFFD680C14882691821C82003F032FEBE48C2690D
S3151FFFD6901C21C82003F02CFEBB48026A2021C8208C
S3151FFFD6A003F026FEB848426A2421C82003F020FE55
S3151FFFD6B001BD80B50020009001230022012101201A
S3151FFFD6C0FEF738F9002000900123002202210120D6
S3151FFFD6D0FEF730F901BD000010B582B000200090A3
S3151FFFD6E00023012218210420FEF724F900200090B1
S3151FFFD6F00023012219210420FEF71CF90321002014
S3151FFFD70000F008FE012218210420FEF795F900BF3D
S3151FFFD710012219210420FEF78FF900221821042068
S3151FFFD720FEF78AF900BF002219210420FEF784F9AC
S3151FFFD73001240CE000BF012219210420FEF77CF90A
S3151FFFD74000BF002219210420FEF776F9641CE4B2FC
S3151FFFD750812CEFDB13BD80B5002000900023012233
S3151FFFD7601A210420FEF7E6F800200090012300226D
S3151FFFD7700F210320FEF7DEF8002000900123002271
S3151FFFD7800E210320FEF7D6F800200090012300226A
S3151FFFD7900D210320FEF7CEF8002000900123002263
S3151FFFD7A00C210320FEF7C6F800200090012300225C
S3151FFFD7B00B210320FEF7BEF8002000900123002255
S3151FFFD7C00A210320FEF7B6F800200090012300224E
S3151FFFD7D009210320FEF7AEF8002000900123002247
S3151FFFD7E008210320FEF7A6F8002000900123002240
S3151FFFD7F003210320FEF79EF800200090012300223D
S3151FFFD80002210320FEF796F8002000900123002235
S3151FFFD81001210320FEF78EF800200090012300222E
S3151FFFD82000210320FEF786F8FFF760FE03F00EFDCB
S3151FFFD83000220021002000F0CFFC00220021012042
S3151FFFD84000F0CAFC0421012000F064FD0521012020
