S01400004C504C445F4144435F4B36302E73726563AD
S3151FFF8000F87F00201184FF1F459DFF1F459DFF1F02
S3151FFF8010459DFF1F459DFF1F459DFF1F459DFF1F3C
S3151FFF8020459DFF1F459DFF1F459DFF1F459DFF1F2C
S3151FFF8030459DFF1F459DFF1F459DFF1F459DFF1F1C
S3151FFF8040459DFF1F459DFF1F459DFF1F459DFF1F0C
S3151FFF8400FFFFFFFFFFFFFFFFFFFFFFFFFEFFFFFF59
S3151FFF84104FF000004FF000014FF000024FF0000336
S3151FFF84204FF000044FF000054FF000064FF0000716
S3151FFF84304FF000084FF000094FF0000A4FF0000BF6
S3151FFF84404FF0000C62B600F075FAFEE710B50C0090
S3151FFF84501168012902D0022904D009E0C0B2516870
S3151FFF8460884705E0916808709068401C9060FFE799
S3151FFF84702068401C206010BD30B41C00002300255F
S3151FFF84800570401C002A19D0096800290AD130211E
S3151FFF849001705B1C180030BC70473035110005702A
S3151FFF84A0401C5B1C0029F5D091FBF4F204FB12154F
S3151FFF84B0002DF2D5E94311F13105EFE709680029D0
S3151FFF84C008D1302101705B1CE4E7373511000570B9
S3151FFF84D0401C5B1C0029DDD0B1FBF4F204FB121517
S3151FFF84E00A2DF2D23035F1E7F8B504000D0016005C
S3151FFF84F01F0005E03A0031003020FFF7A7FF641C7D
S3151FFF8500AC42F7DBF1BDF8B504000D0016001F00E6
S3151FFF851005E03A0031002020FFF798FF641CAC42AC
S3151FFF8520F7DBF1BD2DE9F04F8DB0050016000020DA
S3151FFF853000900C0005E02A0000A91800FFF786FF30
S3151FFF8540641C2378002B00F0C181252B12D00A2B28
S3151FFF855005D02A0000A91800FFF778FF09E02A00B7
S3151FFF856000A90D20FFF772FF2A0000A90A20FFF7B7
S3151FFF85706DFFE5E70027002101E057F001070029FE
S3151FFF85801BD1641C207820280BD023280FD02B2823
S3151FFF859004D02D28F1D0302806D00BE057F0020764
S3151FFF85A0EDE757F00407EAE757F00807E7E757F045
S3151FFF85B01007E4E7641E0121E1E75FF000080021D1
S3151FFF85C004E00A2000FB0830B0F13008002908D16B
S3151FFF85D0641C2378180030380928F2D9641E01213C
S3151FFF85E0F4E7641C20782E280BD10021FFE7002912
S3151FFF85F008D1641C207830380928F8D9641E012158
S3151FFF8600F5E7641E641C20784C2806D0682802D024
S3151FFF86106C2801D002E002E001E000E0641E641C4A
S3151FFF862023781800582874D0622800F0D08063285A
S3151FFF863000F01881642813D0692811D06E2800F026
S3151FFF864040816F2800F0B880702800F0CB80732818
S3151FFF865000F00F81752800F0D080782859D06AE77F
S3151FFF866030680390361D0A23012203A904A8FFF7CA
S3151FFF867003FF824604A81AEB00090398002804D5B6
S3151FFF86802D2002901AF1010A0FE0B80704D52B20FF
S3151FFF869002901AF1010A08E0780704D520200290FC
S3151FFF86A01AF1010A01E0002002905FF0000B380764
S3151FFF86B011D50298002804D02A0000A90298FFF7B7
S3151FFF86C0C5FE5FF0010B2B0000AA41465046FFF780
S3151FFF86D00BFFC24611E0F8070FD42B0000AA414635
S3151FFF86E05046FFF710FF0298002804D02A0000A962
S3151FFF86F00298FFF7ABFE5FF0010BBBF1000F07D12F
S3151FFF87000298002804D02A0000A90298FFF79EFEB0
S3151FFF87109BE030680190361D1023002201A904A893
S3151FFF8720FFF7AAFE824604A81AEB00095FF0000BAB
S3151FFF8730380715D5F8060BD52A0000A93020FFF7F5
S3151FFF874085FE2A0000A97820FFF780FE5FF0010B48
S3151FFF87502B0000AA41465046FFF7C6FEC24619E048
S3151FFF8760F80717D4F80601D51AF1020A2B0000AA3B
S3151FFF877041465046FFF7C7FEF8060BD52A0000A94C
S3151FFF87803020FFF763FE2A0000A97820FFF75EFE61
S3151FFF87905FF0010BF8060ED5BBF1000F0BD12A00B8
S3151FFF87A000A93020FFF752FE2A0000A97820FFF705
S3151FFF87B04DFE1AF1020A48E030680190361D082364
S3151FFF87C0002201A904A8FFF757FE82461FE0306863
S3151FFF87D00190361D0223002201A904A8FFF74CFEB4
S3151FFF87E0824614E030680190361D1023002201A92E
S3151FFF87F004A8FFF741FE824609E030680190361D47
S3151FFF88000A23002201A904A8FFF736FE824604A801
S3151FFF88101AEB0009380707D52B0000AA4146504619
S3151FFF8820FFF762FEC24610E0F8070ED42B0000AA20
S3151FFF883041465046FFF767FE07E02A0000A999F851
S3151FFF88400000FFF703FEB9F1010999F800000028A0
S3151FFF8850F3D1F80705D52B0000AA41465046FFF76F
S3151FFF886052FE6DE63078361D2A0000A9FFF7EEFD92
S3151FFF887066E6D6F80090361DB9F1000F20D04846A0
S3151FFF888000F03AF88246F8070ED42B0000AA41469D
S3151FFF88905046FFF738FE07E02A0000A999F80000A7
S3151FFF88A0FFF7D4FD19F1010999F800000028F3D14C
S3151FFF88B0F80705D52B0000AA41465046FFF723FEB2
S3151FFF88C03EE63068361D0099016039E600980DB007
S3151FFF88D0BDE8F08F0EB400B584B0012100910549A4
S3151FFF88E0019105AA010000A8FFF71CFE04B05DF861
S3151FFF88F010FB0000259EFF1F0021002802D100202C
S3151FFF890006E0491C0200501C1278002AF9D1080004
S3151FFF8910704750F8041B61B150F8042BD30744BFAF
S3151FFF8920A9F101039A18002342F8043B091FFAD144
S3151FFF8930EFE7704780B500F02FFA00F049FA00F015
S3151FFF894095FADFF850030078400703D5DFF8480391
S3151FFF8950FFF7C0FFDFF83C030078800703D5DFF87A
S3151FFF89603C03FFF7B7FFDFF82C030078C00703D5DB
S3151FFF8970DFF82C03FFF7AEFFDFF8280300780006AA
S3151FFF898003D5DFF82403FFF7A5FFDFF818030078E9
S3151FFF8990400603D5DFF81403FFF79CFFDFF8040338
S3151FFF89A00078800603D5DFF80803FFF793FFDFF88C
S3151FFF89B0F4020078400703D5DFF8F802FFF78AFFB6
S3151FFF89C0DFF8E0020078800703D5DFF8EC02FFF738
S3151FFF89D081FFDFF8D0020078C00703D5DFF8DC027E
S3151FFF89E0FFF778FF00F003F800F0AEFAFEE780B559
S3151FFF89F0DFF8CC020068000910F0070000280BD033
S3151FFF8A00022811D00CD3042816D011D306281BD049
S3151FFF8A1016D307281CD01FE0AA48FFF75BFF1EE0EF
S3151FFF8A20A948FFF757FF1AE0A848FFF753FF16E0BD
S3151FFF8A30A748FFF74FFF12E0A648FFF74BFF0EE0D1
S3151FFF8A40A548FFF747FF0AE0A448FFF743FF06E0E5
S3151FFF8A50A348FFF73FFF02E0A248FFF73BFF9848F7
S3151FFF8A60006810F00F00022812D0042814D0052822
S3151FFF8A7016D0062818D007281AD008281CD0092870
S3151FFF8A801ED00A2820D00C2822D00E2824D027E05B
S3151FFF8A909548FFF71FFF26E09448FFF71BFF22E0CD
S3151FFF8AA09348FFF717FF1EE09248FFF713FF1AE0E1
S3151FFF8AB09148FFF70FFF16E09048FFF70BFF12E0F5
S3151FFF8AC08F48FFF707FF0EE08E48FFF703FF0AE009
S3151FFF8AD08D48FFF7FFFE06E08C48FFF7FBFE02E01F
S3151FFF8AE08B48FFF7F7FE76480068000B10F00F0064
S3151FFF8AF0002803D0022809D004D30BE08548FFF7CF
S3151FFF8B00E9FE0AE08448FFF7E5FE06E08348FFF724
S3151FFF8B10E1FE02E08248FFF7DDFE00F06AF88148BA
S3151FFF8B200068000E10F00F00072806D0092808D08E
S3151FFF8B300B280AD00F280CD00FE07B48FFF7CAFE81
S3151FFF8B400EE07A48FFF7C6FE0AE07948FFF7C2FE36
S3151FFF8B5006E07748FFF7BEFE02E07648FFF7BAFE4C
S3151FFF8B6075480068000203D57448FFF7B3FE1EE081
S3151FFF8B706C480068000F002806D0072808D0092870
S3151FFF8B800AD00F280CD00FE06D48FFF7A3FE0EE0AB
S3151FFF8B906C48FFF79FFE0AE06B48FFF79BFE06E058
S3151FFF8BA06948FFF797FE02E06848FFF793FE68489C
S3151FFF8BB00068000B10F00F00052806D0072808D005
S3151FFF8BC008280AD009280CD00FE06248FFF782FE5B
S3151FFF8BD00EE06148FFF77EFE0AE06048FFF77AFE68
S3151FFF8BE006E05F48FFF776FE02E05E48FFF772FE7C
S3151FFF8BF001BD80B55C48032101705C4800210170EF
S3151FFF8C005B48002101705B48002101705A48012112
S3151FFF8C1001705A4880210170584800780006FBD51D
S3151FFF8C2057480178574802785748037857480078BE
S3151FFF8C30C0B20090DBB2D2B2C9B25548FFF74AFEA7
S3151FFF8C404948032101704948002101704848002106
S3151FFF8C5001704848042101704748012101704748A8
S3151FFF8C6080210170454800780006FBD544480178EE
S3151FFF8C70444802784448037844480078C0B20090BD
S3151FFF8C80DBB2D2B2C9B24348FFF724FE3B48FF21EE
S3151FFF8C90017001BD00E007405C9DFF1FBC9BFF1FCE
S3151FFF8CA0389EFF1F01E00740709DFF1F549CFF1F4B
S3151FFF8CB06C9CFF1F849CFF1FD89BFF1F489EFF1F97
S3151FFF8CC024800440149FFF1F1C9FFF1F249FFF1F0D
S3151FFF8CD02C9FFF1F349FFF1F3C9FFF1F449FFF1F9C
S3151FFF8CE04C9FFF1FB09AFF1F589EFF1F689EFF1FB7
S3151FFF8CF0789EFF1F889EFF1F989EFF1FA89EFF1F20
S3151FFF8D00B89EFF1FC89EFF1FD89EFF1FE89EFF1F0F
S3151FFF8D10849AFF1F9C9CFF1F849DFF1F989DFF1F0B
S3151FFF8D20B499FF1F4C800440B49CFF1FCC9CFF1FB0
S3151FFF8D30E49CFF1F5C9BFF1F50800440F89EFF1F94
S3151FFF8D40FC9CFF1F149DFF1F2C9DFF1F7C9BFF1F5E
S3151FFF8D5000700440AC9DFF1FC09DFF1FD49DFF1FCA
S3151FFF8D60E89DFF1FF49BFF1F0700024006000240FE
S3151FFF8D7005000240040002400F00024000000240AF
S3151FFF8D800B0002400A000240090002400800024091
S3151FFF8D90D89AFF1F9C9BFF1F80B500F009F80A4852
S3151FFF8DA000884FF6FE7108400749088001BD000085
S3151FFF8DB072B606484CF22051018004484DF6281121
S3151FFF8DC0018062B670470000002005400E20054057
S3151FFF8DD080B51C481C4988420BD0002006E0194964
S3151FFF8DE0194A52F8202041F82020401CB0F5826F07
S3151FFF8DF0F5D3144800F0F4F81449154A1548801A9C
S3151FFF8E0003E013780B70521C491C0300581E002BDE
S3151FFF8E10F7D111491148401A02E000220A70491C76
S3151FFF8E200200501E002AF8D10D490E4A0E48801A1D
S3151FFF8E3003E013780B70521C491C0300581E002BAE
S3151FFF8E40F7D101BD0080FF1F0080FF1FA09FFF1FDF
S3151FFF8E50549AFF1F849AFF1FD09FFF1F04A0FF1F57
S3151FFF8E60549FFF1F6899FF1FB499FF1F80B528489E
S3151FFF8E70006850F4785026490860602000F0B6F865
S3151FFF8E8024490860234800684FF47A7148432249F2
S3151FFF8E9008602148006821490968C1F30361491C1D
S3151FFF8EA0B0FBF1F01E49086000F01CF800F025F832
S3151FFF8EB01C484FF4407101601B484FF4407101601D
S3151FFF8EC05FF4E13216480168184800F0A5F911480A
S3151FFF8ED001681748FFF7FEFC114801681548FFF7A1
S3151FFF8EE0F9FC01BD1448006850F480501249086010
S3151FFF8EF012484FF4E061016070471148006850F057
S3151FFF8F0001000F4908600F484FF4A06101607047C9
S3151FFF8F1038800440FC9FFF1FF89FFF1F44800440BB
S3151FFF8F2000A0FF1F20D0044024D0044000B00E40F5
S3151FFF8F30FC9DFF1F109EFF1F0480044018900440D6
S3151FFF8F40408004400CB0044010B582B072B6B42006
S3151FFF8F5000F04CF800220221002000F0D7F9002272
S3151FFF8F600221012000F0D2F944F6206000F04CFAEE
S3151FFF8F700021042000F0D1FA0021052000F0CDFAD0
S3151FFF8F800021062000F0C9FA0021072000F0C5FACC
S3151FFF8F90322000F00FFB0021012000F094FB092473
S3151FFF8FA009E000200090002300222100C9B20420FF
S3151FFF8FB000F0E2FB641CE4B20D2CF2DB142409E083
S3151FFF8FC000200090002301222100C9B2002000F0DB
S3151FFF8FD0D3FB641CE4B2182CF2DB62B613BD000090
S3151FFF8FE0014908607047000008ED00E010B5C0B2E8
S3151FFF8FF06F2851DA1822814B00241C70804B1B6887
S3151FFF900053F080537E4C23607E4B1B7853F08003B7
S3151FFF90107C4C23707C4B98241C707C4B1B78DB0687
S3151FFF9020FBD47A4B1B78C3F38103DBB2022BF8D138
S3151FFF903012F01F02764B1A70764A00231370C0B2C6
S3151FFF90403C281ED0462833D050283CD05A2845D01E
S3151FFF905060284ED0642857D06E2860D0782869D0F4
S3151FFF9060822872D096287BD0AA2800F08480B42845
S3151FFF907000F08C80C82800F09480D12800F09C80D7
S3151FFF9080A4E0022301220121002000F063FF6148B3
S3151FFF9090462101703C2199E0C0B2C92801DA0C2292
S3151FFF90A0A9E7C0B2DD2801DA0B22A4E70020A4E05E
S3151FFF90B0022301220121002000F04CFF55484B21BE
S3151FFF90C00170462182E0032301220121002000F0C7
S3151FFF90D041FF504850210170502177E003230122A1
S3151FFF90E00121002000F036FF4A48552101705A2101
S3151FFF90F06CE0032301220121002000F02BFF4548CE
S3151FFF910058210170602161E0032301220121002004
S3151FFF911000F020FF3F485A210170642156E00423C7
S3151FFF912002220221002000F015FF3A485F2101703D
S3151FFF91306E214BE0042302220221002000F00AFFCA
S3151FFF9140344847210170782140E00523022202217E
S3151FFF9150002000F0FFFE2F484A210170822135E0D3
S3151FFF9160052302220221002000F0F4FE29484F2189
S3151FFF9170017096212AE0062303220321002000F017
S3151FFF9180E9FE244854210170AA211FE00723032269
S3151FFF91900321002000F0DEFE1E4857210170B42177
S3151FFF91A014E0072303220321002000F0D3FE1948F2
S3151FFF91B05C210170C82109E0082304220421002035
S3151FFF91C000F0C8FE13485A210170D1210F480078BD
S3151FFF91D08006FBD50D4800784006FBD50A48007868
S3151FFF91E010F03F00084A107008480078C0F381004E
S3151FFF91F0C0B20328F8D10800C0B210BD0140064017
S3151FFF92003480044008C00740004006400640064021
S3151FFF9210044006400540064030B4324B984206D103
S3151FFF9220314B1B6853F480632F4C23602DE02F4B6C
S3151FFF9230984206D12C4B1B6853F400632A4C2360BC
S3151FFF924023E02B4B984206D1274B1B6853F48053C1
S3151FFF9250254C236019E0274B984206D1224B1B68EA
S3151FFF926053F40053204C23600FE0234B984206D143
S3151FFF9270224B1B6853F48063204C236005E01F4B72
S3151FFF92801B6853F400631D4C2360C37813F0F3036D
S3151FFF9290C370002383704FF47A7303FB01F314012A
S3151FFF92A093FBF4F3047814F0E0049BB21D0A15F048
S3151FFF92B01F052C43047043704FF4FA446143120198
S3151FFF92C091FBF2F19BB2B1EB4311827A12F0E004EC
S3151FFF92D011F01F0121438172C17851F00C01C1703A
S3151FFF92E030BC704700A006403480044000B00640E3
S3151FFF92F000C0064000D0064000A00E402880044054
S3151FFF930002791206FCD5C1717047000070B50400C3
S3151FFF93101500E4B2002C43D1DFF8D800006850F0E7
S3151FFF93200060DFF8D0201060DFF8CC60712030704E
S3151FFF9330C9B2002905D0022947D041D3032949D0F5
S3151FFF93404DE0307830700420707041F23420708009
S3151FFF935045F27860B0801820B0710720F0715FF476
S3151FFF9360C020F0603100E4B2DFF8900050F824000F
S3151FFF937000F0D2FAE4B2DFF8840050F8240000F0C0
S3151FFF938083FAEDB2002D2CD1002030723100E4B2EA
S3151FFF9390DFF8680050F8240000F0BEFA012070BD08
S3151FFF93A0E4B2012C0AD1DFF85800006850F00060C4
S3151FFF93B0DFF84C201060DFF84C60B7E70020EEE7C0
S3151FFF93C0307850F004003070BDE7307850F0080059
S3151FFF93D03070B8E7307850F00C003070B3E70020DC
S3151FFF93E0DDE7EDB2012D02D120203072CEE700203E
S3151FFF93F0D5E700003C800440D09FFF1FA09FFF1FA3
S3151FFF940030800440E09FFF1F10B4DFF82C1309685C
S3151FFF94104FF47A725143814201D200207BE08022B2
S3151FFF942002FB00F2B1FBF2F34FF6FF72934271D2CA
S3151FFF94300722DFF80C432360402303FB00F3B1FB36
S3151FFF9440F3F34FF6FF74A34244D20622DFF8F0422E
S3151FFF945023604301B1FBF3F34FF6FF74A34239D2E7
S3151FFF94600522DFF8DC4223600301B1FBF3F34FF65E
S3151FFF9470FF74A3422ED20422DFF8C4422360C30027
S3151FFF9480B1FBF3F34FF6FF74A34223D20322DFF898
S3151FFF9490B04223608300B1FBF3F34FF6FF74A34281
S3151FFF94A018D20222DFF8984223604300B1FBF3F381
S3151FFF94B04FF6FF74A3420DD20122DFF884422360C9
S3151FFF94C0B1FBF0F34FF6FF70834203D20022DFF8A2
S3151FFF94D070020360DFF86402006850F08070DFF8E7
S3151FFF94E05C120860D2B212F0070050F00800DFF8D6
S3151FFF94F054120860DFF8500200210160DFF84C02AA
S3151FFF950000210160DFF84802DFF8341209680160A5
S3151FFF9510012000E0002010BC704781B042F211729B
S3151FFF9520914201D3002031E0DFF814221268009226
S3151FFF9530009A521C514342F21072B1FBF2F1C0B2B4
S3151FFF95400200002A032A03D9121F032A20D92FE05C
S3151FFF9550DFF80022126852F40062DFF8F8311A6052
S3151FFF9560C0B2820002F1804212F596224FF4806349
S3151FFF95705360C0B2DFF8E021282342F83030C0B273
S3151FFF9580DFF8D42112EBC0004160012001B0704704
S3151FFF9590DFF8C021126852F48052DFF8B8311A6023
S3151FFF95A0C0B2DFF8B8214FF4806342F82030E0E7FE
S3151FFF95B00020EBE710B4DFF8801109684FF47A72C9
S3151FFF95C05143814201D200207BE0802202FB00F241
S3151FFF95D0B1FBF2F34FF6FF72934271D20722DFF808
S3151FFF95E080412360402303FB00F3B1FBF3F34FF6E8
S3151FFF95F0FF74A34244D20622DFF86441236043016E
S3151FFF9600B1FBF3F34FF6FF74A34239D20522DFF8FE
S3151FFF9610504123600301B1FBF3F34FF6FF74A342DF
S3151FFF96202ED20422DFF838412360C300B1FBF3F3C8
S3151FFF96304FF6FF74A34223D20322DFF82441236090
S3151FFF96408300B1FBF3F34FF6FF74A34218D2022236
S3151FFF9650DFF80C4123604300B1FBF3F34FF6FF74B2
S3151FFF9660A3420DD20122DFF8F8402360B1FBF0F3CE
S3151FFF96704FF6FF70834203D20022DFF8E400036038
S3151FFF9680DFF8B800006850F00070DFF8B010086010
S3151FFF9690D2B212F0070050F00800DFF8C8100860BA
S3151FFF96A0DFF8C40000210160DFF8C0000021016060
S3151FFF96B0DFF8BC00DFF8A81009680160012000E091
S3151FFF96C0002010BC704781B042F21172914201D344
S3151FFF96D000202FE0DFF8882012680092009A521CA4
S3151FFF96E0514342F21072B1FBF2F1C0B20200002ADF
S3151FFF96F0012A1ED8DFF85C20126852F40072DFF8C9
S3151FFF970054301A60C0B2820002F1804212F59222D3
S3151FFF97104FF440731362C0B2DFF85820282342F874
S3151FFF97203030C0B2DFF84C2012EBC0004160012081
S3151FFF973000E0002001B0704700A0FF1F3C800440DF
S3151FFF9740F09FFF1F00800340048003404C800340AF
S3151FFF975008800340388004400C80034000C004404B
S3151FFF9760F49FFF1F00900340049003404C9003405B
S3151FFF9770089003400C9003402DE9F8430D00160097
S3151FFF97801F00C0B23D4951F82080C0B23C4951F875
S3151FFF97902090C0B2052803DB63213A4800F0D0F8BA
S3151FFF97A0EDB2202D03DB6421364800F0C9F8F6B26F
S3151FFF97B0022E03DB6521334800F0C2F8FFB2022FEA
S3151FFF97C003DB66212F4800F0BBF8089CE4B20D2C83
S3151FFF97D003DB67212B4800F0B3F8EDB24FF480701F
S3151FFF97E049F82500F6B2012E13D1D8F8140001212E
S3151FFF97F0A9400843C8F81400FFB2012F04D1012066
S3151FFF9800A840C8F8040036E00120A840C8F80800A1
S3151FFF981031E0D8F814000121A9408843C8F8140085
S3151FFF9820EDB259F82500E4B2210411F47021084363
S3151FFF9830EDB249F82500FFB2012F08D1EDB259F855
S3151FFF9840250050F00300EDB249F8250013E0FFB2E3
S3151FFF9850002F08D1EDB259F8250050F00200EDB2E6
S3151FFF986049F8250007E0EDB259F8250030F0020050
S3151FFF9870EDB249F825000120BDE8F283A89FFF1F1F
S3151FFF9880BC9FFF1FF499FF1F016A31F04001016260
S3151FFF9890416A31F00B014162416A51F00701416292
S3151FFF98A0416A51F08001416201680906FCD5416A90
S3151FFF98B0490601D501202EE00021C26C1100826CE2
S3151FFF98C05118426C5118026C5118C26B5118826B9A
S3151FFF98D0511889B2022291FBF2F151F4004189B26C
S3151FFF98E0C1620021C26E1100826E5118426E51185D
S3151FFF98F0026E5118C26D5118826D511889B202221C
S3151FFF990091FBF2F151F4004189B20163416A31F0D3
S3151FFF991080014162002070470A7882604A78C260E0
S3151FFF99204A8882618A88C2618A790262CA794262DB
S3151FFF9930CA6802650A7A0260497A41607047000069
S3151FFF994080B50A0001000648FEF7C4FF054800E080
S3151FFF9950401E0028FCD103480028F7D0401EFBE716
S3151FFF9960289BFF1FA086010070B4104C24680F4D63
S3151FFF99702D6855F47F050D4E3560090611F0706190
S3151FFF998051EA0070110511F470010843190411F40F
S3151FFF99907021084306490860002000E0401CC0B242
S3151FFF99A09842FBD30148046070BC704700F001402A
S3151FFF99B0448004400A546869732076657273696F21
S3151FFF99C06E206F6620736F66747761726520646F92
S3151FFF99D065736E2774207265636F676E697A65207C
S3151FFF99E0746865207265766973696F6E20636F642D
S3151FFF99F0652E0000433A5C55736572735C6875612B
S3151FFF9A006E675C4465736B746F705C6B36305C6C32
S3151FFF9A1069625C4C504C445C48414C5F4750494F10
S3151FFF9A202E6300000A2A2A2A2A64656661756C74EA
S3151FFF9A305F69737220656E7465726564206F6E2031
S3151FFF9A40766563746F722025642A2A2A2A2A0D0ACD
S3151FFF9A500A00000000B0034000B00B4000F00F40AB
S3151FFF9A6040F00F4080F00F40C0F00F4000F10F4055
S3151FFF9A700090044000A0044000B0044000C0044012
S3151FFF9A8000D004400A556E7265636F676E697A650B
S3151FFF9A9064204B696E65746973207061636B6167C0
S3151FFF9AA06520636F64652E2020202020200A00007A
S3151FFF9AB00A556E7265636F676E697A6564204B69B7
S3151FFF9AC06E657469732066616D696C79206465764E
S3151FFF9AD06963652E0A000000466C6173682070611A
S3151FFF9AE072616D657465722076657273696F6E201C
S3151FFF9AF025642E25642E25642E25640A000000008A
S3151FFF9B0010B5074979441831064C7C44163404E0D6
S3151FFF9B100A68081D511888470146A142F8D110BD92
S3151FFF9B202C00000038000000417373657274696F63
S3151FFF9B306E206661696C656420696E2025732061DE
S3151FFF9B4074206C696E652025640A0000C7EDFFFF50
S3151FFF9B5034000000D09FFF1F000000004552522116
S3151FFF9B602120556E646566696E656420502D666C8F
S3151FFF9B706173682073697A650A0000004552522196
S3151FFF9B802120556E646566696E656420466C65782F
S3151FFF9B904E564D2073697A650A000000466C617345
S3151FFF9BA0682076657273696F6E2049442025642E7F
S3151FFF9BB025642E25642E25640A000000436F7265F7
S3151FFF9BC0204C6F636B7570204576656E74205265EA
S3151FFF9BD07365740D0A0000004C6F772D766F6C74DA
S3151FFF9BE06167652044657465637420526573657488
S3151FFF9BF00D0A0000455252212120556E6465666984
S3151FFF9C006E65642052414D2073697A650A0A00000A
S3151FFF9C1000F00BF8002801D0FFF772FF0020C046A7
S3151FFF9C20C046FFF791F900F002F80120704700F0D8
S3151FFF9C3001B800000746384600F002F8FBE70000B0
S3151FFF9C4080B5C046C046024A11001820ABBEFBE7CF
S3151FFF9C502600020045787465726E616C2050696E2E
S3151FFF9C602052657365740D0A000000005761746307
S3151FFF9C7068646F6728434F50292052657365740DBB
S3151FFF9C800A0000004C6F7373206F6620436C6F636F
S3151FFF9C906B2052657365740D0A00000053696C696A
S3151FFF9CA0636F6E2072657620312E302020200A20AA
S3151FFF9CB000000000313238206B4279746573206FC4
S3151FFF9CC06620502D666C617368090A00323536208F
S3151FFF9CD06B4279746573206F6620502D666C6173B6
S3151FFF9CE068090A00353132206B4279746573206F1C
S3151FFF9CF06620502D666C617368090A0030206B421F
S3151FFF9D0079746573206F6620466C65784E564D0ACB
S3151FFF9D1000000000313238206B4279746573206F63
S3151FFF9D206620466C65784E564D0A00003235362042
S3151FFF9D306B4279746573206F6620466C65784E5645
S3151FFF9D404D0A000080B503480178C9B20248FEF7E5
S3151FFF9D50C1FD01BD04ED00E0249AFF1F536F66741A
S3151FFF9D60776172652052657365740D0A00000000E6
S3151FFF9D70506F7765722D6F6E2052657365740D0A6E
S3151FFF9D800000000053696C69636F6E207265762051
S3151FFF9D90312E3120200A200053696C69636F6E20B4
S3151FFF9DA072657620312E3220200A20003332206B37
S3151FFF9DB04279746573206F662052414D0A0A00006F
S3151FFF9DC03634206B4279746573206F662052414D7E
S3151FFF9DD00A0A00003936206B4279746573206F6655
S3151FFF9DE02052414D0A0A0000313238206B427974E6
S3151FFF9DF06573206F662052414D0A0A00436F7265D5
S3151FFF9E0020436C6F636B3A25644D487A210D0A0018
S3151FFF9E1042757320436C6F636B3A25646B487A21D7
S3151FFF9E200D0A000080B50100C9B20248FFF768FAA4
S3151FFF9E3001BD000000B00E404A54414720526573D2
S3151FFF9E4065740D0A000000004C4C57552052657370
S3151FFF9E5065740D0A00000000333270696E202020E2
S3151FFF9E60202020200A000000343870696E20202031
S3151FFF9E70202020200A000000363470696E20202023
S3151FFF9E80202020200A000000383070696E20202015
S3151FFF9E90202020200A000000383170696E20202004
S3151FFF9EA0202020200A00000031303070696E2020EC
S3151FFF9EB0202020200A00000031303470696E2020D8
S3151FFF9EC0202020200A00000031343470696E2020C4
S3151FFF9ED0202020200A00000031393670696E2020AD
S3151FFF9EE0202020200A00000032353670696E2020A0
S3151FFF9EF0202020200A000000502D666C6173682009
S3151FFF9F006F6E6C790A000000C046C046C046C04649
S3151FFF9F10FFF77EFE0A4B31302D0000000A4B323011
S3151FFF9F202D0000000A4B33302D0000000A4B343042
S3151FFF9F302D0000000A4B36302D0000000A4B37302C
S3151FFF9F402D0000000A4B35302D0000000A4B35331C
S3091FFF9F502D000000BC
S7051FFF9F0934
