S01400004C504C445F4144435F4B36302E73726563AD
S1130000F83F0020110400002D4900002D49000094
S11300102D4900002D4900002D4900002D49000004
S11300202D4900002D4900002D4900002D490000F4
S11300302D4900002D4900002D4900002D490000E4
S11300400946000009460000094600000946000070
S11300500946000009460000094600000946000060
S11300600946000009460000094600000946000050
S11300700946000009460000094600000946000040
S1130080094600002D4900002D4900002D490000BB
S11300902D4900002D4900002D4900002D49000084
S11300A02D4900002D4900002D4900002D49000074
S11300B02D4900002D4900002D4900002D49000064
S11300C02D4900002D4900002D4900002D49000054
S1130400FFFFFFFFFFFFFFFFFFFFFFFFFEFFFFFFF9
S11304104FF000004FF000014FF000024FF00003D6
S11304204FF000044FF000054FF000064FF00007B6
S11304304FF000084FF000094FF0000A4FF0000B96
S11304404FF0000C62B603F031FAFEE770B582B0EB
S113045072B600220021002000F0C4FA002200211C
S1130460012000F0BFFA44F6206000F057FC0021A0
S1130470042000F0DCFC0021052000F0D8FC002161
S1130480062000F0D4FC0021072000F0D0FC4FF43B
S1130490967000F034FD0021012000F0B9FD002029
S11304A00090002300220221022000F025FE0020FB
S11304B00090002300220321022000F01DFE0020F2
S11304C00090002300220421022000F015FE0020E9
S11304D00090002300220521022000F00DFE0020E0
S11304E00090002300220621022000F005FE0020D7
S11304F00090002300220721022000F0FDFD0020CF
S11305000090002300220821022000F0F5FD0020C5
S11305100090002300220921022000F0EDFD0020BC
S11305200090012301220A21032000F0E5FD0022AE
S11305300A21032000F062FE012347F6FF724021E6
S1130540002000F077FE012347F6FF7260210A20A5
S113055000F070FE0FF279124FF47A71012000F06E
S11305607FFF01F0A7F84FF41651032001F016FAAB
S113057062B6DFF8DC030068401CDFF8D4130860BF
S1130580DFF8CC030068DFF8CC138842C0F0958014
S113059000200090AC231C00DFF8BC03006801F0CD
S11305A0DFFA0200230014001D00DFF8B003006826
S11305B001F0D6FA01002B0022000C0015001E00E9
S11305C0DFF89C03006801F0CBFA33002A00210015
S11305D001F04CF9012000900623052214001D00AF
S11305E0DFF88003006801F0BBFA01002B00220051
S11305F00C0015001E00DFF87003006801F0B0FA6B
S113060033002A00210001F031F902200090222356
S11306101C00DFF85803006801F0A2FA020023006E
S113062014001D00DFF84803006801F099FA010086
S11306302B0022000C0015001E00DFF838030068B0
S113064001F08EFA33002A00210001F00FF9032093
S11306500090DFF824030368DFF820030268DFF862
S1130660200301680C0015001E00DFF81803006861
S113067001F076FA33002A00210001F0F7F8042093
S11306800090BD480368BD48026814001D00BE48C0
S1130690006801F065FA01002B0022000C0015002F
S11306A01E00B848006801F05BFA33002A002100FC
S11306B001F0DCF80020A6490860A5480068A549B7
S11306C08842FFF456AF0020A149086051E70000BA
S11306D080B572B6AD480068401CAC490860AC48AF
S11306E00068401CAA490860AA480068401CA9493F
S11306F008600821012000F0E8F980B201F05CFAFA
S1130700A549096801F078FAA34908600921012084
S113071000F0DBF980B201F04FFAA049096801F05A
S11307206BFA9E4908600A21012000F0CEF980B2DC
S113073001F042FA9A49096801F05EFA98490860A2
S11307400B21012000F0C1F980B201F035FA95497E
S1130750096801F051FA934908600C21012000F066
S1130760B4F980B201F028FA8F49096801F044FA1B
S11307708D4908600D21012000F0A7F980B201F035
S11307801BFA8A49096801F037FA884908600E2182
S1130790012000F09AF980B201F00EFA8449096848
S11307A001F02AFA824908600F21012000F08DF936
S11307B080B201F001FA7F49096801F01DFA7D4910
S11307C008600C21002000F080F980B201F0F4F9F7
S11307D07949096801F010FA774908606D480068A2
S11307E0052856DB00206B4908606B480068734994
S11307F001F044FA5A490860684800686F4901F0FA
S11308003DFA55490860664800686C4901F036FABB
S11308105849086063480068684901F02FFA544950
S1130820086061480068654901F028FA4E4908608B
S11308305E480068614901F021FA4A4908605C4851
S113084000685E4901F01AFA444908605948006892
S11308505A4901F013FA4B49086057480068574950
S113086001F00CFA564908600020534908605149C8
S113087008604F4908604D4908604B490860494980
S1130880086047490860454908604349086001F029
S113089073FA3F4800680A2858DB00203C49086086
S11308A0002000F0AEFD474908600A2000F0A9FDD1
S11308B0454908604548006845490860454800685E
S11308C0454908603F48006801F06CF93F490860F9
S11308D03D48006801F066F93E4908603B480068FD
S11308E03E4901F011FC02D83C48384908603948B7
S11308F000683A4901F008FC02D8384835490860D4
S1130900002000F08BFD0A2000F088FD01F00EFCB1
S113091033480068012807D10021042000F0D4FAEC
S11309200021062000F0D0FA1848006843F6982108
S113093088420BDB43F69820144908600021042008
S113094000F0C2FA0021062000F0BEFA62B601BD32
S113095010C6FF1FE0930400B4C5FF1FC8C5FF1FE6
S1130960B0C5FF1FC4C5FF1FC0C5FF1FF8C5FF1FCB
S1130970BCC5FF1FB8C5FF1F24C6FF1F20C6FF1F2D
S113098068C6FF1FCCC5FF1FC4C6FF1F04C6FF1FD8
S113099000C6FF1FFCC5FF1FD4C5FF1FD8C5FF1F1E
S11309A0DCC5FF1FE0C5FF1FE4C5FF1FE8C5FF1F2F
S11309B0ECC5FF1FF0C5FF1FF4C5FF1F0000A040DA
S11309C0D0C5FF1FB0C6FF1FACC6FF1FB4C6FF1FB4
S11309D0BCC6FF1FB8C6FF1FC0C6FF1F0000C84328
S11309E00CC6FF1F70B504001500E4B2002C43D1FF
S11309F0DFF80C03006850F00060DFF80423106097
S1130A00DFF8006311203070C9B2002905D0022933
S1130A1047D041D3032949D04DE0307830700420C9
S1130A20707041F23420708045F27860B0801820F4
S1130A30B0710420F0715FF4C020F0603100DFF881
S1130A40C802E4B250F8240001F080FCDFF8B802D8
S1130A50E4B250F8240001F031FCEDB2002D2CD1A9
S1130A60002030723100DFF8A002E4B250F8240014
S1130A7001F06CFC012070BDE4B2012C0AD1DFF856
S1130A808C02006850F00060DFF880221060DFF80C
S1130A908062B7E70020EEE7307850F00400307051
S1130AA0BDE7307850F008003070B8E7307850F087
S1130AB00C003070B3E70020DDE7EDB2012D02D168
S1130AC020203072CEE70020D5E7DFF83C22C0B208
S1130AD052F82020C9B21F2901DB002034E0C0B243
S1130AE0002840F08F80C9B20800002803281CD9D0
S1130AF00838012829D9801E012838D9801E0128E8
S1130B0047D9801E012856D9801E66D0401E012870
S1130B1064D9801E012872D9001F70D0C01E01281C
S1130B206DD9C01E01286AD96AE0106840094001E5
S1130B3010601068C9B211F01F01084310601068FA
S1130B400006FCD5106980B27047DFF8C801006860
S1130B5050F48060DFF8BC3118600020C9B28B000B
S1130B6003F1804313F5942343F8200CDDE7DFF809
S1130B70A401006850F40070DFF898311860002078
S1130B80C9B28B0003F1804313F5922343F80C0C94
S1130B90CBE7DFF88001006850F48060DFF874313F
S1130BA018600020C9B28B0003F1804313F594232D
S1130BB043F8280CB9E7DFF85C01006850F40060E2
S1130BC0DFF8503118600020C9B28B0003F1804374
S1130BD013F5962343F8380CA7E7A6E7DFF83401AA
S1130BE0006850F40050DFF82C3118600020C9B2BE
S1130BF08B0003F1804313F59A23D86195E794E7BA
S1130C000020A1E7C0B2012877D1C9B208000028AA
S1130C1003281BD9001F032819D9001F012828D92C
S1130C20801E032837D9001F012846D9801E54D0BE
S1130C30401E53D0401E02285CD9401F5AD0C01E0B
S1130C40012857D9C01E012854D954E06DE7DFF8B4
S1130C50C400006850F40050DFF8B8301860002079
S1130C60C9B28B0003F1804313F59A2343F8100CA7
S1130C705BE7DFF8A000006850F48060DFF8943090
S1130C8018600020C9B28B0003F1804313F594234C
S1130C9043F8200C49E7DFF87C00006850F48060DA
S1130CA0DFF8703018600020C9B28B0003F1804374
S1130CB013F5942343F8180C37E71648006850F4EA
S1130CC08060144B18600020C9B28B0003F180438C
S1130CD013F5942343F8100C27E726E70D48006822
S1130CE050F400700B4B186000200B4BC9B243F852
S1130CF021001AE719E7002026E7002024E7000076
S1130D003C80044038C5FF1F38C4FF1F30800440B6
S1130D1048C5FF1F388004400090044010B4DFF839
S1130D20981309684FF47A725143814201D200202A
S1130D307BE0802202FB00F2B1FBF2F34FF6FF727C
S1130D40934271D20722DFF874432360402303FBEC
S1130D5000F3B1FBF3F34FF6FF74A34244D206222F
S1130D60DFF8584323604301B1FBF3F34FF6FF74FC
S1130D70A34239D20522DFF8444323600301B1FBC7
S1130D80F3F34FF6FF74A3422ED20422DFF82C4370
S1130D902360C300B1FBF3F34FF6FF74A34223D2E5
S1130DA00322DFF8184323608300B1FBF3F34FF60B
S1130DB0FF74A34218D20222DFF8004323604300E9
S1130DC0B1FBF3F34FF6FF74A3420DD20122DFF817
S1130DD0EC422360B1FBF0F34FF6FF70834203D281
S1130DE00022DFF8D8020360DFF8D402006850F074
S1130DF08070DFF8CC120860D2B212F0070050F015
S1130E000800DFF8C01208600020DFF8BC12086098
S1130E100020DFF8B8120860DFF8A0020068DFF8ED
S1130E20B0120860012000E0002010BC704781B0BF
S1130E3042F21172914201D3002031E0DFF87C22AA
S1130E4012680092009A521C514342F21072B1FB94
S1130E50F2F1C0B20200002A032A03D9121F032AA6
S1130E6020D92FE0DFF86C22126852F40062DFF818
S1130E7064321A604FF48062C0B2830003F180438D
S1130E8013F596235A602822DFF84C32C0B243F897
S1130E903020DFF84422C0B212EBC00041600120D0
S1130EA001B07047DFF82C22126852F48052DFF848
S1130EB024321A604FF48062DFF82032C0B243F863
S1130EC02020E0E70020EBE781B042F2117291426A
S1130ED001D3002011E0DFF8E42112680092009AA7
S1130EE0521C514342F21072B1FBF2F1DFF8E821D7
S1130EF0C0B212EBC0004160012001B0704710B4D1
S1130F00DFF8B41109684FF47A725143814201D277
S1130F1000207BE0802202FB00F2B1FBF2F34FF6EB
S1130F20FF72934271D20722DFF8B4412360402359
S1130F3003FB00F3B1FBF3F34FF6FF74A34244D277
S1130F400622DFF89C4123604301B1FBF3F34FF623
S1130F50FF74A34239D20522DFF8844123600301E0
S1130F60B1FBF3F34FF6FF74A3422ED20422DFF851
S1130F7070412360C300B1FBF3F34FF6FF74A34247
S1130F8023D20322DFF8584123608300B1FBF3F33B
S1130F904FF6FF74A34218D20222DFF844412360C3
S1130FA04300B1FBF3F34FF6FF74A3420DD20122C9
S1130FB0DFF82C412360B1FBF0F34FF6FF7083425E
S1130FC003D20022DFF818010360DFF8F4000068A0
S1130FD050F00070DFF8E8100860D2B212F0070099
S1130FE050F00800DFF8FC1008600020DFF8F8106B
S1130FF008600020DFF8F4100860DFF8E4000068FF
S1131000DFF8EC100860012000E0002010BC7047FD
S113101081B042F21172914201D300202FE0DFF837
S1131020C02012680092009A521C514342F210727E
S1131030B1FBF2F1C0B20200002A012A1ED8DFF887
S11310409420126852F40072DFF888301A604FF46A
S11310504072C0B2830003F1804313F592231A62F5
S11310602822DFF89030C0B243F83020DFF8842023
S1131070C0B212EBC0004160012000E0002001B0CA
S1131080704781B042F21172914201D3002011E005
S1131090DFF84C2012680092009A521C514342F22D
S11310A01072B1FBF2F1DFF84C20C0B212EBC000B9
S11310B04160012001B070471CC6FF1F98C5FF1F87
S11310C03C80044000800340048003404C80034083
S11310D008800340388004400C80034000C0044072
S11310E09CC5FF1F00900340049003404C900340B4
S11310F0089003400C9003402DE9F8430D001600BE
S11311001F004949C0B251F820804849C0B251F883
S11311102090C0B2052803DB6321454801F02AF979
S1131120EDB2202D03DB6421414801F023F9F6B22E
S1131130022E03DB65213E4801F01CF9FFB2022FA9
S113114003DB66213A4801F015F9089CE4B20D2C42
S113115003DB6721364801F00DF94FF48070EDB2DE
S113116049F82500F6B2012E13D1D8F81400012154
S1131170A9400843C8F81400FFB2012F04D101208C
S1131180A840C8F8040036E00120A840C8F80800C8
S113119031E0D8F814000121A9408843C8F81400AC
S11311A0EDB259F82500E4B2210411F4702108438A
S11311B0EDB249F82500FFB2012F08D1EDB259F87C
S11311C0250050F00300EDB249F8250013E0FFB20A
S11311D0002F08D1EDB259F8250050F00200EDB20D
S11311E049F8250007E0EDB259F8250030F0020077
S11311F0EDB249F825000120BDE8F283D2B2002AFD
S113120008D1012212FA01F1074AC0B252F82000B3
S1131210816007E0012212FA01F1034AC0B252F8D8
S1131220200041607047000040C4FF1F54C4FF1FEA
S1131230AC440000F8B50024E4B2002C01D101252F
S11312400AE0E4B2012C01D1022505E0E4B2022C4B
S113125001D1042500E01025B2F5004F01D347F673
S1131260FF72744EC0B246F82020734E366856F0B2
S11312700206714F3E60714E366856F002066F4F9B
S11312803E606F4E6F4FC0B25FEA401C4CF807607F
S11312906B4EC0B2470107F1804717F510473E6116
S11312A00026C0B2470107F1804717F51047BE80FA
S11312B00026C0B2470107F1804717F51047BE82E8
S11312C0E4B2260216F4E066E4B214F007043443F0
S11312D0C0B2460106F1804616F51046F4801400AB
S11312E06404640CC0B2460106F1804616F510464B
S11312F0F4821400E405E40DC0B2460106F1804610
S113130016F51046F483504C246834F080044E4E95
S11313103460EDB2C0B2440104F1804414F51044C9
S1131320A5605242C0B2440104F1804414F5104453
S1131330E2600022C0B2440104F1804414F5104478
S1131340A2610A22C0B2440104F1804414F510449D
S1131350A283C9B24A09313252F080023B4CC0B276
S113136002553B4A12684FF40074C9B24D09AC40AF
S11313702243374C2260374AC9B24C1152F8242018
S1131380344CC9B24D1154F825406469012511F05B
S11313901F06B540AC4354612F4AC9B24C1152F8F0
S11313A02420C9B211F01F04DBB213F00305DBB231
S11313B09B09DBB253EA054353F4807342F82430AB
S11313C0C9B2002901D0012200E00022214BC9B298
S11313D04C1153F824301F4CC9B2491154F8211050
S11313E04969012414FA02F2914359611B490968BD
S11313F0012282401143194A1160C0B200F0D1FFAA
S1131400F1BD0C49C0B251F82010C0B2400100F146
S1131410804010F51040C08A081A70470549C0B2D0
S113142051F82010C0B2400100F1804010F5104086
S1131430C1827047F8C4FF1F408004403C800440D0
S11314400C00044000900040008000400010024066
S11314503880044010C4FF1F24C4FF1F0C800040C8
S113146070B504000E001500E4B2042C03DB48211F
S11314702A4800F07FFF2A4800684FF47A7190FBF5
S1131480F1F04643002E03D14E21244800F072FFB0
S11314902448006850F400002249086000202249D2
S11314A008602800002808D02048E4B240F82450FE
S11314B0E4B214F1440000F074FF701E1C49E4B25D
S11314C02201505002201A49E4B211EB0411886041
S11314D01748E4B210EB0410806850F0010014497E
S11314E0E4B211EB04118860012070BD10B51148FD
S11314F00078B0F154040D48E4B250F82400804759
S11315000B48E4B210EB0410C06850F00100084925
S1131510E4B211EB0411C86010BD0000F8440000EF
S11315201CC6FF1F3C80044000700340A0C5FF1F81
S11315300071034004ED00E00821DFF84024126844
S113154052F40002DFF834341A6000BFDFF82C24B0
S1131550126832F48012DFF824341A6000BF19E0F4
S1131560DFF81824126832F40012DFF810341A601D
S1131570DFF80824126852F48012DFF800341A608D
S113158000BFDFF8F823126832F48012DFF8EC337E
S11315901A6040000A00511ED2B2002A0AD0020684
S11315A0DED5DFF8D823126852F40012DFF8CC330A
S11315B01A60DDE7704700000821DFF8C0231268D5
S11315C032F40002DFF8B4331A60DFF8B023126893
S11315D032F48012DFF8A4331A6019E0DFF89C2398
S11315E0126832F40012DFF894331A60DFF88C23A7
S11315F0126852F48012DFF884331A6000BFDFF8F7
S11316007C23126832F48012DFF870331A604000D1
S11316100A00511ED2B2002A0AD00206DED5DFF833
S11316205C23126852F40012DFF850331A60DDE7CD
S1131630704710B50400B1F15000C0B2FFF7BCFF11
S1131640E4B2200950F01000C0B2FFF7B5FF14F067
S11316500F0050F00100C0B2FFF7AEFF10BD70B52F
S11316600400002508E02000C0B2FFF765FF761CE7
S1131670F6B2802EF7DB6D1CEDB2082D0CDAB5F155
S11316805000C0B2FFF798FF0120FFF795FF10202C
S1131690FFF792FF0026EBE770BD07E043F2264117
S11316A00A00511E92B2002AFAD1401E80B20028CC
S11316B0F4D1704780B54FF48070DFF8C41208602D
S11316C04FF48070DFF8BC1208604FF48070DFF8CC
S11316D0B81208604FF48070DFF8B01208605FF44D
S11316E07000DFF8AC120860DFF89002006850F474
S11316F08010DFF888120860DFF88002006830F498
S11317008000DFF8781208603220FFF7C6FFDFF8A8
S11317106C02006850F48000DFF860120860AE20AC
S1131720FFF74AFF0020FFF747FF1020FFF744FFB1
S11317304020FFF741FF8120FFF73EFFCF20FFF756
S11317403BFFA120FFF738FFC820FFF735FFA62095
S1131750FFF732FFA820FFF72FFF3F20FFF72CFFF2
S1131760D320FFF729FF0020FFF726FFD520FFF73E
S113177023FF8020FFF720FFD920FFF71DFFF12072
S1131780FFF71AFFDA20FFF717FF1220FFF714FF05
S1131790DB20FFF711FF4020FFF70EFF2020FFF7AB
S11317A00BFF0220FFF708FF8D20FFF705FF142031
S11317B0FFF702FFA420FFF7FFFEA620FFF7FCFEC1
S11317C0AF20FFF7F9FE0020FFF749FF00210020BA
S11317D0FFF72FFFFF20FFF742FF4FF47A70FFF768
S11317E05CFF0020FFF73BFF4FF47A70FFF755FFD3
S11317F001BD2DE9F84304000D00160000275FF039
S113180000085FF0000915E0DFF88801FFB2062147
S113181001FB07005FFA88F818F80000FFF78CFE58
S113182018F101085FFA88F8B8F1060FECDBA41D83
S113183019F101095FFA89F919F80600002813D093
S11318405FFA89F919F80600B0F12007E4B27F2C99
S113185001DB00246D1C2900C9B22000C0B2FFF7CF
S1131860E8FE5FF00008DDE7BDE8F183F0B589B07C
S113187000AC494DB5E8C010A4E8C0100C3D0C3CC8
S11318801424002503AEA555641E002B12D19DF827
S1131890003003AD6355641E0EE00A2593FBF5F694
S11318A005FB163500AEAD5D03AEA555641E0A25D5
S11318B093FBF5F3012BF0DA202303AD6355641E8B
S11318C0002A12D19DF8002003ABE254641E0EE0FE
S11318D00A2392FBF3F503FB152300AD5B5D03AD17
S11318E06355641E0A2392FBF3F2012AF0DA2022E4
S11318F003ABE254641E002912D19DF8001003AA20
S1131900A154641E0EE00A2291FBF2F302FB1312AF
S113191000ABD25C03ABE254641E0A2291FBF2F1E9
S11319200129F0DA202103AAA154641E002812D14F
S11319309DF8000003A96054641E0EE00A2190FB88
S1131940F1F201FB120100AA895C03AAA154641EEE
S11319500A2190FBF1F00128F0DA002C04D42020B5
S113196003A96054641EF8E703AA0E99C9B20020C3
S1131970FFF73FFF09B0F0BD0000000040F00F404A
S113198050A0044054A0044058A004405CA004406B
S113199054F00F40E8410000F04A000030B45A4AC5
S11319A0C0B252F82000594A904201D1012200E00D
S11319B00022574B984201D1012300E00023D2B208
S11319C0DBB21A43002A02D0524A126801E0524A9A
S11319D012684E4B98420ED1504B1B6853F48063EF
S11319E04E4C23604FF440734D4C23604FF44073CE
S11319F04C4C23605BE0464B984214D1474B1B6828
S1131A0053F40063454C2360444B1B6853F48053E8
S1131A10424C23604FF44073434C23604FF44073B3
S1131A20424C236043E0424B98420ED13B4B1B682F
S1131A3053F48053394C23604FF440733D4C23607E
S1131A404FF440733C4C236031E03C4B98420ED140
S1131A50324B1B6853F40053304C23604FF44073F3
S1131A60374C23604FF44073364C23601FE0364BF1
S1131A7098420ED1354B1B6853F48063334C23607A
S1131A804FF44073324C23604FF44073314C236065
S1131A900DE02E4B1B6853F400632C4C23604FF471
S1131AA040732D4C23604FF440732C4C2360C37857
S1131AB013F0F303C370002383704FF47A7303FBB2
S1131AC002F30C0193FBF4F3047814F0E0049BB2EA
S1131AD01D0A15F01F052C43047043704FF4FA449B
S1131AE06243090192FBF1F19BB2B1EB4311827A9B
S1131AF012F0E00411F01F0121438172C17851F00A
S1131B000C01C17030BC704768C4FF1F00A00640C0
S1131B1000B0064014C6FF1F1CC6FF1F34800440DB
S1131B2044A0044040A0044010B004400CB0044061
S1131B3000C006400CC0044008C0044000D0064069
S1131B4044B0044040B0044000A00E40288004404B
S1131B503CB0044038B0044020D0044024D00440B9
S1131B604100090E7F3915D4D1F11F0114D440006E
S1131B7007D2C00140F00040C84048BF6FF00040A9
S1131B807047C00140F00040C8404CBF4FF00040D7
S1131B90404270470020704700424FF0004058BF59
S1131BA0C0437047002840F10980F446404200F0E9
S1131BB005F850F000406047002800BF0AD0B0FA92
S1131BC080F18840D1F19D01C905020672F10042FD
S1131BD041EB1020704750F8041B61B150F8042BFE
S1131BE0D30744BFA9F101039A18002342F8043B28
S1131BF0091FFAD1EFE7704790EA010F44BF81F063
S1131C00004100F02FBC00BF421A3CBF801A891863
S1131C104FF0004CC0F3C752FF2A24D0C1F3C7537E
S1131C2013B3D21AD2F1190327DD4CEA01214CFA7D
S1131C3003F321EA0303D140C20D4CEA002040180B
S1131C4034BF20EA0C004CEA5000D20553EA00638A
S1131C5073EB0C0C52EB1020420012F1807F38BF62
S1131C607047C00DC0057047490212BF9A4200EB8D
S1131C705120F8E7D2F11703D9D5704710B5FF23E7
S1131C8013EAD0541DBF13EAD1529C429A4239E060
S1131C90A41ADA0780EA0103134042EA012142EA66
S1131CA00020421A3CBF641E01EB4202090AB2FB47
S1131CB0F1FE01FB1E221202B2FBF1F001FB102225
S1131CC06EF30F201202B2FBF1FE4EEA00207F34C5
S1131CD006DDFE2C24DA53EA500050EBC45010BD4C
S1131CE0D4F1020401FB1E2240F08071192C1DDC8A
S1131CF021FA04F0C4F12004A140114371F100421F
S1131D00584110BD9C421ABF03EAD1529A420FE0D7
S1131D1080EA010E0EF00043400004D0490016D1C1
S1131D2043F0FF4010BD490008BFD343180010BD65
S1131D309C4205D1D21AF7D001F00041484010BDB1
S1131D404A0212BF0846484000F0004010BD4AB99C
S1131D500902B1FA81F2914044B1A418C00140F0E3
S1131D6000409EE7C90141F0004152420002B0FA2E
S1131D7080F4A040141B94E738B5AD4800680028EF
S1131D8009D401220A210320FFF738FAA848006881
S1131D90401EA7490860A7480068A7490860A748EB
S1131DA00068A7490860A7480068A7490860A748D1
S1131DB00068A749096800F04DFBA6490860A348DC
S1131DC00068A3490968FFF717FFA3490860A348FF
S1131DD00068A34900F0B2FB0FD2A2480068A049F2
S1131DE000F0ACFB09D200209F49086000209F4905
S1131DF0086000209E49086017E09A4800689749E7
S1131E00096800F027FB98490860964800689349E0
S1131E100968FFF7F1FE9549086093480068934903
S1131E200968FFF72BFF92490860924800689249BD
S1131E30096800F00FFB914908608E4800688E49DC
S1131E400968FFF7D9FE8E4908608E4800688E49FC
S1131E50FFF714FF00F084FB8C4A8D4B00F0A8FBC5
S1131E6091F0004100F018FC01008A4800F0B9FD2F
S1131E70894900F0B9FD89490860804800688849AB
S1131E8000F0B2FD7E490968FFF7F8FE8549086055
S1131E9084480068844900F037F903D883488149AD
S1131EA0086008E07F480068814900F047FB02D2DF
S1131EB07F487C4908607F4800686649096800F0EB
S1131EC093FD04007C4800686749096800F08CFDB4
S1131ED001002000FFF790FE784908605E48006822
S1131EE068490968FFF788FE7549096800F07CFDB8
S1131EF00400744800685D49096800F075FD01003C
S1131F002000FFF779FE704908606C48006800F013
S1131F1027FB04000D005FF07F516B48006800F060
S1131F2060FD00F01DFB694A694B00F0C9FD020029
S1131F300B002000290000F095FE00F0ADFB654980
S1131F40086064480068644900F04EFD040041489C
S1131F50006841490968FFF791FE604900F044FDBB
S1131F6001002000FFF748FE5A49086059480068FC
S1131F70304908602F4800682F49096800F06AFA60
S1131F805749096800F030FDFFF7EAFDFFF70AFE44
S1131F902A49086027480068FFF7E2FD00F59850D9
S1131FA02430FFF7FFFD25490968FFF725FE4D4959
S1131FB008604C4800684C4900F0C0FA03D24A4813
S1131FC04849086008E047480068484900F09CF820
S1131FD002D84748434908604248006845490860B8
S1131FE040480068444908603E480068FFF7B8FD6F
S1131FF001000120FFF745F8154800683F4900F04B
S11320009DFA14D2114800683C4900F097FA0ED2A8
S11320101C480068394900F091FA08D23848006831
S1132020364900F08BFA02D201203649086031BDEE
S113203008C6FF1F28C6FF1F2CC6FF1F30C6FF1F80
S113204034C6FF1F6CC6FF1F70C6FF1FB4C5FF1F39
S1132050B0C5FF1F38C6FF1F3CC6FF1FB8C5FF1F12
S113206001002041BCC5FF1F44C6FF1F48C6FF1F17
S113207040C6FF1FC4C5FF1FC0C5FF1F50C6FF1FBA
S113208054C6FF1FC8C5FF1F00003443E17A14AED5
S113209047E1FEBF666626400000C8425CC6FF1FDB
S11320A00000B4424CC6FF1F0180A2440080A24439
S11320B00080A2C488C4FF1F8CC4FF1F64C6FF1F16
S11320C090C4FF1F94C4FF1F60C6FF1F9A9999997B
S11320D09999A93F58C6FF1F00401C45000048427B
S11320E098C4FF1F80C4FF1F0000614501C0C145A3
S11320F000C0C14584C4FF1FF8C5FF1F0000404055
S1132100CCC5FF1F0CC6FF1F4FF0807C1CEB400F9B
S113211094BF1CEB410F05E040EA010C5FEA4C0C54
S113212001D28142704718BF8842704710B54B48AE
S113213000684B4908604B4800684B4908607820A8
S1132140464908607820474908604448046847487D
S11321500068FFF705FD201A4549086041480468F6
S113216044480068FFF7FCFC201A434908604348D0
S113217000683F490968424A12683D4B1B68414C5C
S113218024681B1B5A4301FB00203F490968384A55
S113219012683E4B1B689A183A4B1B68B2EB430219
S11321A002FB01003A49096808183A4908603A48AC
S11321B0006831490968394A12682F4B1B68384C4A
S11321C024681B1B5A4301FB0020364909682A4A2C
S11321D01268354B1B689A18314B1B68B2EB4302EB
S11321E002FB01003149096808183149086029488F
S11321F00068274908602E4800682C4908601C487C
S11322000068204908601C480068254908601D488A
S113221000681E4908602248006823490860254870
S11322200068002810D12448006843F698218842A9
S11322300ADA184801680420FEF746FE1C480168C3
S11322400620FEF741FE07E000210420FEF73CFED5
S113225000210620FEF738FE10BD00BF74C6FF1F24
S1132260C8C6FF1F84C6FF1FCCC6FF1FB4C6FF1F0E
S113227078C6FF1FB8C6FF1F88C6FF1FA0C4FF1F74
S11322809CC4FF1F7CC6FF1FA4C6FF1F80C6FF1F80
S113229098C6FF1F94C6FF1FA8C4FF1FA4C4FF1F36
S11322A08CC6FF1FA8C6FF1F90C6FF1FA0C6FF1F36
S11322B09CC6FF1F0CC6FF1F04C6FF1F016A31F036
S11322C040010162416A31F00B014162416A51F0FF
S11322D007014162416A51F08001416201680906C7
S11322E0FCD5416A490601D501202EE00021C26CCB
S11322F01100826C5118426C5118026C5118C26B57
S11323005118826B511889B2022291FBF2F151F4F7
S1132310004189B2C1620021C26E1100826E51185F
S1132320426E5118026E5118C26D5118826D5118C7
S113233089B2022291FBF2F151F4004189B20163A6
S1132340416A31F080014162002070470A7882605E
S11323504A78C2604A8882618A88C2618A79026244
S1132360CA794262CA6802650A7A0260497A41609F
S11323707047000080B50A000100064800F0EDFF38
S1132380054800E0401E0028FCD103480028F7D08F
S1132390401EFBE710470000A086010025490860A5
S11323A0704710B504005C2C02DB234800F0D5FF15
S11323B0202094FBF0F0002803D0022827D013D368
S11323C037E00120202194FBF1F202FB11429040FE
S11323D01A4908600120202194FBF1F202FB11420A
S11323E090401749086024E00120202194FBF1F279
S11323F002FB11429040134908600120202194FB04
S1132400F1F202FB114290400F49086011E00120F3
S1132410202194FBF1F202FB114290400B49086029
S11324200120202194FBF1F202FB11429040084963
S1132430086010BD08ED00E0D045000080E200E037
S113244000E100E084E200E004E100E088E200E072
S113245008E100E090EA010F44BF81F00041FFF77A
S1132460D3BB00BF431A4FF000423EBF5340C01AD3
S1132470C91800BFD3095FEAD05C13EB400F34BF27
S1132480B3EB410F40E07CEBD1530CD342EA012182
S113249022D8D1EB402009D3400A28BF5FEA50017B
S11324A040EBCC507047401A15D04002B0FA80F28D
S11324B0521C9040400A4FEA3C23B3EB026384BFB2
S11324C000EB730007E040F400001A16DB07C2F1CA
S11324D00102D04018437047182BFCDC31FA03F298
S11324E002FA03F3591A38BF42F00102D2EB40203A
S11324F03CBF4000ACF1010C5FEACC5CC20572F158
S113250000414CEB5020704713EB400F0FD24B00AF
S113251009D0ACEBD153022B03DB4902172BDDDDD1
S113252070479143401A4300D5D10020704713EB04
S1132530410FD0D36FF00000704700004FF0807C53
S11325401CEB400F94BF1CEB410F05E040EA010C6B
S11325505FEA4C0C01D28842704718BF8142704731
S11325605FF0FF0C1CEAD05114BF614506E0C110B6
S1132570400721F0E04101F16051704779B900F062
S1132580004100020AD0B0FA80FC00FA0CF001F11C
S11325906051A1EB0C5101EBD02140057047410281
S11325A00CBF40F4E0016FF0000100207047000010
S11325B070B44FF0004591EA030C44BF6B4000F047
S11325C0DDBE00BF841A71EB030603D2001BB141C8
S11325D0121973414FF4001C1CEB410F34BF7CEB08
S11325E0430443E00C0DA4EB1356352E50DC45EAAE
S11325F0C323DB0A45EAC121C912B6F120050DDD6A
S113260063FA05F6EB4086EA0305124218BF45F06B
S11326100105C01851F100010CD213E062FA06F56D
S1132620F2405540F3415A40B340F3405A408018B9
S1132630594107D349085FEA30005FEA350528BFEE
S113264045F0010501F58011420875F1004250F191
S1132650000041EB045170BC4FF4001C1CEB410F13
S113266038BF70470020090D090570471CEB410F66
S113267010D252EA43060BD0BCEB410F05D80C0D27
S1132680AB43661E342EB5DD02E0AB4380185941DE
S113269070BC704770BC70474FEAF17CBCF1E04CF1
S11326A02CBFBCF5001F11E05FEA4C0C34BFBCF139
S11326B07F5F2EE05FEA9C0C4FEA0C1C4FEA3C0C57
S11326C0C10071F100414CEB50707047C90241EAFE
S11326D05051C00218BF41F0010141F000414FEADE
S11326E06C50C0F10900212810D240EACC7CCCF116
S11326F0200C11FA0CF070F10040CCF1200C21FAFE
S11327000CF00CF0004C40EB0C0070474FEACC701E
S11327107047490011F5001F04D84FEACC10FF3070
S1132720C0057047C81770472DE9F14D83B00C46BA
S113273003980194C0F3C7501546FF2808D10398A5
S1132740002740020CBF4FF001084FF0020813E0CD
S1132750012807DA03A800F0C7FE012802DB0027DE
S1132760B84609E0039921F0FF4141F07C510391FF
S1132770A0F17E074FF0FF38002101A800F0C7FE4A
S113278006460DB10020288026B92046002100F01D
S1132790E7FE12D0B8F1000F12D53FB2012F14D1C9
S11327A003984FF07C5100F0DBFE06D0012E0CD1D3
S11327B04FF03F4100F0D4FE2ED14FF07E500DE19A
S11327C0B8F1020F03D1039808E1012E53DB022E66
S11327D008BF204600F00281B8F1010F1AD1039816
S11327E0002802D4002C43D52FE0002C09D4002E5D
S11327F03ED14FF0FF3101A800F089FE002837D503
S113280034E016BB4FF0FF3101A800F080FE002831
S11328101BD517E0012E08D13FB2002C02D4012FA2
S113282026DA12E0012F10DA22E0002C0FD466B968
S11328304FF0FF3101A800F06AFE002844BF03985E
S1132840002802D54FF00040C8E00020C6E000F0A8
S113285095FE222101605EB94FF0FF3101A800F01E
S113286056FE002844BF0398002801D54F48B5E020
S11328704FF0FF40B2E00398002848BF002E06D571
S113288000F07CFE212101606FF00040A6E00021F1
S1132890FFF73AFC38BF002608D380F000400390CD
S11328A04FF0FF3101A800F032FE0646039840497C
S11328B0FFF744FE06D201464FF0804000F094F842
S11328C003907F1E03993B48FFF796F903998346CB
S11328D04FF07E50FFF790F901465846FFF7CEF9C6
S11328E08046414600F080F88246CDF80CB000F0F6
S11328F04BFE514600F078F80399FFF7ABFD4146D3
S113290000F072F801460398FFF776F9804638B272
S1132910FFF748F9074640462749FFF7AFF939461C
S1132920FFF76AF90190214600F05EF84FF0474145
S1132930FFF704FE009043D32049FFF7E5FB41D99C
S11329400021FFF7FBFD014634BF4FF03F404FF03D
S11329507C50FFF751F9FFF703F9824638462146C8
S113296000F042F807465046FFF71CF90146384686
S1132970FFF770FD104900F037F80746404621463E
S113298000F032F83946FFF737F900901DB1A5F889
S113299000A04FF0000A52464FF07E5100A800F00C
S11329A00BFE68B101280DD013E000BF000080FFCA
S11329B0F304353F000080BF1872313F0100004727
S11329C0002001E04FF0FF40009000F0D7FD2221ED
S11329D00160002E009818BF80F0004004B0BDE8EC
S11329E0F08D0022A0E60000FF2212EAD05C1DBF99
S11329F012EAD153944593422BE09C44D30780EAD6
S1132A0001021A4043EA002043EA0121A1FB0030FD
S1132A10410038BF40007CF17F010BDBFE294ADA1C
S1132A205B0842EAC15153EA006373F1004C51EB75
S1132A3010207047D1F1080CDCF120012FDB5B087A
S1132A4010FA01F10B4373F1004120FA0CF05041EC
S1132A50704794451CBF02EAD153934280EA0102B5
S1132A6002F000421DD0400019D0490017D05BB9D4
S1132A70634514D00902B1FA81F39940BCEB030C0D
S1132A80C00140F00040C1E70002B0FA80FC10FA37
S1132A900CF0B3EB0C0CC90141F00041B6E7100097
S1132AA0704740000AD0490008D010F1807F94BFDD
S1132AB011F1807F02E042F0FF407047D04370473D
S1132AC0B0B581EA030C0CF0004C40F2FF7515EA36
S1132AD011541DBF15EA1357AC42AF4239E0E41953
S1132AE023EA455343F48013C90241F0004141EA0B
S1132AF0505EC7021100A7FB020200284FF000003D
S1132B00EEFB01204FF00001E3FB072118BF42F068
S1132B100102401800214941E3FB0E01A4F5806441
S1132B200F0302D252004041494154F101046CDDCB
S1132B30470872F1004250F1000051EB0451A1F535
S1132B4080115CBF41EA0C01B0BD4CEA0551002084
S1132B50B0BD05EA1357AC4214BFAF4241E050EA9E
S1132B60410E1CBF52EA430E02E061460020B0BD94
S1132B7024423C441BD15FEA070EF6D0090302BF8E
S1132B8001460020AEF1140EB1FA81F7AEEB070452
S1132B9001FA07FE0C37C7F1200100FA07F7C84015
S1132BA04EEA000E23EA455343F48013A2E733F0C0
S1132BB00043B3FA83F704BFB2FA82FE77440B3FB3
S1132BC0E41BB7F1200E2FBF02FA0EF3BB40C7F18E
S1132BD0200E22FA0EFE38BF43EA0E03BA40641CEC
S1132BE082E750EA410E14BF52EA430E6FF000012F
S1132BF04FF4001717EB430F8ABF194617EB410F29
S1132C00B5E74CEA05510020B0BDD4F10104B4F19C
S1132C1020070FDAC4F12007520828BF42F001024E
S1132C2010FA07F501FA07F7E1BF2A43E0403843F9
S1132C30E1400FE0352C98DCC7F1200452EA400251
S1132C4020FA07F218BF42F0010231FA07F0A1405E
S1132C500A43002172F1004250F1000051EB0C01D3
S1132C60B0BD0000F0B540F2FF7581EA030C0CF032
S1132C70004C15EA11541DBF15EA1357AC42AF427C
S1132C80E5E0BC41C1F31301C3F31303801A994176
S1132C9043F4801304D2641E400049418018594112
S1132CA0C90241EA5051B1FBF3F603FB1611A2FB32
S1132CB00675D7EBC020A94102D2761E801859416F
S1132CC0C90241EA5051B1FBF3FE03FB1E11A2FB02
S1132CD00E75D7EBC020A94103D2AEF1010E8018C6
S1132CE05941890241EA9051760546EA8E2EB1FB9C
S1132CF0F3F603FB1611A2FB0675D7EB8020A9415E
S1132D0002D2761E80185941C90241EA50514EEA56
S1132D10060EB1FBF3F603FB1611A2FB0675D7EB07
S1132D20C020A94102D2761E80185941C90241EA45
S1132D305051B1FBF3F703FB1711A2FB0735D3EB9B
S1132D40C020A94167F100070CBF004247F001070A
S1132D5066F3D5274FEA1E31B80814F5806412DDF6
S1132D60BD0775F1004250EB0E5051EB045111F5C3
S1132D70801F5CBF41EA0C01F0BD4CF07F6141F063
S1132D80E0410020F0BDBD076D0840EA0E5041F45B
S1132D908011D4F10104B4F120060ADAC4F120064A
S1132DA00200E04001FA06F3E1401843B240154343
S1132DB00EE0342C13DCC6F1200445EA40056D080E
S1132DC020FA06F2154321FA06F0A1400D43002132
S1132DD075F1004250F1000051EB0C01F0BD0020F0
S1132DE05FEA0C01F0BDCFB992185B41B3FA83F7E7
S1132DF004BFB2FA82F6BF190B3FB7F120062FBF0A
S1132E0002FA06F3BB40C7F1200622FA06F638BFE1
S1132E103343BA401CB1E419641E33E77F4231F0F6
S1132E200041B1FA81F404BFB0FA80F6A4190B3C56
S1132E30B4F120062FBF00FA06F1A140C4F1200628
S1132E4020FA06F638BF3143A0403C1B1AE7AC42D7
S1132E501ABF05EA1357AF4212E050EA41061CBFFD
S1132E6052EA4306BFE750EA4107304661461CBFB9
S1132E7041EA0551F0BD52EA430C08BFC143F0BD1D
S1132E8000204FF4001616EB410F98BF16EB430FCA
S1132E9008BF16EB410F24BFC14305E016EB430FF7
S1132EA00CBF61464CEA0551F0BD000010B50C00A2
S1132EB01168012902D0022904D009E0C0B2516886
S1132EC0884705E0916808709068401C9060FFE7AF
S1132ED02068401C206010BD30B41C000023002575
S1132EE00570401C002A19D0096800290AD1302134
S1132EF001705B1C180030BC704730351100057040
S1132F00401C5B1C0029F5D091FBF4F204FB121564
S1132F10002DF2D5E94311F13105EFE709680029E5
S1132F2008D1302101705B1CE4E7373511000570CE
S1132F30401C5B1C0029DDD0B1FBF4F204FB12152C
S1132F400A2DF2D23035F1E7F8B504000D00160071
S1132F501F0005E03A0031003020FFF7A7FF641C92
S1132F60AC42F7DBF1BDF8B504000D0016001F00FC
S1132F7005E03A0031002020FFF798FF641CAC42C2
S1132F80F7DBF1BD2DE9F04F8DB005009046002030
S1132F9000900C0004E02A0000A9FFF787FF641CDE
S1132FA02078002800F0D581252811D00A2804D0E3
S1132FB02A0000A9FFF77AFF09E02A0000A90D20E2
S1132FC0FFF774FF2A0000A90A20FFF76FFFE6E766
S1132FD00026002101E056F0010600291BD1641CE3
S1132FE0207820280BD023280FD02B2804D02D287C
S1132FF0F1D0302806D00BE056F00206EDE756F08B
S11330000406EAE756F00806E7E756F01006E4E798
S1133010641E0121E1E70027002104E00A2202FBEB
S11330200700B0F13007002908D1641C20780200A1
S1133030303A092AF2D9641E0121F4E7641C20788D
S11330402E280BD10021FFE7002908D1641C207829
S113305030380928F8D9641E0121F5E7641E641C80
S113306020784C2806D0682802D06C2801D002E0D1
S113307002E001E000E0641E641C2078010058298D
S113308077D0622900F0D880632900F02881642970
S113309013D0692911D06E2900F054816F2900F0F2
S11330A0BE80702900F0D580732900F02281752933
S11330B000F0DC8078295CD06DE7D8F8000018F1C6
S11330C0040803900A23012203A904A8FFF704FFBC
S11330D0814604A819EB000002900398002804D547
S11330E05FF02D0A19F101090FE0B00704D55FF074
S11330F02B0A19F1010908E0700704D55FF0200AD2
S113310019F1010901E05FF0000A5FF0000B3007DC
S113311011D5BAF1000F04D02A0000A95046FFF7D8
S1133120C5FE5FF0010B2B0000AA39004846FFF7EB
S11331300BFFB94611E0F0070FD42B0000AA3900A9
S11331404846FFF710FFBAF1000F04D02A0000A987
S11331505046FFF7ABFE5FF0010BBBF1000F07D148
S1133160BAF1000F04D02A0000A95046FFF79EFED2
S1133170A8E0D8F8000018F10408019010230022F8
S113318001A904A8FFF7A8FE814604A819EB0000D2
S113319002905FF0000B300715D5F0060BD52A001E
S11331A000A93020FFF782FE2A0000A97820FFF74B
S11331B07DFE5FF0010B2B0000AA39004846FFF7A3
S11331C0C3FEB94619E0F00717D4F00601D519F18A
S11331D002092B0000AA39004846FFF7C4FEF00696
S11331E00BD52A0000A93020FFF760FE2A0000A9B1
S11331F07820FFF75BFE5FF0010BF0060ED5BBF104
S1133200000F0BD12A0000A93020FFF74FFE2A003F
S113321000A97820FFF74AFE19F1020952E0D8F814
S1133220000018F1040801900823002201A904A851
S1133230FFF752FE814625E0D8F8000018F1040893
S113324001900223002201A904A8FFF745FE81464C
S113325018E0D8F8000018F10408019010230022A7
S113326001A904A8FFF738FE81460BE0D8F8000056
S113327018F1040801900A23002201A904A8FFF709
S11332802BFE814604A819EB00000290300707D5F5
S11332902B0000AA39004846FFF756FEB94611E054
S11332A0F0070FD42B0000AA39004846FFF75BFE55
S11332B008E02A0000A902980078FFF7F7FD0298B9
S11332C0401E0290029800780028F2D1F00705D53C
S11332D02B0000AA39004846FFF745FE5FE6D8F800
S11332E0000018F10408C0B22A0000A9FFF7DEFDAF
S11332F055E6D8F800A018F10408BAF1000F20D060
S1133300504600F065FA8146F0070ED42B0000AA5F
S113331039004846FFF727FE07E02A0000A99AF87B
S11333200000FFF7C3FD1AF1010A9AF80000002813
S1133330F3D1F00705D52B0000AA39004846FFF762
S113334012FE2CE6D8F8000018F104080099016078
S113335025E600980DB0BDE8F08F0EB400B584B03A
S1133360012100910449019105AA010000A8FFF779
S113337009FE04B05DF810FB0D4A0000841A71EBDD
S1133380030604D26E40001BB141121973414FF47D
S1133390001C1CEB410F34BF7CEB430684E00C0D96
S11333A0A4EB1356362E7DDC012E43DC45EAC32301
S11333B043EA525312BFD20292025B08240545EA43
S11333C0C12141EA5051D2EBC020994125D407D103
S11333D0B0FA80F610FA06F164D00020203608E036
S11333E0B1FA81F6B140C6F1200220FA02F211438B
S11333F0B0404FEAF474B4EB465434F001064FEA9B
S113340074040AD8D6F50016760D04F00044F04092
S113341061FA06F25040F1404840C00A40EA415087
S113342021F0004128BF5FEA500550F1000044EB51
S1133430D12137E045EAC323DB0A45EAC121C90AA1
S1133440B6F120050EDD42EA0242120CC5F1200657
S113345003FA06F6EB4042EA06056D42984161F133
S113346000010DE062FA06F5F240554063FA06FCED
S113347082EA0C02F3405A406D42904161EB030131
S113348011F4801F05D1641E620502D06D00404115
S1133490494121F48011430875F1004350F10000C3
S11334A041EB045170BC70471CEB410F15D223F063
S11334B0004352EA43060BD04FEA4C0CBCEB410FDD
S11334C004D80C0D661E342EB7DDEBE7801A994143
S11334D050EA410608BF0021E4E708BF1CEB430F94
S11334E028BF6FF00001DDE7026802F0004301210C
S11334F05202520A02D106E05200491E5FEA022C2F
S1133500FAD55202520A1A4302600846704702680A
S1133510C2F3C752FF2A06D10068400201D101203C
S113352070470220704703685B0016D0C2F1960210
S1133530521A012A11DB182A04DB016801F0004148
S1133540016007E0012191400268491E11404A4090
S1133550026011B14FF0FF30704700207047000047
S113356040EA010C5FEA4C0C07D0884205D14FEACF
S1133570400C1CF1807F98BF80427047014800F0E6
S113358034B90000D0C6FF1F10B5044607482146D1
S1133590FFF72AFA0649FEF72FFB2146FFF724FA24
S11335A0BDE810400349FEF727BB00001502993E11
S11335B011AECC3EC0AA2A3F2DE9F04D04460D467B
S11335C02768C7F3C7511646FF2909D011B14FF038
S11335D0FF3009E078020CBF00206FF0010003E027
S11335E0780214BF02200120C5F3C752FF2A09D074
S11335F012B14FF0FF3109E069020CBF00216FF0F6
S1133600010103E0690214BF02210121020048BF45
S113361000293ED4022800F0C680022908BF256094
S113362018D039B938464FF0FF41FFF799FF0AD057
S1133630256038E0012910D138465C49FFF790FF36
S113364018BF256040D1FFF799FF212101606FF079
S1133650004020600220BDE8F08D70B9256031463D
S1133660204600F0C3F8040018BF012C40F09A80F3
S1133670FFF784FF2221016094E038464FF0FF41B8
S1133680FFF76EFF0AD108462946FFF7ADF920601F
S11336901AE038464649FEF751FF07D20020294672
S11336A0FFF7A2F920600020BDE8F08D4149FEF744
S11336B02BFD0CD84FF0FF402946FFF795F9206009
S11336C0FFF75CFF222101600120BDE8F08D39463F
S11336D03948FFF789F90021FEF730FF34BF4FF076
S11336E03F414FF07C51FEF787FAFEF739FA8046E6
S11336F0FEF758FA824631485146FFF775F90146FC
S11337003846FEF7A7FE07462D485146FFF76CF9E9
S113371001463846FEF79EFE4FF03341FEF7F4FCB7
S1133720824603D82749FEF709FF2DD35146FFF7F8
S11337305BF9834624485946FFF756F90746234860
S11337405946FFF751F94FF07C51FEF755FA5146AF
S1133750FFF74AF9824638465146FEF74DFA4FF0D4
S11337607E51FEF749FA834638465146FEF772FE0B
S11337704FF07E51FEF740FA01465846FEF77EFAB6
S11337802946FFF731F90546256006EB0801204676
S113379000F02CF8040018BF012C03D1FFF7EEFE53
S11337A0222101602046BDE8F08D00BF000080FFAB
S11337B0000065C3010065433BAAB83F0060313F88
S11337C0BFBF9039010000339EBFCC3D1354083C69
S11337D00021002802D1002006E0491C0200501CF0
S11337E01278002AF9D108007047704738B50446AA
S11337F00D4620684000000EFF2804D120684002D6
S113380014D0022032BD20B92046FFF76DFE0128F6
S113381047DA012D0CDBC0F1FF018D4208D320688B
S113382000284CBF20484FF0FF402060012032BDEB
S11338304142A942216806DA21F0FF41401941EAD8
S1133840C050206027E001F0004122685202401E6F
S1133850520A451942F4000205F1180022601828A2
S113386028BF21601DD200206A4207D02068C2F11F
S113387020039840236823FA02F2226022680A4354
S11338802260B0F1004F03D808D12078C00705D5D5
S11338902068401C20604FF0FF3032BD2068884211
S11338A0F9D1002032BD00BF000080FF80B500F0D8
S11338B02FFA00F049FA00F095FADFF85003007887
S11338C0400703D5DFF84803FFF747FDDFF83C0363
S11338D00078800703D5DFF83C03FFF73EFDDFF8EF
S11338E02C030078C00703D5DFF82C03FFF735FD60
S11338F0DFF828030078000603D5DFF82403FFF778
S11339002CFDDFF818030078400603D5DFF8140314
S1133910FFF723FDDFF804030078800603D5DFF802
S11339200803FFF71AFDDFF8F4020078400703D517
S1133930DFF8F802FFF711FDDFF8E00200788007F6
S113394003D5DFF8EC02FFF708FDDFF8D0020078BA
S1133950C00703D5DFF8DC02FFF7FFFC00F003F833
S1133960FCF774FDFEE780B5DFF8CC0200680009BF
S113397010F0070000280BD0022811D00CD3042823
S113398016D011D306281BD016D307281CD01FE04D
S1133990AA48FFF7E2FC1EE0A948FFF7DEFC1AE0A4
S11339A0A848FFF7DAFC16E0A748FFF7D6FC12E0B8
S11339B0A648FFF7D2FC0EE0A548FFF7CEFC0AE0CC
S11339C0A448FFF7CAFC06E0A348FFF7C6FC02E0E0
S11339D0A248FFF7C2FC9848006810F00F000228C4
S11339E012D0042814D0052816D0062818D0072889
S11339F01AD008281CD009281ED00A2820D00C2848
S1133A0022D00E2824D027E09548FFF7A6FC26E014
S1133A109448FFF7A2FC22E09348FFF79EFC1EE0C7
S1133A209248FFF79AFC1AE09148FFF796FC16E0DB
S1133A309048FFF792FC12E08F48FFF78EFC0EE0EF
S1133A408E48FFF78AFC0AE08D48FFF786FC06E003
S1133A508C48FFF782FC02E08B48FFF77EFC764837
S1133A600068000B10F00F00002803D0022809D0D2
S1133A7004D30BE08548FFF770FC0AE08448FFF7A5
S1133A806CFC06E08348FFF768FC02E08248FFF71D
S1133A9064FC00F06AF881480068000E10F00F0022
S1133AA0072806D0092808D00B280AD00F280CD0E4
S1133AB00FE07B48FFF751FC0EE07A48FFF74DFC1E
S1133AC00AE07948FFF749FC06E07748FFF745FC30
S1133AD002E07648FFF741FC75480068000203D510
S1133AE07448FFF73AFC1EE06C480068000F002899
S1133AF006D0072808D009280AD00F280CD00FE0D8
S1133B006D48FFF72AFC0EE06C48FFF726FC0AE03C
S1133B106B48FFF722FC06E06948FFF71EFC02E051
S1133B206848FFF71AFC68480068000B10F00F00A3
S1133B30052806D0072808D008280AD009280CD060
S1133B400FE06248FFF709FC0EE06148FFF705FC4F
S1133B500AE06048FFF701FC06E05F48FFF7FDFB61
S1133B6002E05E48FFF7F9FB01BD80B503205C4924
S1133B70087000205B49087000205B490870002031
S1133B805A49087001205A49087080205949087020
S1133B90584800780006FBD5574801785748027802
S1133BA05748037857480078C0B20090DBB2D2B2CD
S1133BB0C9B25548FFF7D1FB0320494908700020DA
S1133BC04849087000204849087004204749087093
S1133BD0012047490870802046490870454800780C
S1133BE00006FBD5444801784448027844480378E9
S1133BF044480078C0B20090DBB2D2B2C9B24348A4
S1133C00FFF7ABFBFF203B49087001BD00E0074014
S1133C1044490000A4470000204A000001E0074096
S1133C20584900003C480000544800006C4800001B
S1133C30C0470000304A000024800440084B0000C4
S1133C40104B0000184B0000204B0000284B0000D4
S1133C50304B0000384B0000404B000098460000F9
S1133C60404A0000504A0000604A0000704A0000C8
S1133C70804A0000904A0000A04A0000B04A0000B8
S1133C80C04A0000D04A00006C460000844800008E
S1133C906C49000080490000904500004C800440BD
S1133CA09C480000B4480000CC4800004447000091
S1133CB050800440E04A0000E4480000FC48000052
S1133CC01449000064470000007004409449000057
S1133CD0A8490000BC490000D0490000DC470000AE
S1133CE007000240060002400500024004000240B2
S1133CF00F000240000002400B0002400A00024094
S1133D000900024008000240C04600008447000049
S1133D1080B500F009F80A4800884FF6FE710840A3
S1133D200749088001BD000072B64CF220500549D5
S1133D3008804DF628100349088062B670470000D9
S1133D40002005400E20054080B51C481C498842CF
S1133D500BD0002006E01A4951F82010174A42F807
S1133D602010401CB0F5826FF5D31448FEF716FB03
S1133D701449154A1548801A03E013780B70521C35
S1133D80491C0300581E002BF7D111491148401A51
S1133D9002E000220A70491C0200501E002AF8D1D9
S1133DA00D490E4A0E48801A03E013780B70521C1A
S1133DB0491C0300581E002BF7D101BD0080FF1FD2
S1133DC00000000010C4FF1F10440000AC440000B9
S1133DD0F8C4FF1FD0C6FF1FACC4FF1F444500003A
S1133DE09045000080B52848006850F47850264972
S1133DF00860642000F068F82449086023480068DB
S1133E004FF47A71484322490860214800682149E7
S1133E100968C1F30361491CB0FBF1F01E49086055
S1133E2000F01CF800F025F84FF440701B490860BE
S1133E304FF440701A4908605FF4E1321648016893
S1133E40184800F057F9114801681748FFF785FA38
S1133E50114801681548FFF780FA01BD144800684D
S1133E6050F48050124908604FF4E0601149086032
S1133E7070471148006850F001000F4908604FF482
S1133E80A0600E49086070473880044018C6FF1FC0
S1133E9014C6FF1F448004401CC6FF1F20D00440EA
S1133EA024D0044000B00E40E4490000F84900006A
S1133EB00480044018900440408004400CB0044046
S1133EC0DFF800F0ADC4FF1F10B5C0B26F2851DA9F
S1133ED018220023804C2370804B1B6853F08053BE
S1133EE07E4C23607E4B1B7853F080037C4C237004
S1133EF098237C4C23707C4B1B78DB06FBD47A4BD9
S1133F001B78C3F38103DBB2022BF8D112F01F023A
S1133F10764B1A700022764B1A70C0B23C281ED021
S1133F20462833D050283CD05A2845D060284ED05B
S1133F30642857D06E2860D0782869D0822872D03F
S1133F4096287BD0AA2800F08480B42800F08C80C6
S1133F50C82800F09480D12800F09C80A4E00223BB
S1133F60012201210020FFF7ABFF462060490870C1
S1133F703C2199E0C0B2C92801DA0C22A9E7C0B2F9
S1133F80DD2801DA0B22A4E70020A4E002230122A9
S1133F9001210020FFF794FF4B205549087046216A
S1133FA082E00323012201210020FFF789FF502032
S1133FB04F490870502177E003230122012100209A
S1133FC0FFF77EFF55204A4908705A216CE003230D
S1133FD0012201210020FFF773FF58204449087093
S1133FE0602161E00323012201210020FFF768FF23
S1133FF05A203F490870642156E00423022202211A
S11340000020FFF75DFF5F20394908706E214BE007
S11340100423022202210020FFF752FF47203449E3
S11340200870782140E00523022202210020FFF7D6
S113403047FF4A202E490870822135E005230222D9
S113404002210020FFF73CFF4F20294908709621E8
S11340502AE00623032203210020FFF731FF542026
S113406023490870AA211FE007230322032100200B
S1134070FFF726FF57201E490870B42114E00723D8
S1134080032203210020FFF71BFF5C20184908705E
S1134090C82109E00823042204210020FFF710FFAF
S11340A05A2013490870D1210F4800788006FBD5A7
S11340B00D4800784006FBD50A48007810F03F0010
S11340C0084A107008480078C0F38100C0B2032881
S11340D0F8D10800C0B210BD01400640348004404D
S11340E008C0074000400640064006400440064021
S11340F00540064030B4324B984206D1314B1B6820
S113410053F480632F4C23602DE02F4B984206D14B
S11341102C4B1B6853F400632A4C236023E02B4B85
S1134120984206D1274B1B6853F48053254C2360D7
S113413019E0274B984206D1224B1B6853F40053D5
S1134140204C23600FE0234B984206D1224B1B687E
S113415053F48063204C236005E01F4B1B6853F429
S113416000631D4C2360C37813F0F303C370002372
S113417083704FF47A7303FB01F3140193FBF4F39C
S1134180047814F0E0049BB21D0A15F01F052C43BB
S1134190047043704FF4FA446143120191FBF2F14D
S11341A09BB2B1EB4311827A12F0E00411F01F01CB
S11341B021438172C17851F00C01C17030BC704749
S11341C000A006403480044000B0064000C0064011
S11341D000D0064000A00E40288004400279120658
S11341E0FCD5C17170470000000000000000000011
S11341F0002F000000000700070000147F147F1444
S113420000242A7F2A1200626408132300364955C9
S1134210225000000503000000001C2241000000A1
S113422041221C000014083E08140008083E080837
S1134230000000A060000008080808080000606092
S11342400000002010080402003E5149453E0000D1
S1134250427F4000004261514946002141454B31B3
S1134260001814127F10002745454539003C4A497F
S113427049300001710905030036494949360006F1
S11342804949291E00003636000000005636000059
S113429000081422410000141414141400004122D4
S11342A0140800020151090600324959513E007CAC
S11342B01211127C007F49494936003E4141412296
S11342C0007F4141221C007F49494941007F09097F
S11342D00901003E4149497A007F0808087F00002F
S11342E0417F4100002040413F01007F08142241EA
S11342F0007F40404040007F020C027F007F0408A2
S1134300107F003E4141413E007F09090906003EFD
S11343104151215E007F0919294600464949493126
S11343200001017F0101003F4040403F001F204049
S1134330201F003F4038403F006314081463000707
S11343400870080700615149454300007F4141005E
S113435000552A552A55000041417F0000040201FE
S113436002040040404040400000010204000020DC
S113437054545478007F484444380038444444201A
S113438000384444487F00385454541800087E09C7
S113439001020018A4A4A47C007F0804047800008F
S11343A0447D4000004080847D00007F102844004C
S11343B00000417F4000007C04180478007C08045D
S11343C0047800384444443800FC24242418001899
S11343D0242418FC007C0804040800485454542085
S11343E000043F444020003C4040207C001C20400E
S11343F0201C003C4030403C004428102844001C51
S1134400A0A0A07C004464544C4414141414141448
S113441000F00F4040F00F4080F00F40C0F00F401C
S113442000F10F400090044000A0044000B004409C
S113443000C0044000D0044000B0034000B00B4072
S113444000F00F4040F00F4080F00F40C0F00F40EC
S113445000F10F400090044000A0044000B004406C
S113446000C0044000D0044000A0064000B0064054
S113447000C0064000D0064000A00E4000B00E4030
S113448000209945002099459A99993E9A99193F97
S11344909A99193F9A99993E0000A0403000000073
S11344A0020000003000000002000000473A5C47B0
S11344B069744875625C6E65774B36305F67697402
S11344C06875625C50726F6A6563745C6B36302029
S11344D02D316368656E326D69616E7169616E67F5
S11344E057696E5C6C69625C4C504C445C48414C4E
S11344F05F4750494F2E6300473A5C4769744875DB
S1134500625C6E65774B36305F6769746875625CB0
S113451050726F6A6563745C6B3630202D3163684A
S1134520656E326D69616E7169616E6757696E5C43
S11345306C69625C4C504C445C48414C5F5049543B
S11345402E63000070B4104C24680F4D2D6855F490
S11345507F050D4E3560090611F0706151EA007057
S1134560110511F470010843190411F47021084372
S113457006490860002000E0401CC0B29842FBD30A
S11345800148046070BC704700F00140448004405E
S11345900A546869732076657273696F6E206F665A
S11345A020736F66747761726520646F65736E271C
S11345B074207265636F676E697A6520746865201C
S11345C07265766973696F6E20636F64652E00008F
S11345D00A4552522120496E76616C696420495221
S11345E0512076616C756520706173736564207405
S11345F06F20656E61626C65206972712066756EEC
S11346006374696F6E210A0010B50B480078B0F12D
S113461010040748E4B250F82400804705480068B5
S11346200121A14008430349086010BD00000000B7
S113463058C5FF1F2480004004ED00E00A2A2A2AFE
S11346402A64656661756C745F69737220656E7443
S113465065726564206F6E20766563746F722025C1
S1134660642A2A2A2A2A0D0A0A0000000A556E72B0
S113467065636F676E697A6564204B696E657469FA
S113468073207061636B61676520636F64652E20BE
S113469020202020200A00000A556E7265636F678F
S11346A06E697A6564204B696E657469732066610E
S11346B06D696C79206465766963652E0A00000073
S11346C0466C61736820706172616D6574657220F7
S11346D076657273696F6E2025642E25642E2564B9
S11346E02E25640A0000000010B5074979441831EA
S11346F0064C7C44163404E00A68081D51188847A7
S11347000146A142F8D110BD2C0000003800000081
S1134710417373657274696F6E206661696C656458
S113472020696E202573206174206C696E652025D4
S1134730640A0000A3D4FFFFD8010000F8C4FF1FDF
S113474000000000455252212120556E64656669BF
S11347506E656420502D666C6173682073697A6598
S11347600A000000455252212120556E6465666995
S11347706E656420466C65784E564D2073697A6583
S11347800A000000466C6173682076657273696F75
S11347906E2049442025642E25642E25642E25642C
S11347A00A000000436F7265204C6F636B757020C4
S11347B04576656E742052657365740D0A000000B9
S11347C04C6F772D766F6C746167652044657465F2
S11347D063742052657365740D0A000045525221BA
S11347E02120556E646566696E65642052414D20D2
S11347F073697A650A0A000000F00BF8002801D0FA
S1134800FFF772FF0020C046C046FBF71FFE00F012
S113481002F80120704700F001B80000074638464E
S113482000F002F8FBE7000080B5C046C046024A2B
S113483011001820ABBEFBE7260002004578746522
S1134840726E616C2050696E2052657365740D0A36
S1134850000000005761746368646F6728434F5019
S1134860292052657365740D0A0000004C6F737340
S1134870206F6620436C6F636B2052657365740D03
S11348800A00000053696C69636F6E2072657620BC
S1134890312E302020200A20000000003132382040
S11348A06B4279746573206F6620502D666C61735A
S11348B068090A00323536206B4279746573206FBB
S11348C06620502D666C617368090A003531322008
S11348D06B4279746573206F6620502D666C61732A
S11348E068090A0030206B4279746573206F662072
S11348F0466C65784E564D0A00000000313238206F
S11349006B4279746573206F6620466C65784E56E9
S11349104D0A0000323536206B4279746573206F7E
S11349206620466C65784E564D0A000080B50348F3
S11349300178C9B20248FEF710FD01BD04ED00E0A4
S11349403C460000536F667477617265205265734C
S113495065740D0A00000000506F7765722D6F6E4C
S11349602052657365740D0A0000000053696C6978
S1134970636F6E2072657620312E3120200A20006C
S113498053696C69636F6E2072657620312E322014
S1134990200A20003332206B4279746573206F66DD
S11349A02052414D0A0A00003634206B4279746566
S11349B073206F662052414D0A0A00003936206B7D
S11349C04279746573206F662052414D0A0A0000D3
S11349D0313238206B4279746573206F66205241FE
S11349E04D0A0A00436F726520436C6F636B3A256E
S11349F0644D487A210D0A0042757320436C6F633D
S1134A006B3A25646B487A210D0A000080B50100D9
S1134A10C9B20248FFF7E2FB01BD000000B00E403E
S1134A204A5441472052657365740D0A0000000022
S1134A304C4C57552052657365740D0A00000000F4
S1134A40333270696E202020202020200A000000CC
S1134A50343870696E202020202020200A000000B5
S1134A60363470696E202020202020200A000000A7
S1134A70383070696E202020202020200A00000099
S1134A80383170696E202020202020200A00000088
S1134A9031303070696E2020202020200A00000070
S1134AA031303470696E2020202020200A0000005C
S1134AB031343470696E2020202020200A00000048
S1134AC031393670696E2020202020200A00000031
S1134AD032353670696E2020202020200A00000024
S1134AE0502D666C617368206F6E6C790A0000004B
S1134AF0303132333435363738390000C046C04699
S1134B00C046C046FFF778FE0A4B31302D00000046
S1134B100A4B32302D0000000A4B33302D000000C8
S1134B200A4B34302D0000000A4B36302D000000B3
S1134B300A4B37302D0000000A4B35302D000000A1
S10F4B400A4B35332D000000000000007B
S9034AFDB5
